{
  "_format": "hh-sol-artifact-1",
  "contractName": "Escrow",
  "sourceName": "contracts/Escrow.sol",
  "abi": [
    {
      "inputs": [
        {
          "internalType": "address",
          "name": "_vibra",
          "type": "address"
        },
        {
          "internalType": "uint256",
          "name": "_value",
          "type": "uint256"
        },
        {
          "internalType": "address",
          "name": "_buyer",
          "type": "address"
        },
        {
          "internalType": "address",
          "name": "_seller",
          "type": "address"
        }
      ],
      "stateMutability": "nonpayable",
      "type": "constructor"
    },
    {
      "anonymous": false,
      "inputs": [
        {
          "indexed": true,
          "internalType": "address",
          "name": "from",
          "type": "address"
        },
        {
          "indexed": false,
          "internalType": "uint256",
          "name": "value",
          "type": "uint256"
        }
      ],
      "name": "Deposit",
      "type": "event"
    },
    {
      "anonymous": false,
      "inputs": [
        {
          "indexed": true,
          "internalType": "address",
          "name": "buyer",
          "type": "address"
        },
        {
          "indexed": true,
          "internalType": "address",
          "name": "seller",
          "type": "address"
        },
        {
          "indexed": false,
          "internalType": "uint256",
          "name": "value",
          "type": "uint256"
        }
      ],
      "name": "Dispute",
      "type": "event"
    },
    {
      "anonymous": false,
      "inputs": [
        {
          "indexed": true,
          "internalType": "address",
          "name": "previousOwner",
          "type": "address"
        },
        {
          "indexed": true,
          "internalType": "address",
          "name": "newOwner",
          "type": "address"
        }
      ],
      "name": "OwnershipTransferred",
      "type": "event"
    },
    {
      "anonymous": false,
      "inputs": [
        {
          "indexed": true,
          "internalType": "address",
          "name": "to",
          "type": "address"
        },
        {
          "indexed": false,
          "internalType": "uint256",
          "name": "value",
          "type": "uint256"
        }
      ],
      "name": "Payment",
      "type": "event"
    },
    {
      "anonymous": false,
      "inputs": [
        {
          "indexed": false,
          "internalType": "address",
          "name": "to",
          "type": "address"
        },
        {
          "indexed": false,
          "internalType": "uint256",
          "name": "value",
          "type": "uint256"
        }
      ],
      "name": "Refund",
      "type": "event"
    },
    {
      "inputs": [],
      "name": "buyer",
      "outputs": [
        {
          "internalType": "address",
          "name": "",
          "type": "address"
        }
      ],
      "stateMutability": "view",
      "type": "function"
    },
    {
      "inputs": [],
      "name": "confirmDelivery",
      "outputs": [],
      "stateMutability": "nonpayable",
      "type": "function"
    },
    {
      "inputs": [
        {
          "internalType": "uint256",
          "name": "_amount",
          "type": "uint256"
        }
      ],
      "name": "deposit",
      "outputs": [],
      "stateMutability": "nonpayable",
      "type": "function"
    },
    {
      "inputs": [],
      "name": "dispute",
      "outputs": [],
      "stateMutability": "nonpayable",
      "type": "function"
    },
    {
      "inputs": [],
      "name": "owner",
      "outputs": [
        {
          "internalType": "address",
          "name": "",
          "type": "address"
        }
      ],
      "stateMutability": "view",
      "type": "function"
    },
    {
      "inputs": [],
      "name": "processRefund",
      "outputs": [],
      "stateMutability": "nonpayable",
      "type": "function"
    },
    {
      "inputs": [],
      "name": "renounceOwnership",
      "outputs": [],
      "stateMutability": "nonpayable",
      "type": "function"
    },
    {
      "inputs": [],
      "name": "seller",
      "outputs": [
        {
          "internalType": "address",
          "name": "",
          "type": "address"
        }
      ],
      "stateMutability": "view",
      "type": "function"
    },
    {
      "inputs": [],
      "name": "state",
      "outputs": [
        {
          "internalType": "enum Escrow.State",
          "name": "",
          "type": "uint8"
        }
      ],
      "stateMutability": "view",
      "type": "function"
    },
    {
      "inputs": [
        {
          "internalType": "address",
          "name": "newOwner",
          "type": "address"
        }
      ],
      "name": "transferOwnership",
      "outputs": [],
      "stateMutability": "nonpayable",
      "type": "function"
    }
  ],
  "bytecode": "0x60806040523480156200001157600080fd5b50604051620016013803806200160183398181016040528101906200003791906200029c565b620000576200004b6200012b60201b60201c565b6200013360201b60201c565b83600160006101000a81548173ffffffffffffffffffffffffffffffffffffffff021916908373ffffffffffffffffffffffffffffffffffffffff1602179055508260028190555081600360006101000a81548173ffffffffffffffffffffffffffffffffffffffff021916908373ffffffffffffffffffffffffffffffffffffffff16021790555080600460006101000a81548173ffffffffffffffffffffffffffffffffffffffff021916908373ffffffffffffffffffffffffffffffffffffffff160217905550505050506200030e565b600033905090565b60008060009054906101000a900473ffffffffffffffffffffffffffffffffffffffff169050816000806101000a81548173ffffffffffffffffffffffffffffffffffffffff021916908373ffffffffffffffffffffffffffffffffffffffff1602179055508173ffffffffffffffffffffffffffffffffffffffff168173ffffffffffffffffffffffffffffffffffffffff167f8be0079c531659141344cd1fd0a4f28419497f9722a3daafe3b4186f6b6457e060405160405180910390a35050565b600080fd5b600073ffffffffffffffffffffffffffffffffffffffff82169050919050565b60006200022982620001fc565b9050919050565b6200023b816200021c565b81146200024757600080fd5b50565b6000815190506200025b8162000230565b92915050565b6000819050919050565b620002768162000261565b81146200028257600080fd5b50565b60008151905062000296816200026b565b92915050565b60008060008060808587031215620002b957620002b8620001f7565b5b6000620002c9878288016200024a565b9450506020620002dc8782880162000285565b9350506040620002ef878288016200024a565b925050606062000302878288016200024a565b91505092959194509250565b6112e3806200031e6000396000f3fe608060405234801561001057600080fd5b506004361061009e5760003560e01c8063b6b55f2511610066578063b6b55f2514610111578063c19d93fb1461012d578063dae805211461014b578063f240f7c314610155578063f2fde38b1461015f5761009e565b806308551a53146100a35780635e10177b146100c1578063715018a6146100cb5780637150d8ae146100d55780638da5cb5b146100f3575b600080fd5b6100ab61017b565b6040516100b89190610cd9565b60405180910390f35b6100c96101a1565b005b6100d361041a565b005b6100dd61042e565b6040516100ea9190610cd9565b60405180910390f35b6100fb610454565b6040516101089190610cd9565b60405180910390f35b61012b60048036038101906101269190610d2f565b61047d565b005b6101356106f5565b6040516101429190610dd3565b60405180910390f35b610153610708565b005b61015d6108ec565b005b61017960048036038101906101749190610e1a565b610aca565b005b600460009054906101000a900473ffffffffffffffffffffffffffffffffffffffff1681565b600360009054906101000a900473ffffffffffffffffffffffffffffffffffffffff1673ffffffffffffffffffffffffffffffffffffffff163373ffffffffffffffffffffffffffffffffffffffff1614610231576040517f08c379a000000000000000000000000000000000000000000000000000000000815260040161022890610eca565b60405180910390fd5b6001600481111561024557610244610d5c565b5b600060149054906101000a900460ff16600481111561026757610266610d5c565b5b146102a7576040517f08c379a000000000000000000000000000000000000000000000000000000000815260040161029e90610f5c565b60405180910390fd5b600160009054906101000a900473ffffffffffffffffffffffffffffffffffffffff1673ffffffffffffffffffffffffffffffffffffffff1663a9059cbb600460009054906101000a900473ffffffffffffffffffffffffffffffffffffffff166002546040518363ffffffff1660e01b8152600401610328929190610f8b565b602060405180830381600087803b15801561034257600080fd5b505af1158015610356573d6000803e3d6000fd5b505050506040513d601f19601f8201168201806040525081019061037a9190610fec565b506004600060146101000a81548160ff021916908360048111156103a1576103a0610d5c565b5b0217905550600460009054906101000a900473ffffffffffffffffffffffffffffffffffffffff1673ffffffffffffffffffffffffffffffffffffffff167fd4f43975feb89f48dd30cabbb32011045be187d1e11c8ea9faa43efc352825196002546040516104109190611019565b60405180910390a2565b610422610b4e565b61042c6000610bcc565b565b600360009054906101000a900473ffffffffffffffffffffffffffffffffffffffff1681565b60008060009054906101000a900473ffffffffffffffffffffffffffffffffffffffff16905090565b600360009054906101000a900473ffffffffffffffffffffffffffffffffffffffff1673ffffffffffffffffffffffffffffffffffffffff163373ffffffffffffffffffffffffffffffffffffffff161461050d576040517f08c379a000000000000000000000000000000000000000000000000000000000815260040161050490610eca565b60405180910390fd5b6000600481111561052157610520610d5c565b5b600060149054906101000a900460ff16600481111561054357610542610d5c565b5b14610583576040517f08c379a000000000000000000000000000000000000000000000000000000000815260040161057a90611080565b60405180910390fd5b60025481146105c7576040517f08c379a00000000000000000000000000000000000000000000000000000000081526004016105be906110ec565b60405180910390fd5b600160009054906101000a900473ffffffffffffffffffffffffffffffffffffffff1673ffffffffffffffffffffffffffffffffffffffff166323b872dd3330846040518463ffffffff1660e01b81526004016106269392919061110c565b602060405180830381600087803b15801561064057600080fd5b505af1158015610654573d6000803e3d6000fd5b505050506040513d601f19601f820116820180604052508101906106789190610fec565b506001600060146101000a81548160ff0219169083600481111561069f5761069e610d5c565b5b02179055503373ffffffffffffffffffffffffffffffffffffffff167fe1fffcc4923d04b559f4d29a8bfc6cda04eb5b0d3c460751c2402c5c5cc9109c826040516106ea9190611019565b60405180910390a250565b600060149054906101000a900460ff1681565b610710610b4e565b6002600481111561072457610723610d5c565b5b600060149054906101000a900460ff16600481111561074657610745610d5c565b5b14610786576040517f08c379a000000000000000000000000000000000000000000000000000000000815260040161077d9061118f565b60405180910390fd5b600160009054906101000a900473ffffffffffffffffffffffffffffffffffffffff1673ffffffffffffffffffffffffffffffffffffffff1663a9059cbb600360009054906101000a900473ffffffffffffffffffffffffffffffffffffffff166002546040518363ffffffff1660e01b8152600401610807929190610f8b565b602060405180830381600087803b15801561082157600080fd5b505af1158015610835573d6000803e3d6000fd5b505050506040513d601f19601f820116820180604052508101906108599190610fec565b507fbb28353e4598c3b9199101a66e0989549b659a59a54d2c27fbb183f1932c8e6d600360009054906101000a900473ffffffffffffffffffffffffffffffffffffffff166002546040516108af929190610f8b565b60405180910390a16003600060146101000a81548160ff021916908360048111156108dd576108dc610d5c565b5b02179055506000600281905550565b600360009054906101000a900473ffffffffffffffffffffffffffffffffffffffff1673ffffffffffffffffffffffffffffffffffffffff163373ffffffffffffffffffffffffffffffffffffffff161461097c576040517f08c379a000000000000000000000000000000000000000000000000000000000815260040161097390610eca565b60405180910390fd5b600160048111156109905761098f610d5c565b5b600060149054906101000a900460ff1660048111156109b2576109b1610d5c565b5b146109f2576040517f08c379a00000000000000000000000000000000000000000000000000000000081526004016109e990610f5c565b60405180910390fd5b6002600060146101000a81548160ff02191690836004811115610a1857610a17610d5c565b5b0217905550600460009054906101000a900473ffffffffffffffffffffffffffffffffffffffff1673ffffffffffffffffffffffffffffffffffffffff16600360009054906101000a900473ffffffffffffffffffffffffffffffffffffffff1673ffffffffffffffffffffffffffffffffffffffff167f3039bbbb290ea05336bd9acec0c89358030c0e7e00469f4003c81e5e7c8f6761600254604051610ac09190611019565b60405180910390a3565b610ad2610b4e565b600073ffffffffffffffffffffffffffffffffffffffff168173ffffffffffffffffffffffffffffffffffffffff161415610b42576040517f08c379a0000000000000000000000000000000000000000000000000000000008152600401610b3990611221565b60405180910390fd5b610b4b81610bcc565b50565b610b56610c90565b73ffffffffffffffffffffffffffffffffffffffff16610b74610454565b73ffffffffffffffffffffffffffffffffffffffff1614610bca576040517f08c379a0000000000000000000000000000000000000000000000000000000008152600401610bc19061128d565b60405180910390fd5b565b60008060009054906101000a900473ffffffffffffffffffffffffffffffffffffffff169050816000806101000a81548173ffffffffffffffffffffffffffffffffffffffff021916908373ffffffffffffffffffffffffffffffffffffffff1602179055508173ffffffffffffffffffffffffffffffffffffffff168173ffffffffffffffffffffffffffffffffffffffff167f8be0079c531659141344cd1fd0a4f28419497f9722a3daafe3b4186f6b6457e060405160405180910390a35050565b600033905090565b600073ffffffffffffffffffffffffffffffffffffffff82169050919050565b6000610cc382610c98565b9050919050565b610cd381610cb8565b82525050565b6000602082019050610cee6000830184610cca565b92915050565b600080fd5b6000819050919050565b610d0c81610cf9565b8114610d1757600080fd5b50565b600081359050610d2981610d03565b92915050565b600060208284031215610d4557610d44610cf4565b5b6000610d5384828501610d1a565b91505092915050565b7f4e487b7100000000000000000000000000000000000000000000000000000000600052602160045260246000fd5b60058110610d9c57610d9b610d5c565b5b50565b6000819050610dad82610d8b565b919050565b6000610dbd82610d9f565b9050919050565b610dcd81610db2565b82525050565b6000602082019050610de86000830184610dc4565b92915050565b610df781610cb8565b8114610e0257600080fd5b50565b600081359050610e1481610dee565b92915050565b600060208284031215610e3057610e2f610cf4565b5b6000610e3e84828501610e05565b91505092915050565b600082825260208201905092915050565b7f4f6e6c79207468652062757965722063616e2063616c6c20746869732066756e60008201527f6374696f6e000000000000000000000000000000000000000000000000000000602082015250565b6000610eb4602583610e47565b9150610ebf82610e58565b604082019050919050565b60006020820190508181036000830152610ee381610ea7565b9050919050565b7f4d75737420626520696e206177616974696e672064656c69766572792073746160008201527f7465000000000000000000000000000000000000000000000000000000000000602082015250565b6000610f46602283610e47565b9150610f5182610eea565b604082019050919050565b60006020820190508181036000830152610f7581610f39565b9050919050565b610f8581610cf9565b82525050565b6000604082019050610fa06000830185610cca565b610fad6020830184610f7c565b9392505050565b60008115159050919050565b610fc981610fb4565b8114610fd457600080fd5b50565b600081519050610fe681610fc0565b92915050565b60006020828403121561100257611001610cf4565b5b600061101084828501610fd7565b91505092915050565b600060208201905061102e6000830184610f7c565b92915050565b7f41206465706f7369742077617320616c726561647920636f6d706c6574656400600082015250565b600061106a601f83610e47565b915061107582611034565b602082019050919050565b600060208201905081810360008301526110998161105d565b9050919050565b7f496e636f7272656374206465706f73697420616d6f756e740000000000000000600082015250565b60006110d6601883610e47565b91506110e1826110a0565b602082019050919050565b60006020820190508181036000830152611105816110c9565b9050919050565b60006060820190506111216000830186610cca565b61112e6020830185610cca565b61113b6040830184610f7c565b949350505050565b7f4d75737420626520696e20646973707574656420737461746500000000000000600082015250565b6000611179601983610e47565b915061118482611143565b602082019050919050565b600060208201905081810360008301526111a88161116c565b9050919050565b7f4f776e61626c653a206e6577206f776e657220697320746865207a65726f206160008201527f6464726573730000000000000000000000000000000000000000000000000000602082015250565b600061120b602683610e47565b9150611216826111af565b604082019050919050565b6000602082019050818103600083015261123a816111fe565b9050919050565b7f4f776e61626c653a2063616c6c6572206973206e6f7420746865206f776e6572600082015250565b6000611277602083610e47565b915061128282611241565b602082019050919050565b600060208201905081810360008301526112a68161126a565b905091905056fea26469706673582212208a16de7dfcd29cf2fab4d1e861bc2d63eaa6cbf56b091d4d0f7d8f6807d4bfd064736f6c63430008080033",
  "linkReferences": {},
  "deployedLinkReferences": {}
}