{
  "_format": "hh-sol-artifact-1",
  "contractName": "WebShop",
  "sourceName": "contracts/webShop.sol",
  "abi": [
    {
      "inputs": [
        {
          "internalType": "address",
          "name": "_vibra",
          "type": "address"
        },
        {
          "internalType": "string",
          "name": "_name",
          "type": "string"
        }
      ],
      "stateMutability": "nonpayable",
      "type": "constructor"
    },
    {
      "anonymous": false,
      "inputs": [
        {
          "indexed": true,
          "internalType": "address",
          "name": "owner",
          "type": "address"
        },
        {
          "indexed": false,
          "internalType": "uint256",
          "name": "itemId",
          "type": "uint256"
        }
      ],
      "name": "AddItem",
      "type": "event"
    },
    {
      "anonymous": false,
      "inputs": [
        {
          "indexed": true,
          "internalType": "address",
          "name": "owner",
          "type": "address"
        },
        {
          "indexed": true,
          "internalType": "address",
          "name": "approved",
          "type": "address"
        },
        {
          "indexed": true,
          "internalType": "uint256",
          "name": "tokenId",
          "type": "uint256"
        }
      ],
      "name": "Approval",
      "type": "event"
    },
    {
      "anonymous": false,
      "inputs": [
        {
          "indexed": true,
          "internalType": "address",
          "name": "owner",
          "type": "address"
        },
        {
          "indexed": true,
          "internalType": "address",
          "name": "operator",
          "type": "address"
        },
        {
          "indexed": false,
          "internalType": "bool",
          "name": "approved",
          "type": "bool"
        }
      ],
      "name": "ApprovalForAll",
      "type": "event"
    },
    {
      "anonymous": false,
      "inputs": [
        {
          "indexed": true,
          "internalType": "address",
          "name": "buyer",
          "type": "address"
        },
        {
          "indexed": true,
          "internalType": "address",
          "name": "owner",
          "type": "address"
        },
        {
          "indexed": false,
          "internalType": "uint256",
          "name": "value",
          "type": "uint256"
        }
      ],
      "name": "CreateEscrow",
      "type": "event"
    },
    {
      "anonymous": false,
      "inputs": [
        {
          "indexed": true,
          "internalType": "address",
          "name": "owner",
          "type": "address"
        },
        {
          "indexed": true,
          "internalType": "enum WebShop.ItemStatus",
          "name": "itemStatus",
          "type": "uint8"
        },
        {
          "indexed": false,
          "internalType": "uint256",
          "name": "itemId",
          "type": "uint256"
        }
      ],
      "name": "ItemStep",
      "type": "event"
    },
    {
      "anonymous": false,
      "inputs": [
        {
          "indexed": true,
          "internalType": "address",
          "name": "previousOwner",
          "type": "address"
        },
        {
          "indexed": true,
          "internalType": "address",
          "name": "newOwner",
          "type": "address"
        }
      ],
      "name": "OwnershipTransferred",
      "type": "event"
    },
    {
      "anonymous": false,
      "inputs": [
        {
          "indexed": true,
          "internalType": "address",
          "name": "owner",
          "type": "address"
        },
        {
          "indexed": true,
          "internalType": "address",
          "name": "buyer",
          "type": "address"
        },
        {
          "indexed": false,
          "internalType": "uint256",
          "name": "price",
          "type": "uint256"
        }
      ],
      "name": "Sale",
      "type": "event"
    },
    {
      "anonymous": false,
      "inputs": [
        {
          "indexed": true,
          "internalType": "address",
          "name": "from",
          "type": "address"
        },
        {
          "indexed": true,
          "internalType": "address",
          "name": "to",
          "type": "address"
        },
        {
          "indexed": true,
          "internalType": "uint256",
          "name": "tokenId",
          "type": "uint256"
        }
      ],
      "name": "Transfer",
      "type": "event"
    },
    {
      "inputs": [
        {
          "internalType": "string",
          "name": "_name",
          "type": "string"
        },
        {
          "internalType": "uint256",
          "name": "_price",
          "type": "uint256"
        },
        {
          "internalType": "string",
          "name": "_url",
          "type": "string"
        },
        {
          "internalType": "enum WebShop.ItemType",
          "name": "_type",
          "type": "uint8"
        }
      ],
      "name": "addItem",
      "outputs": [
        {
          "internalType": "bool",
          "name": "",
          "type": "bool"
        }
      ],
      "stateMutability": "nonpayable",
      "type": "function"
    },
    {
      "inputs": [
        {
          "components": [
            {
              "internalType": "uint256",
              "name": "id",
              "type": "uint256"
            },
            {
              "internalType": "string",
              "name": "names",
              "type": "string"
            },
            {
              "internalType": "uint256",
              "name": "price",
              "type": "uint256"
            },
            {
              "internalType": "string",
              "name": "url",
              "type": "string"
            },
            {
              "internalType": "address",
              "name": "creator",
              "type": "address"
            },
            {
              "internalType": "address",
              "name": "owner",
              "type": "address"
            },
            {
              "internalType": "string",
              "name": "trackingNumber",
              "type": "string"
            },
            {
              "internalType": "address",
              "name": "escrow",
              "type": "address"
            },
            {
              "internalType": "enum WebShop.ItemType",
              "name": "itemType",
              "type": "uint8"
            },
            {
              "internalType": "enum WebShop.ItemStatus",
              "name": "itemStatus",
              "type": "uint8"
            }
          ],
          "internalType": "struct WebShop.Item[]",
          "name": "_items",
          "type": "tuple[]"
        }
      ],
      "name": "addItems",
      "outputs": [],
      "stateMutability": "nonpayable",
      "type": "function"
    },
    {
      "inputs": [
        {
          "internalType": "uint256",
          "name": "_id",
          "type": "uint256"
        },
        {
          "internalType": "string",
          "name": "_trackingNbr",
          "type": "string"
        }
      ],
      "name": "addTrackingNumber",
      "outputs": [],
      "stateMutability": "nonpayable",
      "type": "function"
    },
    {
      "inputs": [
        {
          "internalType": "address",
          "name": "to",
          "type": "address"
        },
        {
          "internalType": "uint256",
          "name": "tokenId",
          "type": "uint256"
        }
      ],
      "name": "approve",
      "outputs": [],
      "stateMutability": "nonpayable",
      "type": "function"
    },
    {
      "inputs": [
        {
          "internalType": "address",
          "name": "owner",
          "type": "address"
        }
      ],
      "name": "balanceOf",
      "outputs": [
        {
          "internalType": "uint256",
          "name": "",
          "type": "uint256"
        }
      ],
      "stateMutability": "view",
      "type": "function"
    },
    {
      "inputs": [
        {
          "internalType": "uint256",
          "name": "_id",
          "type": "uint256"
        }
      ],
      "name": "buyItem",
      "outputs": [],
      "stateMutability": "nonpayable",
      "type": "function"
    },
    {
      "inputs": [
        {
          "internalType": "uint256",
          "name": "_id",
          "type": "uint256"
        },
        {
          "internalType": "address",
          "name": "_escrow",
          "type": "address"
        }
      ],
      "name": "confirmDeliveryOfItem",
      "outputs": [],
      "stateMutability": "nonpayable",
      "type": "function"
    },
    {
      "inputs": [],
      "name": "getAllItems",
      "outputs": [
        {
          "components": [
            {
              "internalType": "uint256",
              "name": "id",
              "type": "uint256"
            },
            {
              "internalType": "string",
              "name": "names",
              "type": "string"
            },
            {
              "internalType": "uint256",
              "name": "price",
              "type": "uint256"
            },
            {
              "internalType": "string",
              "name": "url",
              "type": "string"
            },
            {
              "internalType": "address",
              "name": "creator",
              "type": "address"
            },
            {
              "internalType": "address",
              "name": "owner",
              "type": "address"
            },
            {
              "internalType": "string",
              "name": "trackingNumber",
              "type": "string"
            },
            {
              "internalType": "address",
              "name": "escrow",
              "type": "address"
            },
            {
              "internalType": "enum WebShop.ItemType",
              "name": "itemType",
              "type": "uint8"
            },
            {
              "internalType": "enum WebShop.ItemStatus",
              "name": "itemStatus",
              "type": "uint8"
            }
          ],
          "internalType": "struct WebShop.Item[]",
          "name": "",
          "type": "tuple[]"
        }
      ],
      "stateMutability": "view",
      "type": "function"
    },
    {
      "inputs": [
        {
          "internalType": "uint256",
          "name": "tokenId",
          "type": "uint256"
        }
      ],
      "name": "getApproved",
      "outputs": [
        {
          "internalType": "address",
          "name": "",
          "type": "address"
        }
      ],
      "stateMutability": "view",
      "type": "function"
    },
    {
      "inputs": [
        {
          "internalType": "uint256",
          "name": "_id",
          "type": "uint256"
        }
      ],
      "name": "getItemById",
      "outputs": [
        {
          "components": [
            {
              "internalType": "uint256",
              "name": "id",
              "type": "uint256"
            },
            {
              "internalType": "string",
              "name": "names",
              "type": "string"
            },
            {
              "internalType": "uint256",
              "name": "price",
              "type": "uint256"
            },
            {
              "internalType": "string",
              "name": "url",
              "type": "string"
            },
            {
              "internalType": "address",
              "name": "creator",
              "type": "address"
            },
            {
              "internalType": "address",
              "name": "owner",
              "type": "address"
            },
            {
              "internalType": "string",
              "name": "trackingNumber",
              "type": "string"
            },
            {
              "internalType": "address",
              "name": "escrow",
              "type": "address"
            },
            {
              "internalType": "enum WebShop.ItemType",
              "name": "itemType",
              "type": "uint8"
            },
            {
              "internalType": "enum WebShop.ItemStatus",
              "name": "itemStatus",
              "type": "uint8"
            }
          ],
          "internalType": "struct WebShop.Item",
          "name": "",
          "type": "tuple"
        }
      ],
      "stateMutability": "view",
      "type": "function"
    },
    {
      "inputs": [],
      "name": "getItemCount",
      "outputs": [
        {
          "internalType": "uint256",
          "name": "",
          "type": "uint256"
        }
      ],
      "stateMutability": "view",
      "type": "function"
    },
    {
      "inputs": [
        {
          "internalType": "address",
          "name": "owner",
          "type": "address"
        },
        {
          "internalType": "address",
          "name": "operator",
          "type": "address"
        }
      ],
      "name": "isApprovedForAll",
      "outputs": [
        {
          "internalType": "bool",
          "name": "",
          "type": "bool"
        }
      ],
      "stateMutability": "view",
      "type": "function"
    },
    {
      "inputs": [],
      "name": "name",
      "outputs": [
        {
          "internalType": "string",
          "name": "",
          "type": "string"
        }
      ],
      "stateMutability": "view",
      "type": "function"
    },
    {
      "inputs": [],
      "name": "names",
      "outputs": [
        {
          "internalType": "string",
          "name": "",
          "type": "string"
        }
      ],
      "stateMutability": "view",
      "type": "function"
    },
    {
      "inputs": [],
      "name": "owner",
      "outputs": [
        {
          "internalType": "address",
          "name": "",
          "type": "address"
        }
      ],
      "stateMutability": "view",
      "type": "function"
    },
    {
      "inputs": [
        {
          "internalType": "uint256",
          "name": "tokenId",
          "type": "uint256"
        }
      ],
      "name": "ownerOf",
      "outputs": [
        {
          "internalType": "address",
          "name": "",
          "type": "address"
        }
      ],
      "stateMutability": "view",
      "type": "function"
    },
    {
      "inputs": [],
      "name": "renounceOwnership",
      "outputs": [],
      "stateMutability": "nonpayable",
      "type": "function"
    },
    {
      "inputs": [
        {
          "internalType": "address",
          "name": "to",
          "type": "address"
        },
        {
          "internalType": "string",
          "name": "uri",
          "type": "string"
        }
      ],
      "name": "safeMint",
      "outputs": [],
      "stateMutability": "nonpayable",
      "type": "function"
    },
    {
      "inputs": [
        {
          "internalType": "address",
          "name": "from",
          "type": "address"
        },
        {
          "internalType": "address",
          "name": "to",
          "type": "address"
        },
        {
          "internalType": "uint256",
          "name": "tokenId",
          "type": "uint256"
        }
      ],
      "name": "safeTransferFrom",
      "outputs": [],
      "stateMutability": "nonpayable",
      "type": "function"
    },
    {
      "inputs": [
        {
          "internalType": "address",
          "name": "from",
          "type": "address"
        },
        {
          "internalType": "address",
          "name": "to",
          "type": "address"
        },
        {
          "internalType": "uint256",
          "name": "tokenId",
          "type": "uint256"
        },
        {
          "internalType": "bytes",
          "name": "data",
          "type": "bytes"
        }
      ],
      "name": "safeTransferFrom",
      "outputs": [],
      "stateMutability": "nonpayable",
      "type": "function"
    },
    {
      "inputs": [
        {
          "internalType": "address",
          "name": "operator",
          "type": "address"
        },
        {
          "internalType": "bool",
          "name": "approved",
          "type": "bool"
        }
      ],
      "name": "setApprovalForAll",
      "outputs": [],
      "stateMutability": "nonpayable",
      "type": "function"
    },
    {
      "inputs": [],
      "name": "status",
      "outputs": [
        {
          "internalType": "enum WebShop.ShopStatus",
          "name": "",
          "type": "uint8"
        }
      ],
      "stateMutability": "view",
      "type": "function"
    },
    {
      "inputs": [
        {
          "internalType": "bytes4",
          "name": "interfaceId",
          "type": "bytes4"
        }
      ],
      "name": "supportsInterface",
      "outputs": [
        {
          "internalType": "bool",
          "name": "",
          "type": "bool"
        }
      ],
      "stateMutability": "view",
      "type": "function"
    },
    {
      "inputs": [],
      "name": "symbol",
      "outputs": [
        {
          "internalType": "string",
          "name": "",
          "type": "string"
        }
      ],
      "stateMutability": "view",
      "type": "function"
    },
    {
      "inputs": [
        {
          "internalType": "uint256",
          "name": "tokenId",
          "type": "uint256"
        }
      ],
      "name": "tokenURI",
      "outputs": [
        {
          "internalType": "string",
          "name": "",
          "type": "string"
        }
      ],
      "stateMutability": "view",
      "type": "function"
    },
    {
      "inputs": [
        {
          "internalType": "address",
          "name": "from",
          "type": "address"
        },
        {
          "internalType": "address",
          "name": "to",
          "type": "address"
        },
        {
          "internalType": "uint256",
          "name": "tokenId",
          "type": "uint256"
        }
      ],
      "name": "transferFrom",
      "outputs": [],
      "stateMutability": "nonpayable",
      "type": "function"
    },
    {
      "inputs": [
        {
          "internalType": "address",
          "name": "newOwner",
          "type": "address"
        }
      ],
      "name": "transferOwnership",
      "outputs": [],
      "stateMutability": "nonpayable",
      "type": "function"
    }
  ],
  "bytecode": "0x60a06040523480156200001157600080fd5b50604051620076de380380620076de8339818101604052810190620000379190620004b6565b6040518060400160405280600781526020017f4d79546f6b656e000000000000000000000000000000000000000000000000008152506040518060400160405280600381526020017f4d544b00000000000000000000000000000000000000000000000000000000008152508160009080519060200190620000bb92919062000204565b508060019080519060200190620000d492919062000204565b505050620000f7620000eb6200013660201b60201c565b6200013e60201b60201c565b8173ffffffffffffffffffffffffffffffffffffffff1660808173ffffffffffffffffffffffffffffffffffffffff1660601b81525050505062000581565b600033905090565b6000600760009054906101000a900473ffffffffffffffffffffffffffffffffffffffff16905081600760006101000a81548173ffffffffffffffffffffffffffffffffffffffff021916908373ffffffffffffffffffffffffffffffffffffffff1602179055508173ffffffffffffffffffffffffffffffffffffffff168173ffffffffffffffffffffffffffffffffffffffff167f8be0079c531659141344cd1fd0a4f28419497f9722a3daafe3b4186f6b6457e060405160405180910390a35050565b82805462000212906200054b565b90600052602060002090601f01602090048101928262000236576000855562000282565b82601f106200025157805160ff191683800117855562000282565b8280016001018555821562000282579182015b828111156200028157825182559160200191906001019062000264565b5b50905062000291919062000295565b5090565b5b80821115620002b057600081600090555060010162000296565b5090565b6000604051905090565b600080fd5b600080fd5b600073ffffffffffffffffffffffffffffffffffffffff82169050919050565b6000620002f582620002c8565b9050919050565b6200030781620002e8565b81146200031357600080fd5b50565b6000815190506200032781620002fc565b92915050565b600080fd5b600080fd5b6000601f19601f8301169050919050565b7f4e487b7100000000000000000000000000000000000000000000000000000000600052604160045260246000fd5b620003828262000337565b810181811067ffffffffffffffff82111715620003a457620003a362000348565b5b80604052505050565b6000620003b9620002b4565b9050620003c7828262000377565b919050565b600067ffffffffffffffff821115620003ea57620003e962000348565b5b620003f58262000337565b9050602081019050919050565b60005b838110156200042257808201518184015260208101905062000405565b8381111562000432576000848401525b50505050565b60006200044f6200044984620003cc565b620003ad565b9050828152602081018484840111156200046e576200046d62000332565b5b6200047b84828562000402565b509392505050565b600082601f8301126200049b576200049a6200032d565b5b8151620004ad84826020860162000438565b91505092915050565b60008060408385031215620004d057620004cf620002be565b5b6000620004e08582860162000316565b925050602083015167ffffffffffffffff811115620005045762000503620002c3565b5b620005128582860162000483565b9150509250929050565b7f4e487b7100000000000000000000000000000000000000000000000000000000600052602260045260246000fd5b600060028204905060018216806200056457607f821691505b602082108114156200057b576200057a6200051c565b5b50919050565b60805160601c617129620005b560003960008181611ed001528181611fc7015281816121c30152612f0a01526171296000f3fe60806040523480156200001157600080fd5b5060043610620001d25760003560e01c80637749cf231162000111578063c87b56dd11620000a5578063d74e34a2116200007b578063d74e34a2146200054b578063e7fb74c7146200056b578063e985e9c5146200058b578063f2fde38b14620005c157620001d2565b8063c87b56dd14620004bf578063cd2f071014620004f5578063d204c45e146200052b57620001d2565b806395d89b4111620000e757806395d89b41146200043d578063a22cb465146200045f578063b7515335146200047f578063b88d4fde146200049f57620001d2565b80637749cf2314620003d957806378cf1bda14620003fb5780638da5cb5b146200041b57620001d2565b8063200d2ed211620001895780634ba1d6aa116200015f5780634ba1d6aa146200033f5780636352211e146200036157806370a082311462000397578063715018a614620003cd57620001d2565b8063200d2ed214620002dd57806323b872dd14620002ff57806342842e0e146200031f57620001d2565b806301ffc9a714620001d7578063056da048146200020d57806306fdde03146200022f578063081812fc1462000251578063095ea7b314620002875780630a30913914620002a7575b600080fd5b620001f56004803603810190620001ef9190620039ea565b620005e1565b60405162000204919062003a39565b60405180910390f35b62000217620006c7565b60405162000226919062003afa565b60405180910390f35b620002396200075d565b60405162000248919062003afa565b60405180910390f35b6200026f600480360381019062000269919062003b59565b620007f7565b6040516200027e919062003bd0565b60405180910390f35b620002a560048036038101906200029f919062003c1e565b6200083f565b005b620002c56004803603810190620002bf919062003dde565b62000968565b604051620002d4919062003a39565b60405180910390f35b620002e762000d1f565b604051620002f6919062003f0e565b60405180910390f35b6200031d600480360381019062000317919062003f2b565b62000d32565b005b6200033d600480360381019062000337919062003f2b565b62000d9b565b005b6200034962000dbd565b60405162000358919062004269565b60405180910390f35b6200037f600480360381019062000379919062003b59565b62001185565b6040516200038e919062003bd0565b60405180910390f35b620003b56004803603810190620003af91906200428d565b6200123a565b604051620003c49190620042d0565b60405180910390f35b620003d7620012f5565b005b620003e36200130d565b604051620003f29190620042d0565b60405180910390f35b620004196004803603810190620004139190620042ed565b6200131a565b005b62000425620014bd565b60405162000434919062003bd0565b60405180910390f35b62000447620014e7565b60405162000456919062003afa565b60405180910390f35b6200047d600480360381019062000477919062004384565b62001581565b005b6200049d6004803603810190620004979190620043cb565b6200159b565b005b620004bd6004803603810190620004b79190620044c6565b620017b3565b005b620004dd6004803603810190620004d7919062003b59565b6200181e565b604051620004ec919062003afa565b60405180910390f35b6200051360048036038101906200050d919062003b59565b62001832565b60405162000522919062004653565b60405180910390f35b62000549600480360381019062000543919062004677565b62001bda565b005b62000569600480360381019062000563919062004977565b62001c1d565b005b62000589600480360381019062000583919062003b59565b62001ea0565b005b620005a96004803603810190620005a39190620049c8565b620023cc565b604051620005b8919062003a39565b60405180910390f35b620005df6004803603810190620005d991906200428d565b62002460565b005b60007f80ac58cd000000000000000000000000000000000000000000000000000000007bffffffffffffffffffffffffffffffffffffffffffffffffffffffff1916827bffffffffffffffffffffffffffffffffffffffffffffffffffffffff19161480620006ad57507f5b5e139f000000000000000000000000000000000000000000000000000000007bffffffffffffffffffffffffffffffffffffffffffffffffffffffff1916827bffffffffffffffffffffffffffffffffffffffffffffffffffffffff1916145b80620006c05750620006bf82620024eb565b5b9050919050565b60088054620006d69062004a3e565b80601f0160208091040260200160405190810160405280929190818152602001828054620007049062004a3e565b8015620007555780601f10620007295761010080835404028352916020019162000755565b820191906000526020600020905b8154815290600101906020018083116200073757829003601f168201915b505050505081565b6060600080546200076e9062004a3e565b80601f01602080910402602001604051908101604052809291908181526020018280546200079c9062004a3e565b8015620007ed5780601f10620007c157610100808354040283529160200191620007ed565b820191906000526020600020905b815481529060010190602001808311620007cf57829003601f168201915b5050505050905090565b6000620008048262002555565b6004600083815260200190815260200160002060009054906101000a900473ffffffffffffffffffffffffffffffffffffffff169050919050565b60006200084c8262001185565b90508073ffffffffffffffffffffffffffffffffffffffff168373ffffffffffffffffffffffffffffffffffffffff161415620008c0576040517f08c379a0000000000000000000000000000000000000000000000000000000008152600401620008b79062004aea565b60405180910390fd5b8073ffffffffffffffffffffffffffffffffffffffff16620008e1620025a5565b73ffffffffffffffffffffffffffffffffffffffff16148062000915575062000914816200090e620025a5565b620023cc565b5b62000957576040517f08c379a00000000000000000000000000000000000000000000000000000000081526004016200094e9062004b82565b60405180910390fd5b620009638383620025ad565b505050565b600060028081111562000980576200097f62003e8e565b5b600760149054906101000a900460ff166002811115620009a557620009a462003e8e565b5b1415620009e9576040517f08c379a0000000000000000000000000000000000000000000000000000000008152600401620009e09062004bf4565b60405180910390fd5b600c6040518061014001604052806001600c8054905062000a0b919062004c45565b815260200187815260200186815260200185815260200162000a2c620014bd565b73ffffffffffffffffffffffffffffffffffffffff16815260200162000a51620014bd565b73ffffffffffffffffffffffffffffffffffffffff168152602001604051806020016040528060008152508152602001600073ffffffffffffffffffffffffffffffffffffffff16815260200184600181111562000ab45762000ab362003e8e565b5b81526020016000600381111562000ad05762000acf62003e8e565b5b815250908060018154018082558091505060019003906000526020600020906008020160009091909190915060008201518160000155602082015181600101908051906020019062000b24929190620037fc565b5060408201518160020155606082015181600301908051906020019062000b4d929190620037fc565b5060808201518160040160006101000a81548173ffffffffffffffffffffffffffffffffffffffff021916908373ffffffffffffffffffffffffffffffffffffffff16021790555060a08201518160050160006101000a81548173ffffffffffffffffffffffffffffffffffffffff021916908373ffffffffffffffffffffffffffffffffffffffff16021790555060c082015181600601908051906020019062000bfa929190620037fc565b5060e08201518160070160006101000a81548173ffffffffffffffffffffffffffffffffffffffff021916908373ffffffffffffffffffffffffffffffffffffffff1602179055506101008201518160070160146101000a81548160ff0219169083600181111562000c715762000c7062003e8e565b5b02179055506101208201518160070160156101000a81548160ff0219169083600381111562000ca55762000ca462003e8e565b5b0217905550505062000cb6620014bd565b73ffffffffffffffffffffffffffffffffffffffff167ff69602bce525a4f2b759a43b29d6ad69b0702bfa02ae9142e60b58b15caff82960095460405162000cff9190620042d0565b60405180910390a262000d13600a62002668565b60019050949350505050565b600760149054906101000a900460ff1681565b62000d4762000d40620025a5565b826200267e565b62000d89576040517f08c379a000000000000000000000000000000000000000000000000000000000815260040162000d809062004d18565b60405180910390fd5b62000d968383836200271b565b505050565b62000db883838360405180602001604052806000815250620017b3565b505050565b6060600c805480602002602001604051908101604052809291908181526020016000905b828210156200117c5783829060005260206000209060080201604051806101400160405290816000820154815260200160018201805462000e229062004a3e565b80601f016020809104026020016040519081016040528092919081815260200182805462000e509062004a3e565b801562000ea15780601f1062000e755761010080835404028352916020019162000ea1565b820191906000526020600020905b81548152906001019060200180831162000e8357829003601f168201915b505050505081526020016002820154815260200160038201805462000ec69062004a3e565b80601f016020809104026020016040519081016040528092919081815260200182805462000ef49062004a3e565b801562000f455780601f1062000f195761010080835404028352916020019162000f45565b820191906000526020600020905b81548152906001019060200180831162000f2757829003601f168201915b505050505081526020016004820160009054906101000a900473ffffffffffffffffffffffffffffffffffffffff1673ffffffffffffffffffffffffffffffffffffffff1673ffffffffffffffffffffffffffffffffffffffff1681526020016005820160009054906101000a900473ffffffffffffffffffffffffffffffffffffffff1673ffffffffffffffffffffffffffffffffffffffff1673ffffffffffffffffffffffffffffffffffffffff1681526020016006820180546200100c9062004a3e565b80601f01602080910402602001604051908101604052809291908181526020018280546200103a9062004a3e565b80156200108b5780601f106200105f576101008083540402835291602001916200108b565b820191906000526020600020905b8154815290600101906020018083116200106d57829003601f168201915b505050505081526020016007820160009054906101000a900473ffffffffffffffffffffffffffffffffffffffff1673ffffffffffffffffffffffffffffffffffffffff1673ffffffffffffffffffffffffffffffffffffffff1681526020016007820160149054906101000a900460ff16600181111562001112576200111162003e8e565b5b600181111562001127576200112662003e8e565b5b81526020016007820160159054906101000a900460ff16600381111562001153576200115262003e8e565b5b600381111562001168576200116762003e8e565b5b815250508152602001906001019062000de1565b50505050905090565b6000806002600084815260200190815260200160002060009054906101000a900473ffffffffffffffffffffffffffffffffffffffff169050600073ffffffffffffffffffffffffffffffffffffffff168173ffffffffffffffffffffffffffffffffffffffff16141562001231576040517f08c379a0000000000000000000000000000000000000000000000000000000008152600401620012289062004d8a565b60405180910390fd5b80915050919050565b60008073ffffffffffffffffffffffffffffffffffffffff168273ffffffffffffffffffffffffffffffffffffffff161415620012ae576040517f08c379a0000000000000000000000000000000000000000000000000000000008152600401620012a59062004e22565b60405180910390fd5b600360008373ffffffffffffffffffffffffffffffffffffffff1673ffffffffffffffffffffffffffffffffffffffff168152602001908152602001600020549050919050565b620012ff62002994565b6200130b600062002a19565b565b6000600c80549050905090565b6200132462002994565b6000600c83815481106200133d576200133c62004e44565b5b906000526020600020906008020190506002600381111562001364576200136362003e8e565b5b8160070160159054906101000a900460ff1660038111156200138b576200138a62003e8e565b5b14620013ce576040517f08c379a0000000000000000000000000000000000000000000000000000000008152600401620013c59062004ec3565b60405180910390fd5b81816006019080519060200190620013e8929190620037fc565b5060028160070160156101000a81548160ff0219169083600381111562001414576200141362003e8e565b5b02179055508060070160159054906101000a900460ff16600381111562001440576200143f62003e8e565b5b8160050160009054906101000a900473ffffffffffffffffffffffffffffffffffffffff1673ffffffffffffffffffffffffffffffffffffffff167f06ab270e9b476657eafc6faef4c578510783fab558ca0f5d2cb0ff5da1c0a9558360000154604051620014b09190620042d0565b60405180910390a3505050565b6000600760009054906101000a900473ffffffffffffffffffffffffffffffffffffffff16905090565b606060018054620014f89062004a3e565b80601f0160208091040260200160405190810160405280929190818152602001828054620015269062004a3e565b8015620015775780601f106200154b5761010080835404028352916020019162001577565b820191906000526020600020905b8154815290600101906020018083116200155957829003601f168201915b5050505050905090565b620015976200158f620025a5565b838362002adf565b5050565b8073ffffffffffffffffffffffffffffffffffffffff16600c8381548110620015c957620015c862004e44565b5b906000526020600020906008020160070160009054906101000a900473ffffffffffffffffffffffffffffffffffffffff1673ffffffffffffffffffffffffffffffffffffffff161462001654576040517f08c379a00000000000000000000000000000000000000000000000000000000081526004016200164b9062004f35565b60405180910390fd5b60008190506004808111156200166f576200166e62003e8e565b5b8173ffffffffffffffffffffffffffffffffffffffff1663c19d93fb6040518163ffffffff1660e01b815260040160206040518083038186803b158015620016b657600080fd5b505afa158015620016cb573d6000803e3d6000fd5b505050506040513d601f19601f82011682018060405250810190620016f1919062004f7f565b600481111562001706576200170562003e8e565b5b146200171157600080fd5b6000600c84815481106200172a576200172962004e44565b5b90600052602060002090600802019050338160050160006101000a81548173ffffffffffffffffffffffffffffffffffffffff021916908373ffffffffffffffffffffffffffffffffffffffff16021790555060018160070160156101000a81548160ff02191690836003811115620017a857620017a762003e8e565b5b021790555050505050565b620017c8620017c1620025a5565b836200267e565b6200180a576040517f08c379a0000000000000000000000000000000000000000000000000000000008152600401620018019062004d18565b60405180910390fd5b620018188484848462002c51565b50505050565b60606200182b8262002cb4565b9050919050565b6200183c6200388d565b600c828154811062001853576200185262004e44565b5b90600052602060002090600802016040518061014001604052908160008201548152602001600182018054620018899062004a3e565b80601f0160208091040260200160405190810160405280929190818152602001828054620018b79062004a3e565b8015620019085780601f10620018dc5761010080835404028352916020019162001908565b820191906000526020600020905b815481529060010190602001808311620018ea57829003601f168201915b50505050508152602001600282015481526020016003820180546200192d9062004a3e565b80601f01602080910402602001604051908101604052809291908181526020018280546200195b9062004a3e565b8015620019ac5780601f106200198057610100808354040283529160200191620019ac565b820191906000526020600020905b8154815290600101906020018083116200198e57829003601f168201915b505050505081526020016004820160009054906101000a900473ffffffffffffffffffffffffffffffffffffffff1673ffffffffffffffffffffffffffffffffffffffff1673ffffffffffffffffffffffffffffffffffffffff1681526020016005820160009054906101000a900473ffffffffffffffffffffffffffffffffffffffff1673ffffffffffffffffffffffffffffffffffffffff1673ffffffffffffffffffffffffffffffffffffffff16815260200160068201805462001a739062004a3e565b80601f016020809104026020016040519081016040528092919081815260200182805462001aa19062004a3e565b801562001af25780601f1062001ac65761010080835404028352916020019162001af2565b820191906000526020600020905b81548152906001019060200180831162001ad457829003601f168201915b505050505081526020016007820160009054906101000a900473ffffffffffffffffffffffffffffffffffffffff1673ffffffffffffffffffffffffffffffffffffffff1673ffffffffffffffffffffffffffffffffffffffff1681526020016007820160149054906101000a900460ff16600181111562001b795762001b7862003e8e565b5b600181111562001b8e5762001b8d62003e8e565b5b81526020016007820160159054906101000a900460ff16600381111562001bba5762001bb962003e8e565b5b600381111562001bcf5762001bce62003e8e565b5b815250509050919050565b62001be462002994565b600062001bf2600a62002ddb565b905062001c00600a62002668565b62001c0c838262002de9565b62001c18818362002e09565b505050565b62001c2762002994565b600081511162001c6e576040517f08c379a000000000000000000000000000000000000000000000000000000000815260040162001c659062005001565b60405180910390fd5b60005b815181101562001e9c57600082828151811062001c935762001c9262004e44565b5b60200260200101519050600c81908060018154018082558091505060019003906000526020600020906008020160009091909190915060008201518160000155602082015181600101908051906020019062001cf1929190620037fc565b5060408201518160020155606082015181600301908051906020019062001d1a929190620037fc565b5060808201518160040160006101000a81548173ffffffffffffffffffffffffffffffffffffffff021916908373ffffffffffffffffffffffffffffffffffffffff16021790555060a08201518160050160006101000a81548173ffffffffffffffffffffffffffffffffffffffff021916908373ffffffffffffffffffffffffffffffffffffffff16021790555060c082015181600601908051906020019062001dc7929190620037fc565b5060e08201518160070160006101000a81548173ffffffffffffffffffffffffffffffffffffffff021916908373ffffffffffffffffffffffffffffffffffffffff1602179055506101008201518160070160146101000a81548160ff0219169083600181111562001e3e5762001e3d62003e8e565b5b02179055506101208201518160070160156101000a81548160ff0219169083600381111562001e725762001e7162003e8e565b5b0217905550505062001e85600a62002668565b50808062001e939062005023565b91505062001c71565b5050565b6000600c828154811062001eb95762001eb862004e44565b5b9060005260206000209060080201905080600201547f000000000000000000000000000000000000000000000000000000000000000073ffffffffffffffffffffffffffffffffffffffff166370a08231336040518263ffffffff1660e01b815260040162001f29919062003bd0565b60206040518083038186803b15801562001f4257600080fd5b505afa15801562001f57573d6000803e3d6000fd5b505050506040513d601f19601f8201168201806040525081019062001f7d919062005088565b1162001fc0576040517f08c379a000000000000000000000000000000000000000000000000000000000815260040162001fb7906200510a565b60405180910390fd5b80600201547f000000000000000000000000000000000000000000000000000000000000000073ffffffffffffffffffffffffffffffffffffffff1663dd62ed3e33306040518363ffffffff1660e01b8152600401620020229291906200512c565b60206040518083038186803b1580156200203b57600080fd5b505afa15801562002050573d6000803e3d6000fd5b505050506040513d601f19601f8201168201806040525081019062002076919062005088565b11620020b9576040517f08c379a0000000000000000000000000000000000000000000000000000000008152600401620020b090620051a9565b60405180910390fd5b60006003811115620020d057620020cf62003e8e565b5b8160070160159054906101000a900460ff166003811115620020f757620020f662003e8e565b5b146200213a576040517f08c379a000000000000000000000000000000000000000000000000000000000815260040162002131906200521b565b60405180910390fd5b60018081111562002150576200214f62003e8e565b5b8160070160149054906101000a900460ff16600181111562002177576200217662003e8e565b5b1415620021c1576200218a813362002e84565b5060028160070160156101000a81548160ff02191690836003811115620021b657620021b562003e8e565b5b021790555062002305565b7f000000000000000000000000000000000000000000000000000000000000000073ffffffffffffffffffffffffffffffffffffffff166323b872dd3362002208620014bd565b84600201546040518463ffffffff1660e01b81526004016200222d939291906200523d565b602060405180830381600087803b1580156200224857600080fd5b505af11580156200225d573d6000803e3d6000fd5b505050506040513d601f19601f8201168201806040525081019062002283919062005291565b506040518060400160405280600381526020017f4e2f410000000000000000000000000000000000000000000000000000000000815250816006019080519060200190620022d3929190620037fc565b5060018160070160156101000a81548160ff02191690836003811115620022ff57620022fe62003e8e565b5b02179055505b338160050160006101000a81548173ffffffffffffffffffffffffffffffffffffffff021916908373ffffffffffffffffffffffffffffffffffffffff16021790555062002354600a6200310e565b3373ffffffffffffffffffffffffffffffffffffffff1662002375620014bd565b73ffffffffffffffffffffffffffffffffffffffff167f3f3483d0995db4c081e0101ef6753bef457833c20605cd871de61dcb48085a9a8360020154604051620023c09190620042d0565b60405180910390a35050565b6000600560008473ffffffffffffffffffffffffffffffffffffffff1673ffffffffffffffffffffffffffffffffffffffff16815260200190815260200160002060008373ffffffffffffffffffffffffffffffffffffffff1673ffffffffffffffffffffffffffffffffffffffff16815260200190815260200160002060009054906101000a900460ff16905092915050565b6200246a62002994565b600073ffffffffffffffffffffffffffffffffffffffff168173ffffffffffffffffffffffffffffffffffffffff161415620024dd576040517f08c379a0000000000000000000000000000000000000000000000000000000008152600401620024d49062005339565b60405180910390fd5b620024e88162002a19565b50565b60007f01ffc9a7000000000000000000000000000000000000000000000000000000007bffffffffffffffffffffffffffffffffffffffffffffffffffffffff1916827bffffffffffffffffffffffffffffffffffffffffffffffffffffffff1916149050919050565b62002560816200316d565b620025a2576040517f08c379a0000000000000000000000000000000000000000000000000000000008152600401620025999062004d8a565b60405180910390fd5b50565b600033905090565b816004600083815260200190815260200160002060006101000a81548173ffffffffffffffffffffffffffffffffffffffff021916908373ffffffffffffffffffffffffffffffffffffffff160217905550808273ffffffffffffffffffffffffffffffffffffffff16620026228362001185565b73ffffffffffffffffffffffffffffffffffffffff167f8c5be1e5ebec7d5bd14f71427d1e84f3dd0314c0f7b2291e5b200ac8c7c3b92560405160405180910390a45050565b6001816000016000828254019250508190555050565b6000806200268c8362001185565b90508073ffffffffffffffffffffffffffffffffffffffff168473ffffffffffffffffffffffffffffffffffffffff161480620026d15750620026d08185620023cc565b5b806200271257508373ffffffffffffffffffffffffffffffffffffffff16620026fa84620007f7565b73ffffffffffffffffffffffffffffffffffffffff16145b91505092915050565b8273ffffffffffffffffffffffffffffffffffffffff166200273d8262001185565b73ffffffffffffffffffffffffffffffffffffffff161462002796576040517f08c379a00000000000000000000000000000000000000000000000000000000081526004016200278d90620053d1565b60405180910390fd5b600073ffffffffffffffffffffffffffffffffffffffff168273ffffffffffffffffffffffffffffffffffffffff16141562002809576040517f08c379a0000000000000000000000000000000000000000000000000000000008152600401620028009062005469565b60405180910390fd5b62002816838383620031d9565b62002823600082620025ad565b6001600360008573ffffffffffffffffffffffffffffffffffffffff1673ffffffffffffffffffffffffffffffffffffffff16815260200190815260200160002060008282546200287591906200548b565b925050819055506001600360008473ffffffffffffffffffffffffffffffffffffffff1673ffffffffffffffffffffffffffffffffffffffff1681526020019081526020016000206000828254620028ce919062004c45565b92505081905550816002600083815260200190815260200160002060006101000a81548173ffffffffffffffffffffffffffffffffffffffff021916908373ffffffffffffffffffffffffffffffffffffffff160217905550808273ffffffffffffffffffffffffffffffffffffffff168473ffffffffffffffffffffffffffffffffffffffff167fddf252ad1be2c89b69c2b068fc378daa952ba7f163c4a11628f55a4df523b3ef60405160405180910390a46200298f838383620031de565b505050565b6200299e620025a5565b73ffffffffffffffffffffffffffffffffffffffff16620029be620014bd565b73ffffffffffffffffffffffffffffffffffffffff161462002a17576040517f08c379a000000000000000000000000000000000000000000000000000000000815260040162002a0e9062005516565b60405180910390fd5b565b6000600760009054906101000a900473ffffffffffffffffffffffffffffffffffffffff16905081600760006101000a81548173ffffffffffffffffffffffffffffffffffffffff021916908373ffffffffffffffffffffffffffffffffffffffff1602179055508173ffffffffffffffffffffffffffffffffffffffff168173ffffffffffffffffffffffffffffffffffffffff167f8be0079c531659141344cd1fd0a4f28419497f9722a3daafe3b4186f6b6457e060405160405180910390a35050565b8173ffffffffffffffffffffffffffffffffffffffff168373ffffffffffffffffffffffffffffffffffffffff16141562002b51576040517f08c379a000000000000000000000000000000000000000000000000000000000815260040162002b489062005588565b60405180910390fd5b80600560008573ffffffffffffffffffffffffffffffffffffffff1673ffffffffffffffffffffffffffffffffffffffff16815260200190815260200160002060008473ffffffffffffffffffffffffffffffffffffffff1673ffffffffffffffffffffffffffffffffffffffff16815260200190815260200160002060006101000a81548160ff0219169083151502179055508173ffffffffffffffffffffffffffffffffffffffff168373ffffffffffffffffffffffffffffffffffffffff167f17307eab39ab6107e8899845ad3d59bd9653f200f220920489ca2b5937696c318360405162002c44919062003a39565b60405180910390a3505050565b62002c5e8484846200271b565b62002c6c84848484620031e3565b62002cae576040517f08c379a000000000000000000000000000000000000000000000000000000000815260040162002ca59062005620565b60405180910390fd5b50505050565b606062002cc18262002555565b600060066000848152602001908152602001600020805462002ce39062004a3e565b80601f016020809104026020016040519081016040528092919081815260200182805462002d119062004a3e565b801562002d625780601f1062002d365761010080835404028352916020019162002d62565b820191906000526020600020905b81548152906001019060200180831162002d4457829003601f168201915b50505050509050600062002d756200338c565b905060008151141562002d8d57819250505062002dd6565b60008251111562002dc657808260405160200162002dad92919062005684565b6040516020818303038152906040529250505062002dd6565b62002dd184620033a3565b925050505b919050565b600081600001549050919050565b62002e0582826040518060200160405280600081525062003415565b5050565b62002e14826200316d565b62002e56576040517f08c379a000000000000000000000000000000000000000000000000000000000815260040162002e4d9062005722565b60405180910390fd5b8060066000848152602001908152602001600020908051906020019062002e7f929190620037fc565b505050565b600060018081111562002e9c5762002e9b62003e8e565b5b8360070160149054906101000a900460ff16600181111562002ec35762002ec262003e8e565b5b1462002f06576040517f08c379a000000000000000000000000000000000000000000000000000000000815260040162002efd9062005794565b60405180910390fd5b60007f000000000000000000000000000000000000000000000000000000000000000084600201548462002f39620014bd565b60405162002f47906200394c565b62002f569493929190620057b6565b604051809103906000f08015801562002f73573d6000803e3d6000fd5b5090508073ffffffffffffffffffffffffffffffffffffffff1663b6b55f2585600201546040518263ffffffff1660e01b815260040162002fb59190620042d0565b600060405180830381600087803b15801562002fd057600080fd5b505af115801562002fe5573d6000803e3d6000fd5b50505050808460070160006101000a81548173ffffffffffffffffffffffffffffffffffffffff021916908373ffffffffffffffffffffffffffffffffffffffff160217905550600b819080600181540180825580915050600190039060005260206000200160009091909190916101000a81548173ffffffffffffffffffffffffffffffffffffffff021916908373ffffffffffffffffffffffffffffffffffffffff16021790555062003099620014bd565b73ffffffffffffffffffffffffffffffffffffffff163373ffffffffffffffffffffffffffffffffffffffff167f6329281a6ab4c40aabd080b1ed0848d711c52ce8cbfe5f91b95d77eb1e27d3198660020154604051620030fb9190620042d0565b60405180910390a3600191505092915050565b600081600001549050600081116200315d576040517f08c379a0000000000000000000000000000000000000000000000000000000008152600401620031549062005853565b60405180910390fd5b6001810382600001819055505050565b60008073ffffffffffffffffffffffffffffffffffffffff166002600084815260200190815260200160002060009054906101000a900473ffffffffffffffffffffffffffffffffffffffff1673ffffffffffffffffffffffffffffffffffffffff1614159050919050565b505050565b505050565b6000620032068473ffffffffffffffffffffffffffffffffffffffff1662003477565b156200337f578373ffffffffffffffffffffffffffffffffffffffff1663150b7a0262003232620025a5565b8786866040518563ffffffff1660e01b8152600401620032569493929190620058d2565b602060405180830381600087803b1580156200327157600080fd5b505af1925050508015620032a557506040513d601f19601f82011682018060405250810190620032a291906200593d565b60015b6200332e573d8060008114620032d8576040519150601f19603f3d011682016040523d82523d6000602084013e620032dd565b606091505b5060008151141562003326576040517f08c379a00000000000000000000000000000000000000000000000000000000081526004016200331d9062005620565b60405180910390fd5b805181602001fd5b63150b7a0260e01b7bffffffffffffffffffffffffffffffffffffffffffffffffffffffff1916817bffffffffffffffffffffffffffffffffffffffffffffffffffffffff19161491505062003384565b600190505b949350505050565b606060405180602001604052806000815250905090565b6060620033b08262002555565b6000620033bc6200338c565b90506000815111620033de57604051806020016040528060008152506200340d565b80620033ea846200349a565b604051602001620033fd92919062005684565b6040516020818303038152906040525b915050919050565b62003421838362003614565b620034306000848484620031e3565b62003472576040517f08c379a0000000000000000000000000000000000000000000000000000000008152600401620034699062005620565b60405180910390fd5b505050565b6000808273ffffffffffffffffffffffffffffffffffffffff163b119050919050565b60606000821415620034e4576040518060400160405280600181526020017f300000000000000000000000000000000000000000000000000000000000000081525090506200360f565b600082905060005b600082146200351c578080620035029062005023565b915050600a826200351491906200599e565b9150620034ec565b60008167ffffffffffffffff8111156200353b576200353a62003c6f565b5b6040519080825280601f01601f1916602001820160405280156200356e5781602001600182028036833780820191505090505b5090505b6000851462003608576001826200358a91906200548b565b9150600a856200359b9190620059d6565b6030620035a9919062004c45565b60f81b818381518110620035c257620035c162004e44565b5b60200101907effffffffffffffffffffffffffffffffffffffffffffffffffffffffffffff1916908160001a905350600a856200360091906200599e565b945062003572565b8093505050505b919050565b600073ffffffffffffffffffffffffffffffffffffffff168273ffffffffffffffffffffffffffffffffffffffff16141562003687576040517f08c379a00000000000000000000000000000000000000000000000000000000081526004016200367e9062005a5e565b60405180910390fd5b62003692816200316d565b15620036d5576040517f08c379a0000000000000000000000000000000000000000000000000000000008152600401620036cc9062005ad0565b60405180910390fd5b620036e360008383620031d9565b6001600360008473ffffffffffffffffffffffffffffffffffffffff1673ffffffffffffffffffffffffffffffffffffffff168152602001908152602001600020600082825462003735919062004c45565b92505081905550816002600083815260200190815260200160002060006101000a81548173ffffffffffffffffffffffffffffffffffffffff021916908373ffffffffffffffffffffffffffffffffffffffff160217905550808273ffffffffffffffffffffffffffffffffffffffff16600073ffffffffffffffffffffffffffffffffffffffff167fddf252ad1be2c89b69c2b068fc378daa952ba7f163c4a11628f55a4df523b3ef60405160405180910390a4620037f860008383620031de565b5050565b8280546200380a9062004a3e565b90600052602060002090601f0160209004810192826200382e57600085556200387a565b82601f106200384957805160ff19168380011785556200387a565b828001600101855582156200387a579182015b82811115620038795782518255916020019190600101906200385c565b5b5090506200388991906200395a565b5090565b60405180610140016040528060008152602001606081526020016000815260200160608152602001600073ffffffffffffffffffffffffffffffffffffffff168152602001600073ffffffffffffffffffffffffffffffffffffffff16815260200160608152602001600073ffffffffffffffffffffffffffffffffffffffff168152602001600060018111156200392a576200392962003e8e565b5b81526020016000600381111562003946576200394562003e8e565b5b81525090565b6116018062005af383390190565b5b80821115620039755760008160009055506001016200395b565b5090565b6000604051905090565b600080fd5b600080fd5b60007fffffffff0000000000000000000000000000000000000000000000000000000082169050919050565b620039c4816200398d565b8114620039d057600080fd5b50565b600081359050620039e481620039b9565b92915050565b60006020828403121562003a035762003a0262003983565b5b600062003a1384828501620039d3565b91505092915050565b60008115159050919050565b62003a338162003a1c565b82525050565b600060208201905062003a50600083018462003a28565b92915050565b600081519050919050565b600082825260208201905092915050565b60005b8381101562003a9257808201518184015260208101905062003a75565b8381111562003aa2576000848401525b50505050565b6000601f19601f8301169050919050565b600062003ac68262003a56565b62003ad2818562003a61565b935062003ae481856020860162003a72565b62003aef8162003aa8565b840191505092915050565b6000602082019050818103600083015262003b16818462003ab9565b905092915050565b6000819050919050565b62003b338162003b1e565b811462003b3f57600080fd5b50565b60008135905062003b538162003b28565b92915050565b60006020828403121562003b725762003b7162003983565b5b600062003b828482850162003b42565b91505092915050565b600073ffffffffffffffffffffffffffffffffffffffff82169050919050565b600062003bb88262003b8b565b9050919050565b62003bca8162003bab565b82525050565b600060208201905062003be7600083018462003bbf565b92915050565b62003bf88162003bab565b811462003c0457600080fd5b50565b60008135905062003c188162003bed565b92915050565b6000806040838503121562003c385762003c3762003983565b5b600062003c488582860162003c07565b925050602062003c5b8582860162003b42565b9150509250929050565b600080fd5b600080fd5b7f4e487b7100000000000000000000000000000000000000000000000000000000600052604160045260246000fd5b62003ca98262003aa8565b810181811067ffffffffffffffff8211171562003ccb5762003cca62003c6f565b5b80604052505050565b600062003ce062003979565b905062003cee828262003c9e565b919050565b600067ffffffffffffffff82111562003d115762003d1062003c6f565b5b62003d1c8262003aa8565b9050602081019050919050565b82818337600083830152505050565b600062003d4f62003d498462003cf3565b62003cd4565b90508281526020810184848401111562003d6e5762003d6d62003c6a565b5b62003d7b84828562003d29565b509392505050565b600082601f83011262003d9b5762003d9a62003c65565b5b813562003dad84826020860162003d38565b91505092915050565b6002811062003dc457600080fd5b50565b60008135905062003dd88162003db6565b92915050565b6000806000806080858703121562003dfb5762003dfa62003983565b5b600085013567ffffffffffffffff81111562003e1c5762003e1b62003988565b5b62003e2a8782880162003d83565b945050602062003e3d8782880162003b42565b935050604085013567ffffffffffffffff81111562003e615762003e6062003988565b5b62003e6f8782880162003d83565b925050606062003e828782880162003dc7565b91505092959194509250565b7f4e487b7100000000000000000000000000000000000000000000000000000000600052602160045260246000fd5b6003811062003ed15762003ed062003e8e565b5b50565b600081905062003ee48262003ebd565b919050565b600062003ef68262003ed4565b9050919050565b62003f088162003ee9565b82525050565b600060208201905062003f25600083018462003efd565b92915050565b60008060006060848603121562003f475762003f4662003983565b5b600062003f578682870162003c07565b935050602062003f6a8682870162003c07565b925050604062003f7d8682870162003b42565b9150509250925092565b600081519050919050565b600082825260208201905092915050565b6000819050602082019050919050565b62003fbe8162003b1e565b82525050565b600082825260208201905092915050565b600062003fe28262003a56565b62003fee818562003fc4565b93506200400081856020860162003a72565b6200400b8162003aa8565b840191505092915050565b620040218162003bab565b82525050565b600281106200403b576200403a62003e8e565b5b50565b60008190506200404e8262004027565b919050565b600062004060826200403e565b9050919050565b620040728162004053565b82525050565b600481106200408c576200408b62003e8e565b5b50565b60008190506200409f8262004078565b919050565b6000620040b1826200408f565b9050919050565b620040c381620040a4565b82525050565b600061014083016000830151620040e4600086018262003fb3565b5060208301518482036020860152620040fe828262003fd5565b915050604083015162004115604086018262003fb3565b50606083015184820360608601526200412f828262003fd5565b915050608083015162004146608086018262004016565b5060a08301516200415b60a086018262004016565b5060c083015184820360c086015262004175828262003fd5565b91505060e08301516200418c60e086018262004016565b50610100830151620041a361010086018262004067565b50610120830151620041ba610120860182620040b8565b508091505092915050565b6000620041d38383620040c9565b905092915050565b6000602082019050919050565b6000620041f58262003f87565b62004201818562003f92565b935083602082028501620042158562003fa3565b8060005b85811015620042575784840389528151620042358582620041c5565b94506200424283620041db565b925060208a0199505060018101905062004219565b50829750879550505050505092915050565b60006020820190508181036000830152620042858184620041e8565b905092915050565b600060208284031215620042a657620042a562003983565b5b6000620042b68482850162003c07565b91505092915050565b620042ca8162003b1e565b82525050565b6000602082019050620042e76000830184620042bf565b92915050565b6000806040838503121562004307576200430662003983565b5b6000620043178582860162003b42565b925050602083013567ffffffffffffffff8111156200433b576200433a62003988565b5b620043498582860162003d83565b9150509250929050565b6200435e8162003a1c565b81146200436a57600080fd5b50565b6000813590506200437e8162004353565b92915050565b600080604083850312156200439e576200439d62003983565b5b6000620043ae8582860162003c07565b9250506020620043c1858286016200436d565b9150509250929050565b60008060408385031215620043e557620043e462003983565b5b6000620043f58582860162003b42565b9250506020620044088582860162003c07565b9150509250929050565b600067ffffffffffffffff82111562004430576200442f62003c6f565b5b6200443b8262003aa8565b9050602081019050919050565b60006200445f620044598462004412565b62003cd4565b9050828152602081018484840111156200447e576200447d62003c6a565b5b6200448b84828562003d29565b509392505050565b600082601f830112620044ab57620044aa62003c65565b5b8135620044bd84826020860162004448565b91505092915050565b60008060008060808587031215620044e357620044e262003983565b5b6000620044f38782880162003c07565b9450506020620045068782880162003c07565b9350506040620045198782880162003b42565b925050606085013567ffffffffffffffff8111156200453d576200453c62003988565b5b6200454b8782880162004493565b91505092959194509250565b60006101408301600083015162004572600086018262003fb3565b50602083015184820360208601526200458c828262003fd5565b9150506040830151620045a3604086018262003fb3565b5060608301518482036060860152620045bd828262003fd5565b9150506080830151620045d4608086018262004016565b5060a0830151620045e960a086018262004016565b5060c083015184820360c086015262004603828262003fd5565b91505060e08301516200461a60e086018262004016565b506101008301516200463161010086018262004067565b5061012083015162004648610120860182620040b8565b508091505092915050565b600060208201905081810360008301526200466f818462004557565b905092915050565b6000806040838503121562004691576200469062003983565b5b6000620046a18582860162003c07565b925050602083013567ffffffffffffffff811115620046c557620046c462003988565b5b620046d38582860162003d83565b9150509250929050565b600067ffffffffffffffff821115620046fb57620046fa62003c6f565b5b602082029050602081019050919050565b600080fd5b600080fd5b600080fd5b600481106200472957600080fd5b50565b6000813590506200473d816200471b565b92915050565b600061014082840312156200475d576200475c62004711565b5b6200476a61014062003cd4565b905060006200477c8482850162003b42565b600083015250602082013567ffffffffffffffff811115620047a357620047a262004716565b5b620047b18482850162003d83565b6020830152506040620047c78482850162003b42565b604083015250606082013567ffffffffffffffff811115620047ee57620047ed62004716565b5b620047fc8482850162003d83565b6060830152506080620048128482850162003c07565b60808301525060a0620048288482850162003c07565b60a08301525060c082013567ffffffffffffffff8111156200484f576200484e62004716565b5b6200485d8482850162003d83565b60c08301525060e0620048738482850162003c07565b60e0830152506101006200488a8482850162003dc7565b61010083015250610120620048a2848285016200472c565b6101208301525092915050565b6000620048c6620048c084620046dd565b62003cd4565b90508083825260208201905060208402830185811115620048ec57620048eb6200470c565b5b835b818110156200493a57803567ffffffffffffffff81111562004915576200491462003c65565b5b80860162004924898262004743565b85526020850194505050602081019050620048ee565b5050509392505050565b600082601f8301126200495c576200495b62003c65565b5b81356200496e848260208601620048af565b91505092915050565b60006020828403121562004990576200498f62003983565b5b600082013567ffffffffffffffff811115620049b157620049b062003988565b5b620049bf8482850162004944565b91505092915050565b60008060408385031215620049e257620049e162003983565b5b6000620049f28582860162003c07565b925050602062004a058582860162003c07565b9150509250929050565b7f4e487b7100000000000000000000000000000000000000000000000000000000600052602260045260246000fd5b6000600282049050600182168062004a5757607f821691505b6020821081141562004a6e5762004a6d62004a0f565b5b50919050565b7f4552433732313a20617070726f76616c20746f2063757272656e74206f776e6560008201527f7200000000000000000000000000000000000000000000000000000000000000602082015250565b600062004ad260218362003a61565b915062004adf8262004a74565b604082019050919050565b6000602082019050818103600083015262004b058162004ac3565b9050919050565b7f4552433732313a20617070726f76652063616c6c6572206973206e6f7420746f60008201527f6b656e206f776e6572206e6f7220617070726f76656420666f7220616c6c0000602082015250565b600062004b6a603e8362003a61565b915062004b778262004b0c565b604082019050919050565b6000602082019050818103600083015262004b9d8162004b5b565b9050919050565b7f53686f7020697320636c6f736564000000000000000000000000000000000000600082015250565b600062004bdc600e8362003a61565b915062004be98262004ba4565b602082019050919050565b6000602082019050818103600083015262004c0f8162004bcd565b9050919050565b7f4e487b7100000000000000000000000000000000000000000000000000000000600052601160045260246000fd5b600062004c528262003b1e565b915062004c5f8362003b1e565b9250827fffffffffffffffffffffffffffffffffffffffffffffffffffffffffffffffff0382111562004c975762004c9662004c16565b5b828201905092915050565b7f4552433732313a2063616c6c6572206973206e6f7420746f6b656e206f776e6560008201527f72206e6f7220617070726f766564000000000000000000000000000000000000602082015250565b600062004d00602e8362003a61565b915062004d0d8262004ca2565b604082019050919050565b6000602082019050818103600083015262004d338162004cf1565b9050919050565b7f4552433732313a20696e76616c696420746f6b656e2049440000000000000000600082015250565b600062004d7260188362003a61565b915062004d7f8262004d3a565b602082019050919050565b6000602082019050818103600083015262004da58162004d63565b9050919050565b7f4552433732313a2061646472657373207a65726f206973206e6f74206120766160008201527f6c6964206f776e65720000000000000000000000000000000000000000000000602082015250565b600062004e0a60298362003a61565b915062004e178262004dac565b604082019050919050565b6000602082019050818103600083015262004e3d8162004dfb565b9050919050565b7f4e487b7100000000000000000000000000000000000000000000000000000000600052603260045260246000fd5b7f4974656d206d75737420626520696e207472616e736974000000000000000000600082015250565b600062004eab60178362003a61565b915062004eb88262004e73565b602082019050919050565b6000602082019050818103600083015262004ede8162004e9c565b9050919050565b7f496e76616c696420657363726f77206164647265737300000000000000000000600082015250565b600062004f1d60168362003a61565b915062004f2a8262004ee5565b602082019050919050565b6000602082019050818103600083015262004f508162004f0e565b9050919050565b6005811062004f6557600080fd5b50565b60008151905062004f798162004f57565b92915050565b60006020828403121562004f985762004f9762003983565b5b600062004fa88482850162004f68565b91505092915050565b7f4974656d732063616e6e6f7420626520656d7074790000000000000000000000600082015250565b600062004fe960158362003a61565b915062004ff68262004fb1565b602082019050919050565b600060208201905081810360008301526200501c8162004fda565b9050919050565b6000620050308262003b1e565b91507fffffffffffffffffffffffffffffffffffffffffffffffffffffffffffffffff82141562005066576200506562004c16565b5b600182019050919050565b600081519050620050828162003b28565b92915050565b600060208284031215620050a157620050a062003983565b5b6000620050b18482850162005071565b91505092915050565b7f496e73756666696369656e742062616c616e6365000000000000000000000000600082015250565b6000620050f260148362003a61565b9150620050ff82620050ba565b602082019050919050565b600060208201905081810360008301526200512581620050e3565b9050919050565b600060408201905062005143600083018562003bbf565b62005152602083018462003bbf565b9392505050565b7f496e73756666696369656e7420616c6c6f77616e636500000000000000000000600082015250565b60006200519160168362003a61565b91506200519e8262005159565b602082019050919050565b60006020820190508181036000830152620051c48162005182565b9050919050565b7f4974656d20697320756e617661696c61626c6500000000000000000000000000600082015250565b60006200520360138362003a61565b91506200521082620051cb565b602082019050919050565b600060208201905081810360008301526200523681620051f4565b9050919050565b600060608201905062005254600083018662003bbf565b62005263602083018562003bbf565b620052726040830184620042bf565b949350505050565b6000815190506200528b8162004353565b92915050565b600060208284031215620052aa57620052a962003983565b5b6000620052ba848285016200527a565b91505092915050565b7f4f776e61626c653a206e6577206f776e657220697320746865207a65726f206160008201527f6464726573730000000000000000000000000000000000000000000000000000602082015250565b60006200532160268362003a61565b91506200532e82620052c3565b604082019050919050565b60006020820190508181036000830152620053548162005312565b9050919050565b7f4552433732313a207472616e736665722066726f6d20696e636f72726563742060008201527f6f776e6572000000000000000000000000000000000000000000000000000000602082015250565b6000620053b960258362003a61565b9150620053c6826200535b565b604082019050919050565b60006020820190508181036000830152620053ec81620053aa565b9050919050565b7f4552433732313a207472616e7366657220746f20746865207a65726f2061646460008201527f7265737300000000000000000000000000000000000000000000000000000000602082015250565b60006200545160248362003a61565b91506200545e82620053f3565b604082019050919050565b60006020820190508181036000830152620054848162005442565b9050919050565b6000620054988262003b1e565b9150620054a58362003b1e565b925082821015620054bb57620054ba62004c16565b5b828203905092915050565b7f4f776e61626c653a2063616c6c6572206973206e6f7420746865206f776e6572600082015250565b6000620054fe60208362003a61565b91506200550b82620054c6565b602082019050919050565b600060208201905081810360008301526200553181620054ef565b9050919050565b7f4552433732313a20617070726f766520746f2063616c6c657200000000000000600082015250565b60006200557060198362003a61565b91506200557d8262005538565b602082019050919050565b60006020820190508181036000830152620055a38162005561565b9050919050565b7f4552433732313a207472616e7366657220746f206e6f6e20455243373231526560008201527f63656976657220696d706c656d656e7465720000000000000000000000000000602082015250565b60006200560860328362003a61565b91506200561582620055aa565b604082019050919050565b600060208201905081810360008301526200563b81620055f9565b9050919050565b600081905092915050565b60006200565a8262003a56565b62005666818562005642565b93506200567881856020860162003a72565b80840191505092915050565b60006200569282856200564d565b9150620056a082846200564d565b91508190509392505050565b7f45524337323155524953746f726167653a2055524920736574206f66206e6f6e60008201527f6578697374656e7420746f6b656e000000000000000000000000000000000000602082015250565b60006200570a602e8362003a61565b91506200571782620056ac565b604082019050919050565b600060208201905081810360008301526200573d81620056fb565b9050919050565b7f4974656d2074797065206d75737420626520706879736963616c000000000000600082015250565b60006200577c601a8362003a61565b9150620057898262005744565b602082019050919050565b60006020820190508181036000830152620057af816200576d565b9050919050565b6000608082019050620057cd600083018762003bbf565b620057dc6020830186620042bf565b620057eb604083018562003bbf565b620057fa606083018462003bbf565b95945050505050565b7f436f756e7465723a2064656372656d656e74206f766572666c6f770000000000600082015250565b60006200583b601b8362003a61565b9150620058488262005803565b602082019050919050565b600060208201905081810360008301526200586e816200582c565b9050919050565b600081519050919050565b600082825260208201905092915050565b60006200589e8262005875565b620058aa818562005880565b9350620058bc81856020860162003a72565b620058c78162003aa8565b840191505092915050565b6000608082019050620058e9600083018762003bbf565b620058f8602083018662003bbf565b620059076040830185620042bf565b81810360608301526200591b818462005891565b905095945050505050565b6000815190506200593781620039b9565b92915050565b60006020828403121562005956576200595562003983565b5b6000620059668482850162005926565b91505092915050565b7f4e487b7100000000000000000000000000000000000000000000000000000000600052601260045260246000fd5b6000620059ab8262003b1e565b9150620059b88362003b1e565b925082620059cb57620059ca6200596f565b5b828204905092915050565b6000620059e38262003b1e565b9150620059f08362003b1e565b92508262005a035762005a026200596f565b5b828206905092915050565b7f4552433732313a206d696e7420746f20746865207a65726f2061646472657373600082015250565b600062005a4660208362003a61565b915062005a538262005a0e565b602082019050919050565b6000602082019050818103600083015262005a798162005a37565b9050919050565b7f4552433732313a20746f6b656e20616c7265616479206d696e74656400000000600082015250565b600062005ab8601c8362003a61565b915062005ac58262005a80565b602082019050919050565b6000602082019050818103600083015262005aeb8162005aa9565b905091905056fe60806040523480156200001157600080fd5b50604051620016013803806200160183398181016040528101906200003791906200029c565b620000576200004b6200012b60201b60201c565b6200013360201b60201c565b83600160006101000a81548173ffffffffffffffffffffffffffffffffffffffff021916908373ffffffffffffffffffffffffffffffffffffffff1602179055508260028190555081600360006101000a81548173ffffffffffffffffffffffffffffffffffffffff021916908373ffffffffffffffffffffffffffffffffffffffff16021790555080600460006101000a81548173ffffffffffffffffffffffffffffffffffffffff021916908373ffffffffffffffffffffffffffffffffffffffff160217905550505050506200030e565b600033905090565b60008060009054906101000a900473ffffffffffffffffffffffffffffffffffffffff169050816000806101000a81548173ffffffffffffffffffffffffffffffffffffffff021916908373ffffffffffffffffffffffffffffffffffffffff1602179055508173ffffffffffffffffffffffffffffffffffffffff168173ffffffffffffffffffffffffffffffffffffffff167f8be0079c531659141344cd1fd0a4f28419497f9722a3daafe3b4186f6b6457e060405160405180910390a35050565b600080fd5b600073ffffffffffffffffffffffffffffffffffffffff82169050919050565b60006200022982620001fc565b9050919050565b6200023b816200021c565b81146200024757600080fd5b50565b6000815190506200025b8162000230565b92915050565b6000819050919050565b620002768162000261565b81146200028257600080fd5b50565b60008151905062000296816200026b565b92915050565b60008060008060808587031215620002b957620002b8620001f7565b5b6000620002c9878288016200024a565b9450506020620002dc8782880162000285565b9350506040620002ef878288016200024a565b925050606062000302878288016200024a565b91505092959194509250565b6112e3806200031e6000396000f3fe608060405234801561001057600080fd5b506004361061009e5760003560e01c8063b6b55f2511610066578063b6b55f2514610111578063c19d93fb1461012d578063dae805211461014b578063f240f7c314610155578063f2fde38b1461015f5761009e565b806308551a53146100a35780635e10177b146100c1578063715018a6146100cb5780637150d8ae146100d55780638da5cb5b146100f3575b600080fd5b6100ab61017b565b6040516100b89190610cd9565b60405180910390f35b6100c96101a1565b005b6100d361041a565b005b6100dd61042e565b6040516100ea9190610cd9565b60405180910390f35b6100fb610454565b6040516101089190610cd9565b60405180910390f35b61012b60048036038101906101269190610d2f565b61047d565b005b6101356106f5565b6040516101429190610dd3565b60405180910390f35b610153610708565b005b61015d6108ec565b005b61017960048036038101906101749190610e1a565b610aca565b005b600460009054906101000a900473ffffffffffffffffffffffffffffffffffffffff1681565b600360009054906101000a900473ffffffffffffffffffffffffffffffffffffffff1673ffffffffffffffffffffffffffffffffffffffff163373ffffffffffffffffffffffffffffffffffffffff1614610231576040517f08c379a000000000000000000000000000000000000000000000000000000000815260040161022890610eca565b60405180910390fd5b6001600481111561024557610244610d5c565b5b600060149054906101000a900460ff16600481111561026757610266610d5c565b5b146102a7576040517f08c379a000000000000000000000000000000000000000000000000000000000815260040161029e90610f5c565b60405180910390fd5b600160009054906101000a900473ffffffffffffffffffffffffffffffffffffffff1673ffffffffffffffffffffffffffffffffffffffff1663a9059cbb600460009054906101000a900473ffffffffffffffffffffffffffffffffffffffff166002546040518363ffffffff1660e01b8152600401610328929190610f8b565b602060405180830381600087803b15801561034257600080fd5b505af1158015610356573d6000803e3d6000fd5b505050506040513d601f19601f8201168201806040525081019061037a9190610fec565b506004600060146101000a81548160ff021916908360048111156103a1576103a0610d5c565b5b0217905550600460009054906101000a900473ffffffffffffffffffffffffffffffffffffffff1673ffffffffffffffffffffffffffffffffffffffff167fd4f43975feb89f48dd30cabbb32011045be187d1e11c8ea9faa43efc352825196002546040516104109190611019565b60405180910390a2565b610422610b4e565b61042c6000610bcc565b565b600360009054906101000a900473ffffffffffffffffffffffffffffffffffffffff1681565b60008060009054906101000a900473ffffffffffffffffffffffffffffffffffffffff16905090565b600360009054906101000a900473ffffffffffffffffffffffffffffffffffffffff1673ffffffffffffffffffffffffffffffffffffffff163373ffffffffffffffffffffffffffffffffffffffff161461050d576040517f08c379a000000000000000000000000000000000000000000000000000000000815260040161050490610eca565b60405180910390fd5b6000600481111561052157610520610d5c565b5b600060149054906101000a900460ff16600481111561054357610542610d5c565b5b14610583576040517f08c379a000000000000000000000000000000000000000000000000000000000815260040161057a90611080565b60405180910390fd5b60025481146105c7576040517f08c379a00000000000000000000000000000000000000000000000000000000081526004016105be906110ec565b60405180910390fd5b600160009054906101000a900473ffffffffffffffffffffffffffffffffffffffff1673ffffffffffffffffffffffffffffffffffffffff166323b872dd3330846040518463ffffffff1660e01b81526004016106269392919061110c565b602060405180830381600087803b15801561064057600080fd5b505af1158015610654573d6000803e3d6000fd5b505050506040513d601f19601f820116820180604052508101906106789190610fec565b506001600060146101000a81548160ff0219169083600481111561069f5761069e610d5c565b5b02179055503373ffffffffffffffffffffffffffffffffffffffff167fe1fffcc4923d04b559f4d29a8bfc6cda04eb5b0d3c460751c2402c5c5cc9109c826040516106ea9190611019565b60405180910390a250565b600060149054906101000a900460ff1681565b610710610b4e565b6002600481111561072457610723610d5c565b5b600060149054906101000a900460ff16600481111561074657610745610d5c565b5b14610786576040517f08c379a000000000000000000000000000000000000000000000000000000000815260040161077d9061118f565b60405180910390fd5b600160009054906101000a900473ffffffffffffffffffffffffffffffffffffffff1673ffffffffffffffffffffffffffffffffffffffff1663a9059cbb600360009054906101000a900473ffffffffffffffffffffffffffffffffffffffff166002546040518363ffffffff1660e01b8152600401610807929190610f8b565b602060405180830381600087803b15801561082157600080fd5b505af1158015610835573d6000803e3d6000fd5b505050506040513d601f19601f820116820180604052508101906108599190610fec565b507fbb28353e4598c3b9199101a66e0989549b659a59a54d2c27fbb183f1932c8e6d600360009054906101000a900473ffffffffffffffffffffffffffffffffffffffff166002546040516108af929190610f8b565b60405180910390a16003600060146101000a81548160ff021916908360048111156108dd576108dc610d5c565b5b02179055506000600281905550565b600360009054906101000a900473ffffffffffffffffffffffffffffffffffffffff1673ffffffffffffffffffffffffffffffffffffffff163373ffffffffffffffffffffffffffffffffffffffff161461097c576040517f08c379a000000000000000000000000000000000000000000000000000000000815260040161097390610eca565b60405180910390fd5b600160048111156109905761098f610d5c565b5b600060149054906101000a900460ff1660048111156109b2576109b1610d5c565b5b146109f2576040517f08c379a00000000000000000000000000000000000000000000000000000000081526004016109e990610f5c565b60405180910390fd5b6002600060146101000a81548160ff02191690836004811115610a1857610a17610d5c565b5b0217905550600460009054906101000a900473ffffffffffffffffffffffffffffffffffffffff1673ffffffffffffffffffffffffffffffffffffffff16600360009054906101000a900473ffffffffffffffffffffffffffffffffffffffff1673ffffffffffffffffffffffffffffffffffffffff167f3039bbbb290ea05336bd9acec0c89358030c0e7e00469f4003c81e5e7c8f6761600254604051610ac09190611019565b60405180910390a3565b610ad2610b4e565b600073ffffffffffffffffffffffffffffffffffffffff168173ffffffffffffffffffffffffffffffffffffffff161415610b42576040517f08c379a0000000000000000000000000000000000000000000000000000000008152600401610b3990611221565b60405180910390fd5b610b4b81610bcc565b50565b610b56610c90565b73ffffffffffffffffffffffffffffffffffffffff16610b74610454565b73ffffffffffffffffffffffffffffffffffffffff1614610bca576040517f08c379a0000000000000000000000000000000000000000000000000000000008152600401610bc19061128d565b60405180910390fd5b565b60008060009054906101000a900473ffffffffffffffffffffffffffffffffffffffff169050816000806101000a81548173ffffffffffffffffffffffffffffffffffffffff021916908373ffffffffffffffffffffffffffffffffffffffff1602179055508173ffffffffffffffffffffffffffffffffffffffff168173ffffffffffffffffffffffffffffffffffffffff167f8be0079c531659141344cd1fd0a4f28419497f9722a3daafe3b4186f6b6457e060405160405180910390a35050565b600033905090565b600073ffffffffffffffffffffffffffffffffffffffff82169050919050565b6000610cc382610c98565b9050919050565b610cd381610cb8565b82525050565b6000602082019050610cee6000830184610cca565b92915050565b600080fd5b6000819050919050565b610d0c81610cf9565b8114610d1757600080fd5b50565b600081359050610d2981610d03565b92915050565b600060208284031215610d4557610d44610cf4565b5b6000610d5384828501610d1a565b91505092915050565b7f4e487b7100000000000000000000000000000000000000000000000000000000600052602160045260246000fd5b60058110610d9c57610d9b610d5c565b5b50565b6000819050610dad82610d8b565b919050565b6000610dbd82610d9f565b9050919050565b610dcd81610db2565b82525050565b6000602082019050610de86000830184610dc4565b92915050565b610df781610cb8565b8114610e0257600080fd5b50565b600081359050610e1481610dee565b92915050565b600060208284031215610e3057610e2f610cf4565b5b6000610e3e84828501610e05565b91505092915050565b600082825260208201905092915050565b7f4f6e6c79207468652062757965722063616e2063616c6c20746869732066756e60008201527f6374696f6e000000000000000000000000000000000000000000000000000000602082015250565b6000610eb4602583610e47565b9150610ebf82610e58565b604082019050919050565b60006020820190508181036000830152610ee381610ea7565b9050919050565b7f4d75737420626520696e206177616974696e672064656c69766572792073746160008201527f7465000000000000000000000000000000000000000000000000000000000000602082015250565b6000610f46602283610e47565b9150610f5182610eea565b604082019050919050565b60006020820190508181036000830152610f7581610f39565b9050919050565b610f8581610cf9565b82525050565b6000604082019050610fa06000830185610cca565b610fad6020830184610f7c565b9392505050565b60008115159050919050565b610fc981610fb4565b8114610fd457600080fd5b50565b600081519050610fe681610fc0565b92915050565b60006020828403121561100257611001610cf4565b5b600061101084828501610fd7565b91505092915050565b600060208201905061102e6000830184610f7c565b92915050565b7f41206465706f7369742077617320616c726561647920636f6d706c6574656400600082015250565b600061106a601f83610e47565b915061107582611034565b602082019050919050565b600060208201905081810360008301526110998161105d565b9050919050565b7f496e636f7272656374206465706f73697420616d6f756e740000000000000000600082015250565b60006110d6601883610e47565b91506110e1826110a0565b602082019050919050565b60006020820190508181036000830152611105816110c9565b9050919050565b60006060820190506111216000830186610cca565b61112e6020830185610cca565b61113b6040830184610f7c565b949350505050565b7f4d75737420626520696e20646973707574656420737461746500000000000000600082015250565b6000611179601983610e47565b915061118482611143565b602082019050919050565b600060208201905081810360008301526111a88161116c565b9050919050565b7f4f776e61626c653a206e6577206f776e657220697320746865207a65726f206160008201527f6464726573730000000000000000000000000000000000000000000000000000602082015250565b600061120b602683610e47565b9150611216826111af565b604082019050919050565b6000602082019050818103600083015261123a816111fe565b9050919050565b7f4f776e61626c653a2063616c6c6572206973206e6f7420746865206f776e6572600082015250565b6000611277602083610e47565b915061128282611241565b602082019050919050565b600060208201905081810360008301526112a68161126a565b905091905056fea26469706673582212208a16de7dfcd29cf2fab4d1e861bc2d63eaa6cbf56b091d4d0f7d8f6807d4bfd064736f6c63430008080033a2646970667358221220f8ecc6671804d35f2b55f35f49257e0d3e8b9b7e2090bb8f0e1bb6a78e6bfb8c64736f6c63430008080033",
  "linkReferences": {},
  "deployedLinkReferences": {}
}