{
  "_format": "hh-sol-artifact-1",
  "contractName": "airDrop",
  "sourceName": "contracts/DropAir.sol",
  "abi": [
    {
      "inputs": [
        {
          "internalType": "uint64",
          "name": "subscriptionId",
          "type": "uint64"
        }
      ],
      "stateMutability": "nonpayable",
      "type": "constructor"
    },
    {
      "inputs": [
        {
          "internalType": "address",
          "name": "have",
          "type": "address"
        },
        {
          "internalType": "address",
          "name": "want",
          "type": "address"
        }
      ],
      "name": "OnlyCoordinatorCanFulfill",
      "type": "error"
    },
    {
      "anonymous": false,
      "inputs": [
        {
          "indexed": false,
          "internalType": "address",
          "name": "contestant",
          "type": "address"
        },
        {
          "indexed": false,
          "internalType": "uint256",
          "name": "index",
          "type": "uint256"
        }
      ],
      "name": "AddedContestant",
      "type": "event"
    },
    {
      "anonymous": false,
      "inputs": [
        {
          "indexed": false,
          "internalType": "address",
          "name": "contestIndex",
          "type": "address"
        }
      ],
      "name": "CreatedCampaign",
      "type": "event"
    },
    {
      "anonymous": false,
      "inputs": [
        {
          "indexed": false,
          "internalType": "address",
          "name": "contestIndex",
          "type": "address"
        }
      ],
      "name": "RemovedCampaign",
      "type": "event"
    },
    {
      "anonymous": false,
      "inputs": [
        {
          "indexed": false,
          "internalType": "address",
          "name": "contestant",
          "type": "address"
        },
        {
          "indexed": false,
          "internalType": "uint256",
          "name": "index",
          "type": "uint256"
        }
      ],
      "name": "RemovedContestant",
      "type": "event"
    },
    {
      "anonymous": false,
      "inputs": [
        {
          "indexed": false,
          "internalType": "address[]",
          "name": "winners",
          "type": "address[]"
        }
      ],
      "name": "WinnerEvent",
      "type": "event"
    },
    {
      "inputs": [],
      "name": "_drawContest",
      "outputs": [
        {
          "internalType": "uint256",
          "name": "",
          "type": "uint256"
        },
        {
          "internalType": "uint256[]",
          "name": "",
          "type": "uint256[]"
        }
      ],
      "stateMutability": "view",
      "type": "function"
    },
    {
      "inputs": [
        {
          "internalType": "uint256",
          "name": "contestIndex",
          "type": "uint256"
        },
        {
          "internalType": "address",
          "name": "contestantAddress",
          "type": "address"
        }
      ],
      "name": "addContestant",
      "outputs": [],
      "stateMutability": "nonpayable",
      "type": "function"
    },
    {
      "inputs": [
        {
          "internalType": "uint256",
          "name": "",
          "type": "uint256"
        }
      ],
      "name": "airdropCampaigns",
      "outputs": [
        {
          "internalType": "string",
          "name": "contestName",
          "type": "string"
        },
        {
          "internalType": "uint256",
          "name": "numberOfWinners",
          "type": "uint256"
        },
        {
          "internalType": "uint256",
          "name": "announcementDate",
          "type": "uint256"
        },
        {
          "internalType": "bool",
          "name": "contestDone",
          "type": "bool"
        },
        {
          "internalType": "string",
          "name": "imageURL",
          "type": "string"
        },
        {
          "internalType": "uint256",
          "name": "prizeWorth",
          "type": "uint256"
        },
        {
          "internalType": "uint256",
          "name": "randomSeed",
          "type": "uint256"
        },
        {
          "internalType": "bool",
          "name": "contestStaged",
          "type": "bool"
        },
        {
          "internalType": "uint256",
          "name": "contestantSettlement",
          "type": "uint256"
        }
      ],
      "stateMutability": "view",
      "type": "function"
    },
    {
      "inputs": [
        {
          "internalType": "bytes",
          "name": "",
          "type": "bytes"
        }
      ],
      "name": "checkUpkeep",
      "outputs": [
        {
          "internalType": "bool",
          "name": "upkeepNeeded",
          "type": "bool"
        },
        {
          "internalType": "bytes",
          "name": "performData",
          "type": "bytes"
        }
      ],
      "stateMutability": "view",
      "type": "function"
    },
    {
      "inputs": [
        {
          "internalType": "string",
          "name": "nameOfContest",
          "type": "string"
        },
        {
          "internalType": "uint256",
          "name": "winnersCount",
          "type": "uint256"
        },
        {
          "internalType": "address[]",
          "name": "contestantAddressArray",
          "type": "address[]"
        },
        {
          "internalType": "uint256",
          "name": "dateOfAnnouncement",
          "type": "uint256"
        },
        {
          "internalType": "string",
          "name": "imageURL",
          "type": "string"
        },
        {
          "internalType": "uint256",
          "name": "prizeWorth",
          "type": "uint256"
        },
        {
          "internalType": "uint256",
          "name": "contestantSettlement",
          "type": "uint256"
        }
      ],
      "name": "configureNewAirdrop",
      "outputs": [],
      "stateMutability": "nonpayable",
      "type": "function"
    },
    {
      "inputs": [
        {
          "internalType": "uint256",
          "name": "contestIndex",
          "type": "uint256"
        }
      ],
      "name": "getContestantAddresses",
      "outputs": [
        {
          "internalType": "address[]",
          "name": "contestantsAddresses",
          "type": "address[]"
        }
      ],
      "stateMutability": "view",
      "type": "function"
    },
    {
      "inputs": [
        {
          "internalType": "uint256",
          "name": "contestIndex",
          "type": "uint256"
        }
      ],
      "name": "getWinnersByContestIndex",
      "outputs": [
        {
          "internalType": "address[]",
          "name": "",
          "type": "address[]"
        }
      ],
      "stateMutability": "view",
      "type": "function"
    },
    {
      "inputs": [
        {
          "internalType": "uint256",
          "name": "contestIndex",
          "type": "uint256"
        },
        {
          "internalType": "address",
          "name": "contestant",
          "type": "address"
        }
      ],
      "name": "isContestant",
      "outputs": [
        {
          "internalType": "bool",
          "name": "",
          "type": "bool"
        }
      ],
      "stateMutability": "view",
      "type": "function"
    },
    {
      "inputs": [
        {
          "internalType": "bytes",
          "name": "performData",
          "type": "bytes"
        }
      ],
      "name": "performUpkeep",
      "outputs": [],
      "stateMutability": "nonpayable",
      "type": "function"
    },
    {
      "inputs": [
        {
          "internalType": "uint256",
          "name": "requestId",
          "type": "uint256"
        },
        {
          "internalType": "uint256[]",
          "name": "randomWords",
          "type": "uint256[]"
        }
      ],
      "name": "rawFulfillRandomWords",
      "outputs": [],
      "stateMutability": "nonpayable",
      "type": "function"
    },
    {
      "inputs": [
        {
          "internalType": "uint256",
          "name": "contestIndex",
          "type": "uint256"
        }
      ],
      "name": "removeAirDropCampaign",
      "outputs": [],
      "stateMutability": "nonpayable",
      "type": "function"
    },
    {
      "inputs": [
        {
          "internalType": "uint256",
          "name": "contestIndex",
          "type": "uint256"
        },
        {
          "internalType": "address",
          "name": "contestantAddress",
          "type": "address"
        }
      ],
      "name": "removeContestant",
      "outputs": [],
      "stateMutability": "nonpayable",
      "type": "function"
    },
    {
      "inputs": [],
      "name": "requestCounter",
      "outputs": [
        {
          "internalType": "uint256",
          "name": "",
          "type": "uint256"
        }
      ],
      "stateMutability": "view",
      "type": "function"
    },
    {
      "inputs": [
        {
          "internalType": "uint256",
          "name": "",
          "type": "uint256"
        }
      ],
      "name": "stagedContests",
      "outputs": [
        {
          "internalType": "uint256",
          "name": "",
          "type": "uint256"
        }
      ],
      "stateMutability": "view",
      "type": "function"
    },
    {
      "inputs": [
        {
          "internalType": "uint256",
          "name": "contestIndex",
          "type": "uint256"
        }
      ],
      "name": "stopContest",
      "outputs": [],
      "stateMutability": "nonpayable",
      "type": "function"
    }
  ],
  "bytecode": "0x60a0604052732ca8e0c643bde4c2e08ab1fa0da3401adad7734d600160006101000a81548173ffffffffffffffffffffffffffffffffffffffff021916908373ffffffffffffffffffffffffffffffffffffffff1602179055507f79d3d8832d904592c0bf9818b621522c988bb8b0c05cdc3b15aea1b6e8db0c1560001b6002556207a120600360006101000a81548163ffffffff021916908363ffffffff16021790555060038060046101000a81548161ffff021916908361ffff160217905550348015620000ce57600080fd5b5060405162003b1738038062003b178339818101604052810190620000f491906200026c565b600160009054906101000a900473ffffffffffffffffffffffffffffffffffffffff168073ffffffffffffffffffffffffffffffffffffffff1660808173ffffffffffffffffffffffffffffffffffffffff1660601b8152505050600160009054906101000a900473ffffffffffffffffffffffffffffffffffffffff166000806101000a81548173ffffffffffffffffffffffffffffffffffffffff021916908373ffffffffffffffffffffffffffffffffffffffff16021790555033600560006101000a81548173ffffffffffffffffffffffffffffffffffffffff021916908373ffffffffffffffffffffffffffffffffffffffff16021790555080600060146101000a81548167ffffffffffffffff021916908367ffffffffffffffff160217905550506200029e565b600080fd5b600067ffffffffffffffff82169050919050565b620002468162000227565b81146200025257600080fd5b50565b60008151905062000266816200023b565b92915050565b60006020828403121562000285576200028462000222565b5b6000620002958482850162000255565b91505092915050565b60805160601c613853620002c460003960008181610639015261068d01526138536000f3fe608060405234801561001057600080fd5b50600436106100f55760003560e01c80636e04ff0d11610097578063af744fda11610066578063af744fda14610281578063c3ab43c3146102b1578063c4400b2f146102cd578063da1ae39a14610305576100f5565b80636e04ff0d146101e6578063885cd05c14610217578063973a814e14610247578063aab4ce7014610265576100f5565b806342800ef4116100d357806342800ef4146101625780634585e33b1461019257806355b8cf18146101ae5780636220606a146101ca576100f5565b806317451c91146100fa5780631fe543e31461011657806324c2eef314610132575b600080fd5b610114600480360381019061010f9190612488565b610324565b005b610130600480360381019061012b9190612621565b610637565b005b61014c6004803603810190610147919061267d565b6106f7565b6040516101599190612768565b60405180910390f35b61017c6004803603810190610177919061267d565b610921565b6040516101899190612799565b60405180910390f35b6101ac60048036038101906101a7919061280f565b610945565b005b6101c860048036038101906101c391906129d4565b610b19565b005b6101e460048036038101906101df919061267d565b610d09565b005b61020060048036038101906101fb919061280f565b610fe8565b60405161020e929190612b6d565b60405180910390f35b610231600480360381019061022c919061267d565b611064565b60405161023e9190612768565b60405180910390f35b61024f611117565b60405161025c9190612799565b60405180910390f35b61027f600480360381019061027a919061267d565b61111d565b005b61029b60048036038101906102969190612488565b611427565b6040516102a89190612b9d565b60405180910390f35b6102cb60048036038101906102c69190612488565b611566565b005b6102e760048036038101906102e2919061267d565b6118b9565b6040516102fc99989796959493929190612c0d565b60405180910390f35b61030d611a41565b60405161031b929190612d66565b60405180910390f35b600560009054906101000a900473ffffffffffffffffffffffffffffffffffffffff1673ffffffffffffffffffffffffffffffffffffffff163373ffffffffffffffffffffffffffffffffffffffff161461037e57600080fd5b60001515600a838154811061039657610395612d96565b5b90600052602060002090600b020160050160009054906101000a900460ff161515146103f7576040517f08c379a00000000000000000000000000000000000000000000000000000000081526004016103ee90612e11565b60405180910390fd5b600a80549050821061043e576040517f08c379a000000000000000000000000000000000000000000000000000000000815260040161043590612e7d565b60405180910390fd5b600080600a848154811061045557610454612d96565b5b90600052602060002090600b02016002018054806020026020016040519081016040528092919081815260200182805480156104e657602002820191906000526020600020905b8160009054906101000a900473ffffffffffffffffffffffffffffffffffffffff1673ffffffffffffffffffffffffffffffffffffffff168152602001906001019080831161049c575b5050505050905060005b81518110156105635781818151811061050c5761050b612d96565b5b602002602001015173ffffffffffffffffffffffffffffffffffffffff168473ffffffffffffffffffffffffffffffffffffffff1614156105505760019250610563565b808061055b90612ecc565b9150506104f0565b5060001515821515146105ab576040517f08c379a00000000000000000000000000000000000000000000000000000000081526004016105a290612f87565b60405180910390fd5b600a84815481106105bf576105be612d96565b5b90600052602060002090600b0201600201839080600181540180825580915050600190039060005260206000200160009091909190916101000a81548173ffffffffffffffffffffffffffffffffffffffff021916908373ffffffffffffffffffffffffffffffffffffffff16021790555050505050565b7f000000000000000000000000000000000000000000000000000000000000000073ffffffffffffffffffffffffffffffffffffffff163373ffffffffffffffffffffffffffffffffffffffff16146106e957337f00000000000000000000000000000000000000000000000000000000000000006040517f1cf993f40000000000000000000000000000000000000000000000000000000081526004016106e0929190612fb6565b60405180910390fd5b6106f38282611e14565b5050565b606060011515600a838154811061071157610710612d96565b5b90600052602060002090600b020160050160009054906101000a900460ff16151514610772576040517f08c379a00000000000000000000000000000000000000000000000000000000081526004016107699061302b565b60405180910390fd5b6000600a838154811061078857610787612d96565b5b90600052602060002090600b02016001015467ffffffffffffffff8111156107b3576107b26124de565b5b6040519080825280602002602001820160405280156107e15781602001602082028036833780820191505090505b50905060005b600a84815481106107fb576107fa612d96565b5b90600052602060002090600b02016001015481101561091757600a848154811061082857610827612d96565b5b90600052602060002090600b0201600201600a858154811061084d5761084c612d96565b5b90600052602060002090600b020160030182815481106108705761086f612d96565b5b90600052602060002001548154811061088c5761088b612d96565b5b9060005260206000200160009054906101000a900473ffffffffffffffffffffffffffffffffffffffff168282815181106108ca576108c9612d96565b5b602002602001019073ffffffffffffffffffffffffffffffffffffffff16908173ffffffffffffffffffffffffffffffffffffffff1681525050808061090f90612ecc565b9150506107e7565b5080915050919050565b6004818154811061093157600080fd5b906000526020600020016000915090505481565b73f0f21f80fc665cc6c042a68ff76381e12ef2243b73ffffffffffffffffffffffffffffffffffffffff163373ffffffffffffffffffffffffffffffffffffffff1614806109d25750739806cf6fbc89abf286e8140c42174b94836e36f273ffffffffffffffffffffffffffffffffffffffff163373ffffffffffffffffffffffffffffffffffffffff16145b610a11576040517f08c379a0000000000000000000000000000000000000000000000000000000008152600401610a08906130bd565b60405180910390fd5b60006004805490501115610b15576000808383810190610a319190612621565b91509150816004600081548110610a4b57610a4a612d96565b5b90600052602060002001541415610b125760046001600480549050610a7091906130dd565b81548110610a8157610a80612d96565b5b90600052602060002001546004600081548110610aa157610aa0612d96565b5b90600052602060002001819055506004805480610ac157610ac0613111565b5b6001900381819060005260206000200160009055905580600a8381548110610aec57610aeb612d96565b5b90600052602060002090600b02016003019080519060200190610b109291906120b3565b505b50505b5050565b600560009054906101000a900473ffffffffffffffffffffffffffffffffffffffff1673ffffffffffffffffffffffffffffffffffffffff163373ffffffffffffffffffffffffffffffffffffffff1614610b7357600080fd5b60606000806040518061016001604052808b81526020018a8152602001898152602001848152602001888152602001600015158152602001878152602001868152602001838152602001600015158152602001858152509050600a8190806001815401808255809150506001900390600052602060002090600b02016000909190919091506000820151816000019080519060200190610c14929190612100565b50602082015181600101556040820151816002019080519060200190610c3b929190612186565b506060820151816003019080519060200190610c589291906120b3565b506080820151816004015560a08201518160050160006101000a81548160ff02191690831515021790555060c0820151816006019080519060200190610c9f929190612100565b5060e0820151816007015561010082015181600801556101208201518160090160006101000a81548160ff02191690831515021790555061014082015181600a01555050600160076000828254610cf69190613140565b9250508190555050505050505050505050565b600560009054906101000a900473ffffffffffffffffffffffffffffffffffffffff1673ffffffffffffffffffffffffffffffffffffffff163373ffffffffffffffffffffffffffffffffffffffff1614610d6357600080fd5b600a805490508110610daa576040517f08c379a0000000000000000000000000000000000000000000000000000000008152600401610da190612e7d565b60405180910390fd5b60008190505b6001600a80549050610dc291906130dd565b811015610f2957600a600182610dd89190613140565b81548110610de957610de8612d96565b5b90600052602060002090600b0201600a8281548110610e0b57610e0a612d96565b5b90600052602060002090600b02016000820181600001908054610e2d906131c5565b610e38929190612210565b50600182015481600101556002820181600201908054610e5992919061229d565b506003820181600301908054610e709291906122ef565b50600482015481600401556005820160009054906101000a900460ff168160050160006101000a81548160ff0219169083151502179055506006820181600601908054610ebc906131c5565b610ec7929190612210565b5060078201548160070155600882015481600801556009820160009054906101000a900460ff168160090160006101000a81548160ff021916908315150217905550600a82015481600a01559050508080610f2190612ecc565b915050610db0565b50600a805480610f3c57610f3b613111565b5b60019003818190600052602060002090600b020160008082016000610f619190612341565b6001820160009055600282016000610f799190612381565b600382016000610f8991906123a2565b60048201600090556005820160006101000a81549060ff0219169055600682016000610fb59190612341565b600782016000905560088201600090556009820160006101000a81549060ff0219169055600a8201600090555050905550565b60006060600060048054905011156110385760019150600080611009611a41565b9150915081816040516020016110209291906132a8565b6040516020818303038152906040529250505061105d565b6000915060405160200161104b90613327565b60405160208183030381529060405290505b9250929050565b6060600a828154811061107a57611079612d96565b5b90600052602060002090600b020160020180548060200260200160405190810160405280929190818152602001828054801561110b57602002820191906000526020600020905b8160009054906101000a900473ffffffffffffffffffffffffffffffffffffffff1673ffffffffffffffffffffffffffffffffffffffff16815260200190600101908083116110c1575b50505050509050919050565b60075481565b600560009054906101000a900473ffffffffffffffffffffffffffffffffffffffff1673ffffffffffffffffffffffffffffffffffffffff163373ffffffffffffffffffffffffffffffffffffffff161461117757600080fd5b6000600a828154811061118d5761118c612d96565b5b90600052602060002090600b020160080154146111df576040517f08c379a00000000000000000000000000000000000000000000000000000000081526004016111d690613388565b60405180910390fd5b60001515600a82815481106111f7576111f6612d96565b5b90600052602060002090600b020160090160009054906101000a900460ff16151514611258576040517f08c379a000000000000000000000000000000000000000000000000000000000815260040161124f9061341a565b60405180910390fd5b600a818154811061126c5761126b612d96565b5b90600052602060002090600b020160040154421161128957600080fd5b60008060009054906101000a900473ffffffffffffffffffffffffffffffffffffffff1673ffffffffffffffffffffffffffffffffffffffff16635d3b1d30600254600060149054906101000a900467ffffffffffffffff16600360049054906101000a900461ffff16600360009054906101000a900463ffffffff1660016040518663ffffffff1660e01b81526004016113289594939291906134f7565b602060405180830381600087803b15801561134257600080fd5b505af1158015611356573d6000803e3d6000fd5b505050506040513d601f19601f8201168201806040525081019061137a919061355f565b90506001600a8054905061138e91906130dd565b60066000838152602001908152602001600020819055506001600a83815481106113bb576113ba612d96565b5b90600052602060002090600b020160050160006101000a81548160ff021916908315150217905550600a82815481106113f7576113f6612d96565b5b90600052602060002090600b02016002018054905060086000848152602001908152602001600020819055505050565b6000600a805490508310611470576040517f08c379a000000000000000000000000000000000000000000000000000000000815260040161146790612e7d565b60405180910390fd5b600080600a858154811061148757611486612d96565b5b90600052602060002090600b020160020180549050905060005b8181101561155a578473ffffffffffffffffffffffffffffffffffffffff16600a87815481106114d4576114d3612d96565b5b90600052602060002090600b020160020182815481106114f7576114f6612d96565b5b9060005260206000200160009054906101000a900473ffffffffffffffffffffffffffffffffffffffff1673ffffffffffffffffffffffffffffffffffffffff161415611547576001925061155a565b808061155290612ecc565b9150506114a1565b50819250505092915050565b600560009054906101000a900473ffffffffffffffffffffffffffffffffffffffff1673ffffffffffffffffffffffffffffffffffffffff163373ffffffffffffffffffffffffffffffffffffffff16146115c057600080fd5b600a805490508210611607576040517f08c379a00000000000000000000000000000000000000000000000000000000081526004016115fe90612e7d565b60405180910390fd5b60001515600a838154811061161f5761161e612d96565b5b90600052602060002090600b020160050160009054906101000a900460ff16151514611680576040517f08c379a000000000000000000000000000000000000000000000000000000000815260040161167790612e11565b60405180910390fd5b6000600a838154811061169657611695612d96565b5b90600052602060002090600b020160020180549050905060006001826116bc91906130dd565b67ffffffffffffffff8111156116d5576116d46124de565b5b6040519080825280602002602001820160405280156117035781602001602082028036833780820191505090505b5090506000805b83811015611877578473ffffffffffffffffffffffffffffffffffffffff16600a878154811061173d5761173c612d96565b5b90600052602060002090600b020160020182815481106117605761175f612d96565b5b9060005260206000200160009054906101000a900473ffffffffffffffffffffffffffffffffffffffff1673ffffffffffffffffffffffffffffffffffffffff161461186457600a86815481106117ba576117b9612d96565b5b90600052602060002090600b020160020181815481106117dd576117dc612d96565b5b9060005260206000200160009054906101000a900473ffffffffffffffffffffffffffffffffffffffff1683838151811061181b5761181a612d96565b5b602002602001019073ffffffffffffffffffffffffffffffffffffffff16908173ffffffffffffffffffffffffffffffffffffffff1681525050818061186090612ecc565b9250505b808061186f90612ecc565b91505061170a565b5081600a868154811061188d5761188c612d96565b5b90600052602060002090600b020160020190805190602001906118b1929190612186565b505050505050565b600a81815481106118c957600080fd5b90600052602060002090600b02016000915090508060000180546118ec906131c5565b80601f0160208091040260200160405190810160405280929190818152602001828054611918906131c5565b80156119655780601f1061193a57610100808354040283529160200191611965565b820191906000526020600020905b81548152906001019060200180831161194857829003601f168201915b5050505050908060010154908060040154908060050160009054906101000a900460ff1690806006018054611999906131c5565b80601f01602080910402602001604051908101604052809291908181526020018280546119c5906131c5565b8015611a125780601f106119e757610100808354040283529160200191611a12565b820191906000526020600020905b8154815290600101906020018083116119f557829003601f168201915b5050505050908060070154908060080154908060090160009054906101000a900460ff169080600a0154905089565b60006060600060048054905011611a8d576040517f08c379a0000000000000000000000000000000000000000000000000000000008152600401611a84906135d8565b60405180910390fd5b60006004600081548110611aa457611aa3612d96565b5b906000526020600020015490506000600a8281548110611ac757611ac6612d96565b5b90600052602060002090600b02016003018054905014611b1c576040517f08c379a0000000000000000000000000000000000000000000000000000000008152600401611b1390613644565b60405180910390fd5b600a805490508110611b63576040517f08c379a0000000000000000000000000000000000000000000000000000000008152600401611b5a906136b0565b60405180910390fd5b60011515600a8281548110611b7b57611b7a612d96565b5b90600052602060002090600b020160090160009054906101000a900460ff16151514611bdc576040517f08c379a0000000000000000000000000000000000000000000000000000000008152600401611bd39061371c565b60405180910390fd5b60606000600a8381548110611bf457611bf3612d96565b5b90600052602060002090600b0201600a01541415611c7657611c6f6001600a8481548110611c2557611c24612d96565b5b90600052602060002090600b020160020180549050611c4491906130dd565b600a8481548110611c5857611c57612d96565b5b90600052602060002090600b020160080154611edd565b9050611d0b565b6001600a8381548110611c8c57611c8b612d96565b5b90600052602060002090600b0201600a01541415611d0a57611d076001600a8481548110611cbd57611cbc612d96565b5b90600052602060002090600b020160020180549050611cdc91906130dd565b600a8481548110611cf057611cef612d96565b5b90600052602060002090600b020160080154611edd565b90505b5b6000600a8381548110611d2157611d20612d96565b5b90600052602060002090600b02016001015467ffffffffffffffff811115611d4c57611d4b6124de565b5b604051908082528060200260200182016040528015611d7a5781602001602082028036833780820191505090505b50905060005b600a8481548110611d9457611d93612d96565b5b90600052602060002090600b020160010154811015611e06576001838281518110611dc257611dc1612d96565b5b6020026020010151611dd491906130dd565b828281518110611de757611de6612d96565b5b6020026020010181815250508080611dfe90612ecc565b915050611d80565b508281945094505050509091565b60006006600084815260200190815260200160002054905081600081518110611e4057611e3f612d96565b5b6020026020010151600a8281548110611e5c57611e5b612d96565b5b90600052602060002090600b0201600801819055506001600a8281548110611e8757611e86612d96565b5b90600052602060002090600b020160090160006101000a81548160ff0219169083151502179055506004819080600181540180825580915050600190039060005260206000200160009091909190915055505050565b606060008367ffffffffffffffff811115611efb57611efa6124de565b5b604051908082528060200260200182016040528015611f295781602001602082028036833780820191505090505b50905060005b84811015611f7657600181611f449190613140565b828281518110611f5757611f56612d96565b5b6020026020010181815250508080611f6e90612ecc565b915050611f2f565b50600083604051602001611f8a919061373c565b6040516020818303038152906040528051906020012090506000600186611fb191906130dd565b90506000600190505b600187611fc791906130dd565b8110156120a6576000828460001c611fdf9190613786565b90506000858481518110611ff657611ff5612d96565b5b6020026020010151905085828151811061201357612012612d96565b5b602002602001015186858151811061202e5761202d612d96565b5b6020026020010181815250508086838151811061204e5761204d612d96565b5b6020026020010181815250508380612065906137b7565b945050846040516020016120799190613802565b6040516020818303038152906040528051906020012094505050808061209e90612ecc565b915050611fba565b5082935050505092915050565b8280548282559060005260206000209081019282156120ef579160200282015b828111156120ee5782518255916020019190600101906120d3565b5b5090506120fc91906123c3565b5090565b82805461210c906131c5565b90600052602060002090601f01602090048101928261212e5760008555612175565b82601f1061214757805160ff1916838001178555612175565b82800160010185558215612175579182015b82811115612174578251825591602001919060010190612159565b5b50905061218291906123c3565b5090565b8280548282559060005260206000209081019282156121ff579160200282015b828111156121fe5782518260006101000a81548173ffffffffffffffffffffffffffffffffffffffff021916908373ffffffffffffffffffffffffffffffffffffffff160217905550916020019190600101906121a6565b5b50905061220c91906123c3565b5090565b82805461221c906131c5565b90600052602060002090601f01602090048101928261223e576000855561228c565b82601f1061224f578054855561228c565b8280016001018555821561228c57600052602060002091601f016020900482015b8281111561228b578254825591600101919060010190612270565b5b50905061229991906123c3565b5090565b8280548282559060005260206000209081019282156122de5760005260206000209182015b828111156122dd5782548255916001019190600101906122c2565b5b5090506122eb91906123c3565b5090565b8280548282559060005260206000209081019282156123305760005260206000209182015b8281111561232f578254825591600101919060010190612314565b5b50905061233d91906123c3565b5090565b50805461234d906131c5565b6000825580601f1061235f575061237e565b601f01602090049060005260206000209081019061237d91906123c3565b5b50565b508054600082559060005260206000209081019061239f91906123c3565b50565b50805460008255906000526020600020908101906123c091906123c3565b50565b5b808211156123dc5760008160009055506001016123c4565b5090565b6000604051905090565b600080fd5b600080fd5b6000819050919050565b612407816123f4565b811461241257600080fd5b50565b600081359050612424816123fe565b92915050565b600073ffffffffffffffffffffffffffffffffffffffff82169050919050565b60006124558261242a565b9050919050565b6124658161244a565b811461247057600080fd5b50565b6000813590506124828161245c565b92915050565b6000806040838503121561249f5761249e6123ea565b5b60006124ad85828601612415565b92505060206124be85828601612473565b9150509250929050565b600080fd5b6000601f19601f8301169050919050565b7f4e487b7100000000000000000000000000000000000000000000000000000000600052604160045260246000fd5b612516826124cd565b810181811067ffffffffffffffff82111715612535576125346124de565b5b80604052505050565b60006125486123e0565b9050612554828261250d565b919050565b600067ffffffffffffffff821115612574576125736124de565b5b602082029050602081019050919050565b600080fd5b600061259d61259884612559565b61253e565b905080838252602082019050602084028301858111156125c0576125bf612585565b5b835b818110156125e957806125d58882612415565b8452602084019350506020810190506125c2565b5050509392505050565b600082601f830112612608576126076124c8565b5b813561261884826020860161258a565b91505092915050565b60008060408385031215612638576126376123ea565b5b600061264685828601612415565b925050602083013567ffffffffffffffff811115612667576126666123ef565b5b612673858286016125f3565b9150509250929050565b600060208284031215612693576126926123ea565b5b60006126a184828501612415565b91505092915050565b600081519050919050565b600082825260208201905092915050565b6000819050602082019050919050565b6126df8161244a565b82525050565b60006126f183836126d6565b60208301905092915050565b6000602082019050919050565b6000612715826126aa565b61271f81856126b5565b935061272a836126c6565b8060005b8381101561275b57815161274288826126e5565b975061274d836126fd565b92505060018101905061272e565b5085935050505092915050565b60006020820190508181036000830152612782818461270a565b905092915050565b612793816123f4565b82525050565b60006020820190506127ae600083018461278a565b92915050565b600080fd5b60008083601f8401126127cf576127ce6124c8565b5b8235905067ffffffffffffffff8111156127ec576127eb6127b4565b5b60208301915083600182028301111561280857612807612585565b5b9250929050565b60008060208385031215612826576128256123ea565b5b600083013567ffffffffffffffff811115612844576128436123ef565b5b612850858286016127b9565b92509250509250929050565b600080fd5b600067ffffffffffffffff82111561287c5761287b6124de565b5b612885826124cd565b9050602081019050919050565b82818337600083830152505050565b60006128b46128af84612861565b61253e565b9050828152602081018484840111156128d0576128cf61285c565b5b6128db848285612892565b509392505050565b600082601f8301126128f8576128f76124c8565b5b81356129088482602086016128a1565b91505092915050565b600067ffffffffffffffff82111561292c5761292b6124de565b5b602082029050602081019050919050565b600061295061294b84612911565b61253e565b9050808382526020820190506020840283018581111561297357612972612585565b5b835b8181101561299c57806129888882612473565b845260208401935050602081019050612975565b5050509392505050565b600082601f8301126129bb576129ba6124c8565b5b81356129cb84826020860161293d565b91505092915050565b600080600080600080600060e0888a0312156129f3576129f26123ea565b5b600088013567ffffffffffffffff811115612a1157612a106123ef565b5b612a1d8a828b016128e3565b9750506020612a2e8a828b01612415565b965050604088013567ffffffffffffffff811115612a4f57612a4e6123ef565b5b612a5b8a828b016129a6565b9550506060612a6c8a828b01612415565b945050608088013567ffffffffffffffff811115612a8d57612a8c6123ef565b5b612a998a828b016128e3565b93505060a0612aaa8a828b01612415565b92505060c0612abb8a828b01612415565b91505092959891949750929550565b60008115159050919050565b612adf81612aca565b82525050565b600081519050919050565b600082825260208201905092915050565b60005b83811015612b1f578082015181840152602081019050612b04565b83811115612b2e576000848401525b50505050565b6000612b3f82612ae5565b612b498185612af0565b9350612b59818560208601612b01565b612b62816124cd565b840191505092915050565b6000604082019050612b826000830185612ad6565b8181036020830152612b948184612b34565b90509392505050565b6000602082019050612bb26000830184612ad6565b92915050565b600081519050919050565b600082825260208201905092915050565b6000612bdf82612bb8565b612be98185612bc3565b9350612bf9818560208601612b01565b612c02816124cd565b840191505092915050565b6000610120820190508181036000830152612c28818c612bd4565b9050612c37602083018b61278a565b612c44604083018a61278a565b612c516060830189612ad6565b8181036080830152612c638188612bd4565b9050612c7260a083018761278a565b612c7f60c083018661278a565b612c8c60e0830185612ad6565b612c9a61010083018461278a565b9a9950505050505050505050565b600081519050919050565b600082825260208201905092915050565b6000819050602082019050919050565b612cdd816123f4565b82525050565b6000612cef8383612cd4565b60208301905092915050565b6000602082019050919050565b6000612d1382612ca8565b612d1d8185612cb3565b9350612d2883612cc4565b8060005b83811015612d59578151612d408882612ce3565b9750612d4b83612cfb565b925050600181019050612d2c565b5085935050505092915050565b6000604082019050612d7b600083018561278a565b8181036020830152612d8d8184612d08565b90509392505050565b7f4e487b7100000000000000000000000000000000000000000000000000000000600052603260045260246000fd5b7f436f6e7465737420456e64656400000000000000000000000000000000000000600082015250565b6000612dfb600d83612bc3565b9150612e0682612dc5565b602082019050919050565b60006020820190508181036000830152612e2a81612dee565b9050919050565b7f4f7574206f6620626f756e647300000000000000000000000000000000000000600082015250565b6000612e67600d83612bc3565b9150612e7282612e31565b602082019050919050565b60006020820190508181036000830152612e9681612e5a565b9050919050565b7f4e487b7100000000000000000000000000000000000000000000000000000000600052601160045260246000fd5b6000612ed7826123f4565b91507fffffffffffffffffffffffffffffffffffffffffffffffffffffffffffffffff821415612f0a57612f09612e9d565b5b600182019050919050565b7f436f6e74657374616e7420616c7265616479207265676973746572656420666f60008201527f72207468697320636f6e74657374000000000000000000000000000000000000602082015250565b6000612f71602e83612bc3565b9150612f7c82612f15565b604082019050919050565b60006020820190508181036000830152612fa081612f64565b9050919050565b612fb08161244a565b82525050565b6000604082019050612fcb6000830185612fa7565b612fd86020830184612fa7565b9392505050565b7f436f6e74657374206e6f7420647261776e207965740000000000000000000000600082015250565b6000613015601583612bc3565b915061302082612fdf565b602082019050919050565b6000602082019050818103600083015261304481613008565b9050919050565b7f4f6e6c792061646d696e73206f72206f7261636c65732063616e20736574746c60008201527f6520636f6e746573747300000000000000000000000000000000000000000000602082015250565b60006130a7602a83612bc3565b91506130b28261304b565b604082019050919050565b600060208201905081810360008301526130d68161309a565b9050919050565b60006130e8826123f4565b91506130f3836123f4565b92508282101561310657613105612e9d565b5b828203905092915050565b7f4e487b7100000000000000000000000000000000000000000000000000000000600052603160045260246000fd5b600061314b826123f4565b9150613156836123f4565b9250827fffffffffffffffffffffffffffffffffffffffffffffffffffffffffffffffff0382111561318b5761318a612e9d565b5b828201905092915050565b7f4e487b7100000000000000000000000000000000000000000000000000000000600052602260045260246000fd5b600060028204905060018216806131dd57607f821691505b602082108114156131f1576131f0613196565b5b50919050565b6000819050919050565b61321261320d826123f4565b6131f7565b82525050565b600081905092915050565b61322c816123f4565b82525050565b600061323e8383613223565b60208301905092915050565b600061325582612ca8565b61325f8185613218565b935061326a83612cc4565b8060005b8381101561329b5781516132828882613232565b975061328d83612cfb565b92505060018101905061326e565b5085935050505092915050565b60006132b48285613201565b6020820191506132c4828461324a565b91508190509392505050565b600081905092915050565b7f3078000000000000000000000000000000000000000000000000000000000000600082015250565b60006133116002836132d0565b915061331c826132db565b600282019050919050565b600061333282613304565b9150819050919050565b7f52616e646f6d536565642063616e6e6f74206265206f7665727772697474656e600082015250565b6000613372602083612bc3565b915061337d8261333c565b602082019050919050565b600060208201905081810360008301526133a181613365565b9050919050565b7f43616e6e6f742073746f70206120636f6e74657374206d6f7265207468616e2060008201527f6f6e636500000000000000000000000000000000000000000000000000000000602082015250565b6000613404602483612bc3565b915061340f826133a8565b604082019050919050565b60006020820190508181036000830152613433816133f7565b9050919050565b6000819050919050565b61344d8161343a565b82525050565b600067ffffffffffffffff82169050919050565b61347081613453565b82525050565b600061ffff82169050919050565b61348d81613476565b82525050565b600063ffffffff82169050919050565b6134ac81613493565b82525050565b6000819050919050565b6000819050919050565b60006134e16134dc6134d7846134b2565b6134bc565b613493565b9050919050565b6134f1816134c6565b82525050565b600060a08201905061350c6000830188613444565b6135196020830187613467565b6135266040830186613484565b61353360608301856134a3565b61354060808301846134e8565b9695505050505050565b600081519050613559816123fe565b92915050565b600060208284031215613575576135746123ea565b5b60006135838482850161354a565b91505092915050565b7f4e6f20636f6e7465737473207374616765640000000000000000000000000000600082015250565b60006135c2601283612bc3565b91506135cd8261358c565b602082019050919050565b600060208201905081810360008301526135f1816135b5565b9050919050565b7f57696e6e65727320616c726561647920647261776e0000000000000000000000600082015250565b600061362e601583612bc3565b9150613639826135f8565b602082019050919050565b6000602082019050818103600083015261365d81613621565b9050919050565b7f436f6e74657374206f7574206f6620626f756e64730000000000000000000000600082015250565b600061369a601583612bc3565b91506136a582613664565b602082019050919050565b600060208201905081810360008301526136c98161368d565b9050919050565b7f436f6e74657374206e6f74207374616765640000000000000000000000000000600082015250565b6000613706601283612bc3565b9150613711826136d0565b602082019050919050565b60006020820190508181036000830152613735816136f9565b9050919050565b60006137488284613201565b60208201915081905092915050565b7f4e487b7100000000000000000000000000000000000000000000000000000000600052601260045260246000fd5b6000613791826123f4565b915061379c836123f4565b9250826137ac576137ab613757565b5b828206905092915050565b60006137c2826123f4565b915060008214156137d6576137d5612e9d565b5b600182039050919050565b6000819050919050565b6137fc6137f78261343a565b6137e1565b82525050565b600061380e82846137eb565b6020820191508190509291505056fea2646970667358221220c7d804c9ed4246280370d7cd37a91923fa5022a9fbb8be52711b4afaa52ef4d564736f6c63430008080033",
  "linkReferences": {},
  "deployedLinkReferences": {}
}