{
  "address": "0xBf13daFa1b71384feec4239382CAEfd013648475",
  "abi": [
    {
      "inputs": [
        {
          "internalType": "address",
          "name": "_vibra",
          "type": "address"
        },
        {
          "internalType": "address",
          "name": "_beneficiary",
          "type": "address"
        },
        {
          "internalType": "address",
          "name": "_organization",
          "type": "address"
        },
        {
          "internalType": "uint256",
          "name": "_minBalance",
          "type": "uint256"
        }
      ],
      "stateMutability": "nonpayable",
      "type": "constructor"
    },
    {
      "anonymous": false,
      "inputs": [
        {
          "indexed": true,
          "internalType": "address",
          "name": "from",
          "type": "address"
        },
        {
          "indexed": false,
          "internalType": "uint256",
          "name": "amount",
          "type": "uint256"
        }
      ],
      "name": "Deposit",
      "type": "event"
    },
    {
      "anonymous": false,
      "inputs": [
        {
          "indexed": true,
          "internalType": "address",
          "name": "holder",
          "type": "address"
        },
        {
          "indexed": false,
          "internalType": "uint256",
          "name": "balance",
          "type": "uint256"
        }
      ],
      "name": "LowBalance",
      "type": "event"
    },
    {
      "anonymous": false,
      "inputs": [
        {
          "indexed": true,
          "internalType": "address",
          "name": "previousOwner",
          "type": "address"
        },
        {
          "indexed": true,
          "internalType": "address",
          "name": "newOwner",
          "type": "address"
        }
      ],
      "name": "OwnershipTransferred",
      "type": "event"
    },
    {
      "anonymous": false,
      "inputs": [
        {
          "indexed": true,
          "internalType": "address",
          "name": "from",
          "type": "address"
        },
        {
          "indexed": true,
          "internalType": "address",
          "name": "to",
          "type": "address"
        },
        {
          "indexed": false,
          "internalType": "uint256",
          "name": "amount",
          "type": "uint256"
        }
      ],
      "name": "Payment",
      "type": "event"
    },
    {
      "anonymous": false,
      "inputs": [
        {
          "indexed": true,
          "internalType": "address",
          "name": "to",
          "type": "address"
        },
        {
          "indexed": false,
          "internalType": "uint256",
          "name": "amount",
          "type": "uint256"
        }
      ],
      "name": "Withdrawal",
      "type": "event"
    },
    {
      "inputs": [],
      "name": "beneficiary",
      "outputs": [
        {
          "internalType": "address",
          "name": "",
          "type": "address"
        }
      ],
      "stateMutability": "view",
      "type": "function"
    },
    {
      "inputs": [
        {
          "internalType": "uint256",
          "name": "amount",
          "type": "uint256"
        }
      ],
      "name": "chargeFees",
      "outputs": [
        {
          "internalType": "bool",
          "name": "",
          "type": "bool"
        }
      ],
      "stateMutability": "nonpayable",
      "type": "function"
    },
    {
      "inputs": [
        {
          "internalType": "uint256",
          "name": "amount",
          "type": "uint256"
        }
      ],
      "name": "deposit",
      "outputs": [
        {
          "internalType": "bool",
          "name": "",
          "type": "bool"
        }
      ],
      "stateMutability": "nonpayable",
      "type": "function"
    },
    {
      "inputs": [],
      "name": "minBalance",
      "outputs": [
        {
          "internalType": "uint256",
          "name": "",
          "type": "uint256"
        }
      ],
      "stateMutability": "view",
      "type": "function"
    },
    {
      "inputs": [],
      "name": "organization",
      "outputs": [
        {
          "internalType": "address",
          "name": "",
          "type": "address"
        }
      ],
      "stateMutability": "view",
      "type": "function"
    },
    {
      "inputs": [],
      "name": "owner",
      "outputs": [
        {
          "internalType": "address",
          "name": "",
          "type": "address"
        }
      ],
      "stateMutability": "view",
      "type": "function"
    },
    {
      "inputs": [],
      "name": "renounceOwnership",
      "outputs": [],
      "stateMutability": "nonpayable",
      "type": "function"
    },
    {
      "inputs": [
        {
          "internalType": "address",
          "name": "newOwner",
          "type": "address"
        }
      ],
      "name": "transferOwnership",
      "outputs": [],
      "stateMutability": "nonpayable",
      "type": "function"
    },
    {
      "inputs": [
        {
          "internalType": "uint256",
          "name": "amount",
          "type": "uint256"
        }
      ],
      "name": "withdraw",
      "outputs": [
        {
          "internalType": "bool",
          "name": "",
          "type": "bool"
        }
      ],
      "stateMutability": "nonpayable",
      "type": "function"
    },
    {
      "inputs": [],
      "name": "withdrawAll",
      "outputs": [
        {
          "internalType": "bool",
          "name": "",
          "type": "bool"
        }
      ],
      "stateMutability": "nonpayable",
      "type": "function"
    }
  ],
  "transactionHash": "0xd2b4d5dc79f588392ce3f5ae197d89f1799e138cfcdd95edeea3a919b739b397",
  "args": [
    "0xB1A930fA68E4093E2BE6396D83e249bDB4b2ef6E",
    "0xECFeDE31E564C97Ab05ABE88786dFb2A642f69f2",
    "0x1aF79b22fDb9617BD9622F1E99582Adb80912C57",
    "100000000000000000"
  ],
  "numDeployments": 1,
  "solcInputHash": "f53c90250c3b30a19add36b2c12c0451",
  "bytecode": "0x60806040523480156200001157600080fd5b50604051620018703803806200187083398181016040528101906200003791906200029c565b620000576200004b6200012b60201b60201c565b6200013360201b60201c565b83600160006101000a81548173ffffffffffffffffffffffffffffffffffffffff021916908373ffffffffffffffffffffffffffffffffffffffff16021790555082600260006101000a81548173ffffffffffffffffffffffffffffffffffffffff021916908373ffffffffffffffffffffffffffffffffffffffff16021790555081600360006101000a81548173ffffffffffffffffffffffffffffffffffffffff021916908373ffffffffffffffffffffffffffffffffffffffff16021790555080600581905550505050506200030e565b600033905090565b60008060009054906101000a900473ffffffffffffffffffffffffffffffffffffffff169050816000806101000a81548173ffffffffffffffffffffffffffffffffffffffff021916908373ffffffffffffffffffffffffffffffffffffffff1602179055508173ffffffffffffffffffffffffffffffffffffffff168173ffffffffffffffffffffffffffffffffffffffff167f8be0079c531659141344cd1fd0a4f28419497f9722a3daafe3b4186f6b6457e060405160405180910390a35050565b600080fd5b600073ffffffffffffffffffffffffffffffffffffffff82169050919050565b60006200022982620001fc565b9050919050565b6200023b816200021c565b81146200024757600080fd5b50565b6000815190506200025b8162000230565b92915050565b6000819050919050565b620002768162000261565b81146200028257600080fd5b50565b60008151905062000296816200026b565b92915050565b60008060008060808587031215620002b957620002b8620001f7565b5b6000620002c9878288016200024a565b9450506020620002dc878288016200024a565b9350506040620002ef878288016200024a565b9250506060620003028782880162000285565b91505092959194509250565b611552806200031e6000396000f3fe608060405234801561001057600080fd5b506004361061009e5760003560e01c8063853828b611610066578063853828b6146101495780638da5cb5b14610167578063b6b55f2514610185578063c5bb8758146101b5578063f2fde38b146101d35761009e565b806323bd4d7a146100a35780632e1a7d4d146100c157806338af3eed146100f15780636be76ca11461010f578063715018a61461013f575b600080fd5b6100ab6101ef565b6040516100b89190610e20565b60405180910390f35b6100db60048036038101906100d69190610e76565b610215565b6040516100e89190610ebe565b60405180910390f35b6100f96103ee565b6040516101069190610e20565b60405180910390f35b61012960048036038101906101249190610e76565b610414565b6040516101369190610ebe565b60405180910390f35b6101476106e4565b005b6101516106f8565b60405161015e9190610ebe565b60405180910390f35b61016f610896565b60405161017c9190610e20565b60405180910390f35b61019f600480360381019061019a9190610e76565b6108bf565b6040516101ac9190610ebe565b60405180910390f35b6101bd610c0b565b6040516101ca9190610ee8565b60405180910390f35b6101ed60048036038101906101e89190610f2f565b610c11565b005b600360009054906101000a900473ffffffffffffffffffffffffffffffffffffffff1681565b600061021f610c95565b8160045411610263576040517f08c379a000000000000000000000000000000000000000000000000000000000815260040161025a90610fb9565b60405180910390fd5b600160009054906101000a900473ffffffffffffffffffffffffffffffffffffffff1673ffffffffffffffffffffffffffffffffffffffff1663a9059cbb33846040518363ffffffff1660e01b81526004016102c0929190610fd9565b602060405180830381600087803b1580156102da57600080fd5b505af11580156102ee573d6000803e3d6000fd5b505050506040513d601f19601f82011682018060405250810190610312919061102e565b61031b57600080fd5b816004600082825461032d919061108a565b925050819055503373ffffffffffffffffffffffffffffffffffffffff167f7fcf532c15f0a6db0bd6d0e038bea71d30d808c7d98cb3bf7268a95bf5081b658360405161037a9190610ee8565b60405180910390a2600554600454116103e557610395610896565b73ffffffffffffffffffffffffffffffffffffffff167f6e7a4e5f021ee43065c6892a84e7ac4bcb9de8b465d65f6be634acf2193bac866004546040516103dc9190610ee8565b60405180910390a25b60019050919050565b600260009054906101000a900473ffffffffffffffffffffffffffffffffffffffff1681565b6000600360009054906101000a900473ffffffffffffffffffffffffffffffffffffffff1673ffffffffffffffffffffffffffffffffffffffff163373ffffffffffffffffffffffffffffffffffffffff16146104a6576040517f08c379a000000000000000000000000000000000000000000000000000000000815260040161049d90611130565b60405180910390fd5b81600454116104ea576040517f08c379a00000000000000000000000000000000000000000000000000000000081526004016104e190610fb9565b60405180910390fd5b600160009054906101000a900473ffffffffffffffffffffffffffffffffffffffff1673ffffffffffffffffffffffffffffffffffffffff1663a9059cbb33846040518363ffffffff1660e01b8152600401610547929190610fd9565b602060405180830381600087803b15801561056157600080fd5b505af1158015610575573d6000803e3d6000fd5b505050506040513d601f19601f82011682018060405250810190610599919061102e565b6105d8576040517f08c379a00000000000000000000000000000000000000000000000000000000081526004016105cf9061119c565b60405180910390fd5b81600460008282546105ea919061108a565b92505081905550600360009054906101000a900473ffffffffffffffffffffffffffffffffffffffff1673ffffffffffffffffffffffffffffffffffffffff163073ffffffffffffffffffffffffffffffffffffffff167f8ed7db30df47fbd87811a5e8a95a94838f0c0241263d9a1865d6a2a3e10516e2846040516106709190610ee8565b60405180910390a3600554600454116106db5761068b610896565b73ffffffffffffffffffffffffffffffffffffffff167f6e7a4e5f021ee43065c6892a84e7ac4bcb9de8b465d65f6be634acf2193bac866004546040516106d29190610ee8565b60405180910390a25b60019050919050565b6106ec610c95565b6106f66000610d13565b565b6000610702610c95565b600060045411610747576040517f08c379a000000000000000000000000000000000000000000000000000000000815260040161073e90611208565b60405180910390fd5b600160009054906101000a900473ffffffffffffffffffffffffffffffffffffffff1673ffffffffffffffffffffffffffffffffffffffff1663a9059cbb336004546040518363ffffffff1660e01b81526004016107a6929190610fd9565b602060405180830381600087803b1580156107c057600080fd5b505af11580156107d4573d6000803e3d6000fd5b505050506040513d601f19601f820116820180604052508101906107f8919061102e565b610837576040517f08c379a000000000000000000000000000000000000000000000000000000000815260040161082e90610fb9565b60405180910390fd5b3373ffffffffffffffffffffffffffffffffffffffff167f7fcf532c15f0a6db0bd6d0e038bea71d30d808c7d98cb3bf7268a95bf5081b6560045460405161087f9190610ee8565b60405180910390a260006004819055506001905090565b60008060009054906101000a900473ffffffffffffffffffffffffffffffffffffffff16905090565b60006108c9610c95565b600554821161090d576040517f08c379a00000000000000000000000000000000000000000000000000000000081526004016109049061129a565b60405180910390fd5b81600160009054906101000a900473ffffffffffffffffffffffffffffffffffffffff1673ffffffffffffffffffffffffffffffffffffffff1663dd62ed3e33306040518363ffffffff1660e01b815260040161096b9291906112ba565b60206040518083038186803b15801561098357600080fd5b505afa158015610997573d6000803e3d6000fd5b505050506040513d601f19601f820116820180604052508101906109bb91906112f8565b10156109fc576040517f08c379a00000000000000000000000000000000000000000000000000000000081526004016109f390611371565b60405180910390fd5b81600160009054906101000a900473ffffffffffffffffffffffffffffffffffffffff1673ffffffffffffffffffffffffffffffffffffffff166370a08231336040518263ffffffff1660e01b8152600401610a589190610e20565b60206040518083038186803b158015610a7057600080fd5b505afa158015610a84573d6000803e3d6000fd5b505050506040513d601f19601f82011682018060405250810190610aa891906112f8565b1015610ae9576040517f08c379a0000000000000000000000000000000000000000000000000000000008152600401610ae090610fb9565b60405180910390fd5b600160009054906101000a900473ffffffffffffffffffffffffffffffffffffffff1673ffffffffffffffffffffffffffffffffffffffff166323b872dd3330856040518463ffffffff1660e01b8152600401610b4893929190611391565b602060405180830381600087803b158015610b6257600080fd5b505af1158015610b76573d6000803e3d6000fd5b505050506040513d601f19601f82011682018060405250810190610b9a919061102e565b508160046000828254610bad91906113c8565b925050819055503373ffffffffffffffffffffffffffffffffffffffff167fe1fffcc4923d04b559f4d29a8bfc6cda04eb5b0d3c460751c2402c5c5cc9109c83604051610bfa9190610ee8565b60405180910390a260019050919050565b60055481565b610c19610c95565b600073ffffffffffffffffffffffffffffffffffffffff168173ffffffffffffffffffffffffffffffffffffffff161415610c89576040517f08c379a0000000000000000000000000000000000000000000000000000000008152600401610c8090611490565b60405180910390fd5b610c9281610d13565b50565b610c9d610dd7565b73ffffffffffffffffffffffffffffffffffffffff16610cbb610896565b73ffffffffffffffffffffffffffffffffffffffff1614610d11576040517f08c379a0000000000000000000000000000000000000000000000000000000008152600401610d08906114fc565b60405180910390fd5b565b60008060009054906101000a900473ffffffffffffffffffffffffffffffffffffffff169050816000806101000a81548173ffffffffffffffffffffffffffffffffffffffff021916908373ffffffffffffffffffffffffffffffffffffffff1602179055508173ffffffffffffffffffffffffffffffffffffffff168173ffffffffffffffffffffffffffffffffffffffff167f8be0079c531659141344cd1fd0a4f28419497f9722a3daafe3b4186f6b6457e060405160405180910390a35050565b600033905090565b600073ffffffffffffffffffffffffffffffffffffffff82169050919050565b6000610e0a82610ddf565b9050919050565b610e1a81610dff565b82525050565b6000602082019050610e356000830184610e11565b92915050565b600080fd5b6000819050919050565b610e5381610e40565b8114610e5e57600080fd5b50565b600081359050610e7081610e4a565b92915050565b600060208284031215610e8c57610e8b610e3b565b5b6000610e9a84828501610e61565b91505092915050565b60008115159050919050565b610eb881610ea3565b82525050565b6000602082019050610ed36000830184610eaf565b92915050565b610ee281610e40565b82525050565b6000602082019050610efd6000830184610ed9565b92915050565b610f0c81610dff565b8114610f1757600080fd5b50565b600081359050610f2981610f03565b92915050565b600060208284031215610f4557610f44610e3b565b5b6000610f5384828501610f1a565b91505092915050565b600082825260208201905092915050565b7f496e73756666696369656e742062616c616e6365000000000000000000000000600082015250565b6000610fa3601483610f5c565b9150610fae82610f6d565b602082019050919050565b60006020820190508181036000830152610fd281610f96565b9050919050565b6000604082019050610fee6000830185610e11565b610ffb6020830184610ed9565b9392505050565b61100b81610ea3565b811461101657600080fd5b50565b60008151905061102881611002565b92915050565b60006020828403121561104457611043610e3b565b5b600061105284828501611019565b91505092915050565b7f4e487b7100000000000000000000000000000000000000000000000000000000600052601160045260246000fd5b600061109582610e40565b91506110a083610e40565b9250828210156110b3576110b261105b565b5b828203905092915050565b7f4f6e6c7920746865206f7267616e697a6174696f6e2063616e2063616c6c207460008201527f6869732066756e6374696f6e0000000000000000000000000000000000000000602082015250565b600061111a602c83610f5c565b9150611125826110be565b604082019050919050565b600060208201905081810360008301526111498161110d565b9050919050565b7f556e61626c6520746f20636f6d706c657465207061796d656e74000000000000600082015250565b6000611186601a83610f5c565b915061119182611150565b602082019050919050565b600060208201905081810360008301526111b581611179565b9050919050565b7f5468657265206973206e6f2062616c616e636500000000000000000000000000600082015250565b60006111f2601383610f5c565b91506111fd826111bc565b602082019050919050565b60006020820190508181036000830152611221816111e5565b9050919050565b7f4465706f736974206d7573742062652067726561746572207468616e2074686560008201527f206d696e2062616c616e63650000000000000000000000000000000000000000602082015250565b6000611284602c83610f5c565b915061128f82611228565b604082019050919050565b600060208201905081810360008301526112b381611277565b9050919050565b60006040820190506112cf6000830185610e11565b6112dc6020830184610e11565b9392505050565b6000815190506112f281610e4a565b92915050565b60006020828403121561130e5761130d610e3b565b5b600061131c848285016112e3565b91505092915050565b7f496e73756666696369656e7420616c6c6f77616e636500000000000000000000600082015250565b600061135b601683610f5c565b915061136682611325565b602082019050919050565b6000602082019050818103600083015261138a8161134e565b9050919050565b60006060820190506113a66000830186610e11565b6113b36020830185610e11565b6113c06040830184610ed9565b949350505050565b60006113d382610e40565b91506113de83610e40565b9250827fffffffffffffffffffffffffffffffffffffffffffffffffffffffffffffffff038211156114135761141261105b565b5b828201905092915050565b7f4f776e61626c653a206e6577206f776e657220697320746865207a65726f206160008201527f6464726573730000000000000000000000000000000000000000000000000000602082015250565b600061147a602683610f5c565b91506114858261141e565b604082019050919050565b600060208201905081810360008301526114a98161146d565b9050919050565b7f4f776e61626c653a2063616c6c6572206973206e6f7420746865206f776e6572600082015250565b60006114e6602083610f5c565b91506114f1826114b0565b602082019050919050565b60006020820190508181036000830152611515816114d9565b905091905056fea26469706673582212202ed5f7fdc0df7e7151f655b97f4135565f9ab2f3990539ac12dfcf66716b93aa64736f6c63430008080033",
  "devdoc": {
    "kind": "dev",
    "methods": {
      "owner()": {
        "details": "Returns the address of the current owner."
      },
      "renounceOwnership()": {
        "details": "Leaves the contract without owner. It will not be possible to call `onlyOwner` functions anymore. Can only be called by the current owner. NOTE: Renouncing ownership will leave the contract without an owner, thereby removing any functionality that is only available to the owner."
      },
      "transferOwnership(address)": {
        "details": "Transfers ownership of the contract to a new account (`newOwner`). Can only be called by the current owner."
      }
    },
    "version": 1
  },
  "userdoc": {
    "kind": "user",
    "methods": {},
    "version": 1
  },
  "storageLayout": {
    "storage": [
      {
        "astId": 184,
        "contract": "contracts/Trust.sol:Trust",
        "label": "_owner",
        "offset": 0,
        "slot": "0",
        "type": "t_address"
      },
      {
        "astId": 1666,
        "contract": "contracts/Trust.sol:Trust",
        "label": "vibra",
        "offset": 0,
        "slot": "1",
        "type": "t_contract(VibraToken)1983"
      },
      {
        "astId": 1668,
        "contract": "contracts/Trust.sol:Trust",
        "label": "beneficiary",
        "offset": 0,
        "slot": "2",
        "type": "t_address"
      },
      {
        "astId": 1670,
        "contract": "contracts/Trust.sol:Trust",
        "label": "organization",
        "offset": 0,
        "slot": "3",
        "type": "t_address"
      },
      {
        "astId": 1672,
        "contract": "contracts/Trust.sol:Trust",
        "label": "balance",
        "offset": 0,
        "slot": "4",
        "type": "t_uint256"
      },
      {
        "astId": 1674,
        "contract": "contracts/Trust.sol:Trust",
        "label": "minBalance",
        "offset": 0,
        "slot": "5",
        "type": "t_uint256"
      }
    ],
    "types": {
      "t_address": {
        "encoding": "inplace",
        "label": "address",
        "numberOfBytes": "20"
      },
      "t_contract(VibraToken)1983": {
        "encoding": "inplace",
        "label": "contract VibraToken",
        "numberOfBytes": "20"
      },
      "t_uint256": {
        "encoding": "inplace",
        "label": "uint256",
        "numberOfBytes": "32"
      }
    }
  }
}