{
  "address": "0x8992380424B19876C9edDA3413B01641a09FD19a",
  "abi": [
    {
      "inputs": [
        {
          "internalType": "uint64",
          "name": "subscriptionId",
          "type": "uint64"
        }
      ],
      "stateMutability": "nonpayable",
      "type": "constructor"
    },
    {
      "inputs": [
        {
          "internalType": "address",
          "name": "have",
          "type": "address"
        },
        {
          "internalType": "address",
          "name": "want",
          "type": "address"
        }
      ],
      "name": "OnlyCoordinatorCanFulfill",
      "type": "error"
    },
    {
      "anonymous": false,
      "inputs": [
        {
          "indexed": false,
          "internalType": "address",
          "name": "contestant",
          "type": "address"
        },
        {
          "indexed": false,
          "internalType": "uint256",
          "name": "index",
          "type": "uint256"
        }
      ],
      "name": "AddedContestant",
      "type": "event"
    },
    {
      "anonymous": false,
      "inputs": [
        {
          "indexed": false,
          "internalType": "address",
          "name": "contestIndex",
          "type": "address"
        }
      ],
      "name": "CreatedCampaign",
      "type": "event"
    },
    {
      "anonymous": false,
      "inputs": [
        {
          "indexed": false,
          "internalType": "address",
          "name": "contestIndex",
          "type": "address"
        }
      ],
      "name": "RemovedCampaign",
      "type": "event"
    },
    {
      "anonymous": false,
      "inputs": [
        {
          "indexed": false,
          "internalType": "address",
          "name": "contestant",
          "type": "address"
        },
        {
          "indexed": false,
          "internalType": "uint256",
          "name": "index",
          "type": "uint256"
        }
      ],
      "name": "RemovedContestant",
      "type": "event"
    },
    {
      "anonymous": false,
      "inputs": [
        {
          "indexed": false,
          "internalType": "address[]",
          "name": "winners",
          "type": "address[]"
        }
      ],
      "name": "WinnerEvent",
      "type": "event"
    },
    {
      "inputs": [],
      "name": "_drawContest",
      "outputs": [
        {
          "internalType": "uint256",
          "name": "",
          "type": "uint256"
        },
        {
          "internalType": "uint256[]",
          "name": "",
          "type": "uint256[]"
        }
      ],
      "stateMutability": "view",
      "type": "function"
    },
    {
      "inputs": [
        {
          "internalType": "uint256",
          "name": "contestIndex",
          "type": "uint256"
        },
        {
          "internalType": "address",
          "name": "contestantAddress",
          "type": "address"
        }
      ],
      "name": "addContestant",
      "outputs": [],
      "stateMutability": "nonpayable",
      "type": "function"
    },
    {
      "inputs": [
        {
          "internalType": "uint256",
          "name": "",
          "type": "uint256"
        }
      ],
      "name": "airdropCampaigns",
      "outputs": [
        {
          "internalType": "string",
          "name": "contestName",
          "type": "string"
        },
        {
          "internalType": "uint256",
          "name": "numberOfWinners",
          "type": "uint256"
        },
        {
          "internalType": "uint256",
          "name": "announcementDate",
          "type": "uint256"
        },
        {
          "internalType": "bool",
          "name": "contestDone",
          "type": "bool"
        },
        {
          "internalType": "string",
          "name": "imageURL",
          "type": "string"
        },
        {
          "internalType": "uint256",
          "name": "prizeWorth",
          "type": "uint256"
        },
        {
          "internalType": "uint256",
          "name": "randomSeed",
          "type": "uint256"
        },
        {
          "internalType": "bool",
          "name": "contestStaged",
          "type": "bool"
        },
        {
          "internalType": "uint256",
          "name": "contestantSettlement",
          "type": "uint256"
        }
      ],
      "stateMutability": "view",
      "type": "function"
    },
    {
      "inputs": [
        {
          "internalType": "bytes",
          "name": "",
          "type": "bytes"
        }
      ],
      "name": "checkUpkeep",
      "outputs": [
        {
          "internalType": "bool",
          "name": "upkeepNeeded",
          "type": "bool"
        },
        {
          "internalType": "bytes",
          "name": "performData",
          "type": "bytes"
        }
      ],
      "stateMutability": "view",
      "type": "function"
    },
    {
      "inputs": [
        {
          "internalType": "string",
          "name": "nameOfContest",
          "type": "string"
        },
        {
          "internalType": "uint256",
          "name": "winnersCount",
          "type": "uint256"
        },
        {
          "internalType": "address[]",
          "name": "contestantAddressArray",
          "type": "address[]"
        },
        {
          "internalType": "uint256",
          "name": "dateOfAnnouncement",
          "type": "uint256"
        },
        {
          "internalType": "string",
          "name": "imageURL",
          "type": "string"
        },
        {
          "internalType": "uint256",
          "name": "prizeWorth",
          "type": "uint256"
        },
        {
          "internalType": "uint256",
          "name": "contestantSettlement",
          "type": "uint256"
        }
      ],
      "name": "configureNewAirdrop",
      "outputs": [],
      "stateMutability": "nonpayable",
      "type": "function"
    },
    {
      "inputs": [
        {
          "internalType": "uint256",
          "name": "contestIndex",
          "type": "uint256"
        }
      ],
      "name": "getContestantAddresses",
      "outputs": [
        {
          "internalType": "address[]",
          "name": "contestantsAddresses",
          "type": "address[]"
        }
      ],
      "stateMutability": "view",
      "type": "function"
    },
    {
      "inputs": [
        {
          "internalType": "uint256",
          "name": "contestIndex",
          "type": "uint256"
        }
      ],
      "name": "getWinnersIndex",
      "outputs": [
        {
          "internalType": "address[]",
          "name": "",
          "type": "address[]"
        }
      ],
      "stateMutability": "view",
      "type": "function"
    },
    {
      "inputs": [
        {
          "internalType": "uint256",
          "name": "contestIndex",
          "type": "uint256"
        }
      ],
      "name": "getWinnersPublicKeysOnChain",
      "outputs": [
        {
          "internalType": "address[]",
          "name": "",
          "type": "address[]"
        }
      ],
      "stateMutability": "view",
      "type": "function"
    },
    {
      "inputs": [
        {
          "internalType": "uint256",
          "name": "contestIndex",
          "type": "uint256"
        },
        {
          "internalType": "address",
          "name": "contestant",
          "type": "address"
        }
      ],
      "name": "isContestant",
      "outputs": [
        {
          "internalType": "bool",
          "name": "",
          "type": "bool"
        }
      ],
      "stateMutability": "view",
      "type": "function"
    },
    {
      "inputs": [
        {
          "internalType": "bytes",
          "name": "performData",
          "type": "bytes"
        }
      ],
      "name": "performUpkeep",
      "outputs": [],
      "stateMutability": "nonpayable",
      "type": "function"
    },
    {
      "inputs": [
        {
          "internalType": "uint256",
          "name": "requestId",
          "type": "uint256"
        },
        {
          "internalType": "uint256[]",
          "name": "randomWords",
          "type": "uint256[]"
        }
      ],
      "name": "rawFulfillRandomWords",
      "outputs": [],
      "stateMutability": "nonpayable",
      "type": "function"
    },
    {
      "inputs": [
        {
          "internalType": "uint256",
          "name": "contestIndex",
          "type": "uint256"
        }
      ],
      "name": "removeAirDropCampaign",
      "outputs": [],
      "stateMutability": "nonpayable",
      "type": "function"
    },
    {
      "inputs": [
        {
          "internalType": "uint256",
          "name": "contestIndex",
          "type": "uint256"
        },
        {
          "internalType": "address",
          "name": "contestantAddress",
          "type": "address"
        }
      ],
      "name": "removeContestant",
      "outputs": [],
      "stateMutability": "nonpayable",
      "type": "function"
    },
    {
      "inputs": [],
      "name": "requestCounter",
      "outputs": [
        {
          "internalType": "uint256",
          "name": "",
          "type": "uint256"
        }
      ],
      "stateMutability": "view",
      "type": "function"
    },
    {
      "inputs": [
        {
          "internalType": "uint256",
          "name": "",
          "type": "uint256"
        }
      ],
      "name": "stagedContests",
      "outputs": [
        {
          "internalType": "uint256",
          "name": "",
          "type": "uint256"
        }
      ],
      "stateMutability": "view",
      "type": "function"
    },
    {
      "inputs": [
        {
          "internalType": "uint256",
          "name": "contestIndex",
          "type": "uint256"
        }
      ],
      "name": "stopContest",
      "outputs": [],
      "stateMutability": "nonpayable",
      "type": "function"
    }
  ],
  "transactionHash": "0x29162d565256f39baf8e24bb47f3c38f6472af8485c5d3e7e3d038a194fed5ea",
  "args": [
    3062
  ],
  "numDeployments": 1,
  "solcInputHash": "174eb0ff395132bb1a201f0be64701ef",
  "bytecode": "0x60a0604052732ca8e0c643bde4c2e08ab1fa0da3401adad7734d600160006101000a81548173ffffffffffffffffffffffffffffffffffffffff021916908373ffffffffffffffffffffffffffffffffffffffff1602179055507f79d3d8832d904592c0bf9818b621522c988bb8b0c05cdc3b15aea1b6e8db0c1560001b6002556207a120600360006101000a81548163ffffffff021916908363ffffffff16021790555060038060046101000a81548161ffff021916908361ffff160217905550348015620000ce57600080fd5b5060405162003d5c38038062003d5c8339818101604052810190620000f491906200026c565b600160009054906101000a900473ffffffffffffffffffffffffffffffffffffffff168073ffffffffffffffffffffffffffffffffffffffff1660808173ffffffffffffffffffffffffffffffffffffffff1660601b8152505050600160009054906101000a900473ffffffffffffffffffffffffffffffffffffffff166000806101000a81548173ffffffffffffffffffffffffffffffffffffffff021916908373ffffffffffffffffffffffffffffffffffffffff16021790555033600560006101000a81548173ffffffffffffffffffffffffffffffffffffffff021916908373ffffffffffffffffffffffffffffffffffffffff16021790555080600060146101000a81548167ffffffffffffffff021916908367ffffffffffffffff160217905550506200029e565b600080fd5b600067ffffffffffffffff82169050919050565b620002468162000227565b81146200025257600080fd5b50565b60008151905062000266816200023b565b92915050565b60006020828403121562000285576200028462000222565b5b6000620002958482850162000255565b91505092915050565b60805160601c613a98620002c46000396000818161067401526106c80152613a986000f3fe608060405234801561001057600080fd5b50600436106101005760003560e01c8063885cd05c11610097578063c3ab43c311610066578063c3ab43c3146102bc578063c4400b2f146102d8578063da1ae39a14610310578063dd2154101461032f57610100565b8063885cd05c14610222578063973a814e14610252578063aab4ce7014610270578063af744fda1461028c57610100565b80634585e33b116100d35780634585e33b1461019d57806355b8cf18146101b95780636220606a146101d55780636e04ff0d146101f157610100565b806317451c91146101055780631fe543e31461012157806336c498c51461013d57806342800ef41461016d575b600080fd5b61011f600480360381019061011a91906127ab565b61035f565b005b61013b60048036038101906101369190612944565b610672565b005b610157600480360381019061015291906129a0565b610732565b6040516101649190612a8b565b60405180910390f35b610187600480360381019061018291906129a0565b6108f5565b6040516101949190612abc565b60405180910390f35b6101b760048036038101906101b29190612b32565b610919565b005b6101d360048036038101906101ce9190612cf7565b610a47565b005b6101ef60048036038101906101ea91906129a0565b610c37565b005b61020b60048036038101906102069190612b32565b610f16565b604051610219929190612e90565b60405180910390f35b61023c600480360381019061023791906129a0565b611014565b6040516102499190612a8b565b60405180910390f35b61025a6110c7565b6040516102679190612abc565b60405180910390f35b61028a600480360381019061028591906129a0565b6110cd565b005b6102a660048036038101906102a191906127ab565b6113a6565b6040516102b39190612ec0565b60405180910390f35b6102d660048036038101906102d191906127ab565b6114e5565b005b6102f260048036038101906102ed91906129a0565b611838565b60405161030799989796959493929190612f30565b60405180910390f35b6103186119c0565b604051610326929190613089565b60405180910390f35b610349600480360381019061034491906129a0565b611d93565b6040516103569190612a8b565b60405180910390f35b600560009054906101000a900473ffffffffffffffffffffffffffffffffffffffff1673ffffffffffffffffffffffffffffffffffffffff163373ffffffffffffffffffffffffffffffffffffffff16146103b957600080fd5b60001515600a83815481106103d1576103d06130b9565b5b90600052602060002090600b020160050160009054906101000a900460ff16151514610432576040517f08c379a000000000000000000000000000000000000000000000000000000000815260040161042990613134565b60405180910390fd5b600a805490508210610479576040517f08c379a0000000000000000000000000000000000000000000000000000000008152600401610470906131a0565b60405180910390fd5b600080600a84815481106104905761048f6130b9565b5b90600052602060002090600b020160020180548060200260200160405190810160405280929190818152602001828054801561052157602002820191906000526020600020905b8160009054906101000a900473ffffffffffffffffffffffffffffffffffffffff1673ffffffffffffffffffffffffffffffffffffffff16815260200190600101908083116104d7575b5050505050905060005b815181101561059e57818181518110610547576105466130b9565b5b602002602001015173ffffffffffffffffffffffffffffffffffffffff168473ffffffffffffffffffffffffffffffffffffffff16141561058b576001925061059e565b8080610596906131ef565b91505061052b565b5060001515821515146105e6576040517f08c379a00000000000000000000000000000000000000000000000000000000081526004016105dd906132aa565b60405180910390fd5b600a84815481106105fa576105f96130b9565b5b90600052602060002090600b0201600201839080600181540180825580915050600190039060005260206000200160009091909190916101000a81548173ffffffffffffffffffffffffffffffffffffffff021916908373ffffffffffffffffffffffffffffffffffffffff16021790555050505050565b7f000000000000000000000000000000000000000000000000000000000000000073ffffffffffffffffffffffffffffffffffffffff163373ffffffffffffffffffffffffffffffffffffffff161461072457337f00000000000000000000000000000000000000000000000000000000000000006040517f1cf993f400000000000000000000000000000000000000000000000000000000815260040161071b9291906132d9565b60405180910390fd5b61072e8282611fbd565b5050565b606060011515600a838154811061074c5761074b6130b9565b5b90600052602060002090600b020160050160009054906101000a900460ff161515146107ad576040517f08c379a00000000000000000000000000000000000000000000000000000000081526004016107a49061334e565b60405180910390fd5b606060005b600a84815481106107c6576107c56130b9565b5b90600052602060002090600b0201600301805490508110156108eb576000600a85815481106107f8576107f76130b9565b5b90600052602060002090600b0201600301828154811061081b5761081a6130b9565b5b90600052602060002001549050600a858154811061083c5761083b6130b9565b5b90600052602060002090600b0201600201818154811061085f5761085e6130b9565b5b9060005260206000200160009054906101000a900473ffffffffffffffffffffffffffffffffffffffff1683838151811061089d5761089c6130b9565b5b602002602001019073ffffffffffffffffffffffffffffffffffffffff16908173ffffffffffffffffffffffffffffffffffffffff16815250505080806108e3906131ef565b9150506107b2565b5080915050919050565b6004818154811061090557600080fd5b906000526020600020016000915090505481565b60006004805490501115610a43576000828281019061093891906129a0565b90506004600160048054905061094e919061336e565b8154811061095f5761095e6130b9565b5b9060005260206000200154600460008154811061097f5761097e6130b9565b5b9060005260206000200181905550600480548061099f5761099e6133a2565b5b6001900381819060005260206000200160009055905560005b600160086000848152602001908152602001600020546109d8919061336e565b811015610a40576109e882612086565b600a83815481106109fc576109fb6130b9565b5b90600052602060002090600b02016003018281548110610a1f57610a1e6130b9565b5b90600052602060002001819055508080610a38906131ef565b9150506109b8565b50505b5050565b600560009054906101000a900473ffffffffffffffffffffffffffffffffffffffff1673ffffffffffffffffffffffffffffffffffffffff163373ffffffffffffffffffffffffffffffffffffffff1614610aa157600080fd5b60606000806040518061016001604052808b81526020018a8152602001898152602001848152602001888152602001600015158152602001878152602001868152602001838152602001600015158152602001858152509050600a8190806001815401808255809150506001900390600052602060002090600b02016000909190919091506000820151816000019080519060200190610b429291906123d6565b50602082015181600101556040820151816002019080519060200190610b6992919061245c565b506060820151816003019080519060200190610b869291906124e6565b506080820151816004015560a08201518160050160006101000a81548160ff02191690831515021790555060c0820151816006019080519060200190610bcd9291906123d6565b5060e0820151816007015561010082015181600801556101208201518160090160006101000a81548160ff02191690831515021790555061014082015181600a01555050600160076000828254610c2491906133d1565b9250508190555050505050505050505050565b600560009054906101000a900473ffffffffffffffffffffffffffffffffffffffff1673ffffffffffffffffffffffffffffffffffffffff163373ffffffffffffffffffffffffffffffffffffffff1614610c9157600080fd5b600a805490508110610cd8576040517f08c379a0000000000000000000000000000000000000000000000000000000008152600401610ccf906131a0565b60405180910390fd5b60008190505b6001600a80549050610cf0919061336e565b811015610e5757600a600182610d0691906133d1565b81548110610d1757610d166130b9565b5b90600052602060002090600b0201600a8281548110610d3957610d386130b9565b5b90600052602060002090600b02016000820181600001908054610d5b90613456565b610d66929190612533565b50600182015481600101556002820181600201908054610d879291906125c0565b506003820181600301908054610d9e929190612612565b50600482015481600401556005820160009054906101000a900460ff168160050160006101000a81548160ff0219169083151502179055506006820181600601908054610dea90613456565b610df5929190612533565b5060078201548160070155600882015481600801556009820160009054906101000a900460ff168160090160006101000a81548160ff021916908315150217905550600a82015481600a01559050508080610e4f906131ef565b915050610cde565b50600a805480610e6a57610e696133a2565b5b60019003818190600052602060002090600b020160008082016000610e8f9190612664565b6001820160009055600282016000610ea791906126a4565b600382016000610eb791906126c5565b60048201600090556005820160006101000a81549060ff0219169055600682016000610ee39190612664565b600782016000905560088201600090556009820160006101000a81549060ff0219169055600a8201600090555050905550565b6000606060006004805490501115610fe85760019150600a6004600081548110610f4357610f426130b9565b5b906000526020600020015481548110610f5f57610f5e6130b9565b5b90600052602060002090600b020160040154421015610fbe576004600081548110610f8d57610f8c6130b9565b5b9060005260206000200154604051602001610fa891906134a9565b6040516020818303038152906040529050610fe3565b60009150604051602001610fd19061351b565b60405160208183030381529060405290505b61100d565b60009150604051602001610ffb9061351b565b60405160208183030381529060405290505b9250929050565b6060600a828154811061102a576110296130b9565b5b90600052602060002090600b02016002018054806020026020016040519081016040528092919081815260200182805480156110bb57602002820191906000526020600020905b8160009054906101000a900473ffffffffffffffffffffffffffffffffffffffff1673ffffffffffffffffffffffffffffffffffffffff1681526020019060010190808311611071575b50505050509050919050565b60075481565b600560009054906101000a900473ffffffffffffffffffffffffffffffffffffffff1673ffffffffffffffffffffffffffffffffffffffff163373ffffffffffffffffffffffffffffffffffffffff161461112757600080fd5b6000600a828154811061113d5761113c6130b9565b5b90600052602060002090600b0201600801541461118f576040517f08c379a00000000000000000000000000000000000000000000000000000000081526004016111869061357c565b60405180910390fd5b60001515600a82815481106111a7576111a66130b9565b5b90600052602060002090600b020160090160009054906101000a900460ff16151514611208576040517f08c379a00000000000000000000000000000000000000000000000000000000081526004016111ff9061360e565b60405180910390fd5b60008060009054906101000a900473ffffffffffffffffffffffffffffffffffffffff1673ffffffffffffffffffffffffffffffffffffffff16635d3b1d30600254600060149054906101000a900467ffffffffffffffff16600360049054906101000a900461ffff16600360009054906101000a900463ffffffff1660016040518663ffffffff1660e01b81526004016112a79594939291906136eb565b602060405180830381600087803b1580156112c157600080fd5b505af11580156112d5573d6000803e3d6000fd5b505050506040513d601f19601f820116820180604052508101906112f99190613753565b90506001600a8054905061130d919061336e565b60066000838152602001908152602001600020819055506001600a838154811061133a576113396130b9565b5b90600052602060002090600b020160050160006101000a81548160ff021916908315150217905550600a8281548110611376576113756130b9565b5b90600052602060002090600b02016002018054905060086000848152602001908152602001600020819055505050565b6000600a8054905083106113ef576040517f08c379a00000000000000000000000000000000000000000000000000000000081526004016113e6906131a0565b60405180910390fd5b600080600a8581548110611406576114056130b9565b5b90600052602060002090600b020160020180549050905060005b818110156114d9578473ffffffffffffffffffffffffffffffffffffffff16600a8781548110611453576114526130b9565b5b90600052602060002090600b02016002018281548110611476576114756130b9565b5b9060005260206000200160009054906101000a900473ffffffffffffffffffffffffffffffffffffffff1673ffffffffffffffffffffffffffffffffffffffff1614156114c657600192506114d9565b80806114d1906131ef565b915050611420565b50819250505092915050565b600560009054906101000a900473ffffffffffffffffffffffffffffffffffffffff1673ffffffffffffffffffffffffffffffffffffffff163373ffffffffffffffffffffffffffffffffffffffff161461153f57600080fd5b600a805490508210611586576040517f08c379a000000000000000000000000000000000000000000000000000000000815260040161157d906131a0565b60405180910390fd5b60001515600a838154811061159e5761159d6130b9565b5b90600052602060002090600b020160050160009054906101000a900460ff161515146115ff576040517f08c379a00000000000000000000000000000000000000000000000000000000081526004016115f690613134565b60405180910390fd5b6000600a8381548110611615576116146130b9565b5b90600052602060002090600b0201600201805490509050600060018261163b919061336e565b67ffffffffffffffff81111561165457611653612801565b5b6040519080825280602002602001820160405280156116825781602001602082028036833780820191505090505b5090506000805b838110156117f6578473ffffffffffffffffffffffffffffffffffffffff16600a87815481106116bc576116bb6130b9565b5b90600052602060002090600b020160020182815481106116df576116de6130b9565b5b9060005260206000200160009054906101000a900473ffffffffffffffffffffffffffffffffffffffff1673ffffffffffffffffffffffffffffffffffffffff16146117e357600a8681548110611739576117386130b9565b5b90600052602060002090600b0201600201818154811061175c5761175b6130b9565b5b9060005260206000200160009054906101000a900473ffffffffffffffffffffffffffffffffffffffff1683838151811061179a576117996130b9565b5b602002602001019073ffffffffffffffffffffffffffffffffffffffff16908173ffffffffffffffffffffffffffffffffffffffff168152505081806117df906131ef565b9250505b80806117ee906131ef565b915050611689565b5081600a868154811061180c5761180b6130b9565b5b90600052602060002090600b0201600201908051906020019061183092919061245c565b505050505050565b600a818154811061184857600080fd5b90600052602060002090600b020160009150905080600001805461186b90613456565b80601f016020809104026020016040519081016040528092919081815260200182805461189790613456565b80156118e45780601f106118b9576101008083540402835291602001916118e4565b820191906000526020600020905b8154815290600101906020018083116118c757829003601f168201915b5050505050908060010154908060040154908060050160009054906101000a900460ff169080600601805461191890613456565b80601f016020809104026020016040519081016040528092919081815260200182805461194490613456565b80156119915780601f1061196657610100808354040283529160200191611991565b820191906000526020600020905b81548152906001019060200180831161197457829003601f168201915b5050505050908060070154908060080154908060090160009054906101000a900460ff169080600a0154905089565b60006060600060048054905011611a0c576040517f08c379a0000000000000000000000000000000000000000000000000000000008152600401611a03906137cc565b60405180910390fd5b60006004600081548110611a2357611a226130b9565b5b906000526020600020015490506000600a8281548110611a4657611a456130b9565b5b90600052602060002090600b02016003018054905014611a9b576040517f08c379a0000000000000000000000000000000000000000000000000000000008152600401611a9290613838565b60405180910390fd5b600a805490508110611ae2576040517f08c379a0000000000000000000000000000000000000000000000000000000008152600401611ad9906138a4565b60405180910390fd5b60011515600a8281548110611afa57611af96130b9565b5b90600052602060002090600b020160090160009054906101000a900460ff16151514611b5b576040517f08c379a0000000000000000000000000000000000000000000000000000000008152600401611b5290613910565b60405180910390fd5b60606000600a8381548110611b7357611b726130b9565b5b90600052602060002090600b0201600a01541415611bf557611bee6001600a8481548110611ba457611ba36130b9565b5b90600052602060002090600b020160020180549050611bc3919061336e565b600a8481548110611bd757611bd66130b9565b5b90600052602060002090600b0201600801546121c0565b9050611c8a565b6001600a8381548110611c0b57611c0a6130b9565b5b90600052602060002090600b0201600a01541415611c8957611c866001600a8481548110611c3c57611c3b6130b9565b5b90600052602060002090600b020160020180549050611c5b919061336e565b600a8481548110611c6f57611c6e6130b9565b5b90600052602060002090600b0201600801546121c0565b90505b5b6000600a8381548110611ca057611c9f6130b9565b5b90600052602060002090600b02016001015467ffffffffffffffff811115611ccb57611cca612801565b5b604051908082528060200260200182016040528015611cf95781602001602082028036833780820191505090505b50905060005b600a8481548110611d1357611d126130b9565b5b90600052602060002090600b020160010154811015611d85576001838281518110611d4157611d406130b9565b5b6020026020010151611d53919061336e565b828281518110611d6657611d656130b9565b5b6020026020010181815250508080611d7d906131ef565b915050611cff565b508281945094505050509091565b606060011515600a8381548110611dad57611dac6130b9565b5b90600052602060002090600b020160050160009054906101000a900460ff16151514611e0e576040517f08c379a0000000000000000000000000000000000000000000000000000000008152600401611e059061334e565b60405180910390fd5b6000600a8381548110611e2457611e236130b9565b5b90600052602060002090600b02016001015467ffffffffffffffff811115611e4f57611e4e612801565b5b604051908082528060200260200182016040528015611e7d5781602001602082028036833780820191505090505b50905060005b600a8481548110611e9757611e966130b9565b5b90600052602060002090600b020160010154811015611fb357600a8481548110611ec457611ec36130b9565b5b90600052602060002090600b0201600201600a8581548110611ee957611ee86130b9565b5b90600052602060002090600b02016003018281548110611f0c57611f0b6130b9565b5b906000526020600020015481548110611f2857611f276130b9565b5b9060005260206000200160009054906101000a900473ffffffffffffffffffffffffffffffffffffffff16828281518110611f6657611f656130b9565b5b602002602001019073ffffffffffffffffffffffffffffffffffffffff16908173ffffffffffffffffffffffffffffffffffffffff16815250508080611fab906131ef565b915050611e83565b5080915050919050565b60006006600084815260200190815260200160002054905081600081518110611fe957611fe86130b9565b5b6020026020010151600a8281548110612005576120046130b9565b5b90600052602060002090600b0201600801819055506001600a82815481106120305761202f6130b9565b5b90600052602060002090600b020160090160006101000a81548160ff0219169083151502179055506004819080600181540180825580915050600190039060005260206000200160009091909190915055505050565b6000806008600084815260200190815260200160002054116120dd576040517f08c379a00000000000000000000000000000000000000000000000000000000081526004016120d49061397c565b60405180910390fd5b6000600a83815481106120f3576120f26130b9565b5b90600052602060002090600b0201600801549050600061211282612396565b905061213c60016008600087815260200190815260200160002054612137919061336e565b612396565b600960008481526020019081526020016000208190555060006009600060016008600089815260200190815260200160002054612179919061336e565b81526020019081526020016000208190555060016008600086815260200190815260200160002060008282546121af919061336e565b925050819055508092505050919050565b606060008367ffffffffffffffff8111156121de576121dd612801565b5b60405190808252806020026020018201604052801561220c5781602001602082028036833780820191505090505b50905060005b848110156122595760018161222791906133d1565b82828151811061223a576122396130b9565b5b6020026020010181815250508080612251906131ef565b915050612212565b5060008360405160200161226d91906134a9565b6040516020818303038152906040528051906020012090506000600186612294919061336e565b90506000600190505b6001876122aa919061336e565b811015612389576000828460001c6122c291906139cb565b905060008584815181106122d9576122d86130b9565b5b602002602001015190508582815181106122f6576122f56130b9565b5b6020026020010151868581518110612311576123106130b9565b5b60200260200101818152505080868381518110612331576123306130b9565b5b6020026020010181815250508380612348906139fc565b9450508460405160200161235c9190613a47565b60405160208183030381529060405280519060200120945050508080612381906131ef565b91505061229d565b5082935050505092915050565b6000806009600084815260200190815260200160002054146123cd57600960008381526020019081526020016000205490506123d1565b8190505b919050565b8280546123e290613456565b90600052602060002090601f016020900481019282612404576000855561244b565b82601f1061241d57805160ff191683800117855561244b565b8280016001018555821561244b579182015b8281111561244a57825182559160200191906001019061242f565b5b50905061245891906126e6565b5090565b8280548282559060005260206000209081019282156124d5579160200282015b828111156124d45782518260006101000a81548173ffffffffffffffffffffffffffffffffffffffff021916908373ffffffffffffffffffffffffffffffffffffffff1602179055509160200191906001019061247c565b5b5090506124e291906126e6565b5090565b828054828255906000526020600020908101928215612522579160200282015b82811115612521578251825591602001919060010190612506565b5b50905061252f91906126e6565b5090565b82805461253f90613456565b90600052602060002090601f01602090048101928261256157600085556125af565b82601f1061257257805485556125af565b828001600101855582156125af57600052602060002091601f016020900482015b828111156125ae578254825591600101919060010190612593565b5b5090506125bc91906126e6565b5090565b8280548282559060005260206000209081019282156126015760005260206000209182015b828111156126005782548255916001019190600101906125e5565b5b50905061260e91906126e6565b5090565b8280548282559060005260206000209081019282156126535760005260206000209182015b82811115612652578254825591600101919060010190612637565b5b50905061266091906126e6565b5090565b50805461267090613456565b6000825580601f1061268257506126a1565b601f0160209004906000526020600020908101906126a091906126e6565b5b50565b50805460008255906000526020600020908101906126c291906126e6565b50565b50805460008255906000526020600020908101906126e391906126e6565b50565b5b808211156126ff5760008160009055506001016126e7565b5090565b6000604051905090565b600080fd5b600080fd5b6000819050919050565b61272a81612717565b811461273557600080fd5b50565b60008135905061274781612721565b92915050565b600073ffffffffffffffffffffffffffffffffffffffff82169050919050565b60006127788261274d565b9050919050565b6127888161276d565b811461279357600080fd5b50565b6000813590506127a58161277f565b92915050565b600080604083850312156127c2576127c161270d565b5b60006127d085828601612738565b92505060206127e185828601612796565b9150509250929050565b600080fd5b6000601f19601f8301169050919050565b7f4e487b7100000000000000000000000000000000000000000000000000000000600052604160045260246000fd5b612839826127f0565b810181811067ffffffffffffffff8211171561285857612857612801565b5b80604052505050565b600061286b612703565b90506128778282612830565b919050565b600067ffffffffffffffff82111561289757612896612801565b5b602082029050602081019050919050565b600080fd5b60006128c06128bb8461287c565b612861565b905080838252602082019050602084028301858111156128e3576128e26128a8565b5b835b8181101561290c57806128f88882612738565b8452602084019350506020810190506128e5565b5050509392505050565b600082601f83011261292b5761292a6127eb565b5b813561293b8482602086016128ad565b91505092915050565b6000806040838503121561295b5761295a61270d565b5b600061296985828601612738565b925050602083013567ffffffffffffffff81111561298a57612989612712565b5b61299685828601612916565b9150509250929050565b6000602082840312156129b6576129b561270d565b5b60006129c484828501612738565b91505092915050565b600081519050919050565b600082825260208201905092915050565b6000819050602082019050919050565b612a028161276d565b82525050565b6000612a1483836129f9565b60208301905092915050565b6000602082019050919050565b6000612a38826129cd565b612a4281856129d8565b9350612a4d836129e9565b8060005b83811015612a7e578151612a658882612a08565b9750612a7083612a20565b925050600181019050612a51565b5085935050505092915050565b60006020820190508181036000830152612aa58184612a2d565b905092915050565b612ab681612717565b82525050565b6000602082019050612ad16000830184612aad565b92915050565b600080fd5b60008083601f840112612af257612af16127eb565b5b8235905067ffffffffffffffff811115612b0f57612b0e612ad7565b5b602083019150836001820283011115612b2b57612b2a6128a8565b5b9250929050565b60008060208385031215612b4957612b4861270d565b5b600083013567ffffffffffffffff811115612b6757612b66612712565b5b612b7385828601612adc565b92509250509250929050565b600080fd5b600067ffffffffffffffff821115612b9f57612b9e612801565b5b612ba8826127f0565b9050602081019050919050565b82818337600083830152505050565b6000612bd7612bd284612b84565b612861565b905082815260208101848484011115612bf357612bf2612b7f565b5b612bfe848285612bb5565b509392505050565b600082601f830112612c1b57612c1a6127eb565b5b8135612c2b848260208601612bc4565b91505092915050565b600067ffffffffffffffff821115612c4f57612c4e612801565b5b602082029050602081019050919050565b6000612c73612c6e84612c34565b612861565b90508083825260208201905060208402830185811115612c9657612c956128a8565b5b835b81811015612cbf5780612cab8882612796565b845260208401935050602081019050612c98565b5050509392505050565b600082601f830112612cde57612cdd6127eb565b5b8135612cee848260208601612c60565b91505092915050565b600080600080600080600060e0888a031215612d1657612d1561270d565b5b600088013567ffffffffffffffff811115612d3457612d33612712565b5b612d408a828b01612c06565b9750506020612d518a828b01612738565b965050604088013567ffffffffffffffff811115612d7257612d71612712565b5b612d7e8a828b01612cc9565b9550506060612d8f8a828b01612738565b945050608088013567ffffffffffffffff811115612db057612daf612712565b5b612dbc8a828b01612c06565b93505060a0612dcd8a828b01612738565b92505060c0612dde8a828b01612738565b91505092959891949750929550565b60008115159050919050565b612e0281612ded565b82525050565b600081519050919050565b600082825260208201905092915050565b60005b83811015612e42578082015181840152602081019050612e27565b83811115612e51576000848401525b50505050565b6000612e6282612e08565b612e6c8185612e13565b9350612e7c818560208601612e24565b612e85816127f0565b840191505092915050565b6000604082019050612ea56000830185612df9565b8181036020830152612eb78184612e57565b90509392505050565b6000602082019050612ed56000830184612df9565b92915050565b600081519050919050565b600082825260208201905092915050565b6000612f0282612edb565b612f0c8185612ee6565b9350612f1c818560208601612e24565b612f25816127f0565b840191505092915050565b6000610120820190508181036000830152612f4b818c612ef7565b9050612f5a602083018b612aad565b612f67604083018a612aad565b612f746060830189612df9565b8181036080830152612f868188612ef7565b9050612f9560a0830187612aad565b612fa260c0830186612aad565b612faf60e0830185612df9565b612fbd610100830184612aad565b9a9950505050505050505050565b600081519050919050565b600082825260208201905092915050565b6000819050602082019050919050565b61300081612717565b82525050565b60006130128383612ff7565b60208301905092915050565b6000602082019050919050565b600061303682612fcb565b6130408185612fd6565b935061304b83612fe7565b8060005b8381101561307c5781516130638882613006565b975061306e8361301e565b92505060018101905061304f565b5085935050505092915050565b600060408201905061309e6000830185612aad565b81810360208301526130b0818461302b565b90509392505050565b7f4e487b7100000000000000000000000000000000000000000000000000000000600052603260045260246000fd5b7f436f6e7465737420456e64656400000000000000000000000000000000000000600082015250565b600061311e600d83612ee6565b9150613129826130e8565b602082019050919050565b6000602082019050818103600083015261314d81613111565b9050919050565b7f4f7574206f6620626f756e647300000000000000000000000000000000000000600082015250565b600061318a600d83612ee6565b915061319582613154565b602082019050919050565b600060208201905081810360008301526131b98161317d565b9050919050565b7f4e487b7100000000000000000000000000000000000000000000000000000000600052601160045260246000fd5b60006131fa82612717565b91507fffffffffffffffffffffffffffffffffffffffffffffffffffffffffffffffff82141561322d5761322c6131c0565b5b600182019050919050565b7f436f6e74657374616e7420616c7265616479207265676973746572656420666f60008201527f72207468697320636f6e74657374000000000000000000000000000000000000602082015250565b6000613294602e83612ee6565b915061329f82613238565b604082019050919050565b600060208201905081810360008301526132c381613287565b9050919050565b6132d38161276d565b82525050565b60006040820190506132ee60008301856132ca565b6132fb60208301846132ca565b9392505050565b7f436f6e74657374206e6f7420647261776e207965740000000000000000000000600082015250565b6000613338601583612ee6565b915061334382613302565b602082019050919050565b600060208201905081810360008301526133678161332b565b9050919050565b600061337982612717565b915061338483612717565b925082821015613397576133966131c0565b5b828203905092915050565b7f4e487b7100000000000000000000000000000000000000000000000000000000600052603160045260246000fd5b60006133dc82612717565b91506133e783612717565b9250827fffffffffffffffffffffffffffffffffffffffffffffffffffffffffffffffff0382111561341c5761341b6131c0565b5b828201905092915050565b7f4e487b7100000000000000000000000000000000000000000000000000000000600052602260045260246000fd5b6000600282049050600182168061346e57607f821691505b6020821081141561348257613481613427565b5b50919050565b6000819050919050565b6134a361349e82612717565b613488565b82525050565b60006134b58284613492565b60208201915081905092915050565b600081905092915050565b7f3078000000000000000000000000000000000000000000000000000000000000600082015250565b60006135056002836134c4565b9150613510826134cf565b600282019050919050565b6000613526826134f8565b9150819050919050565b7f52616e646f6d536565642063616e6e6f74206265206f7665727772697474656e600082015250565b6000613566602083612ee6565b915061357182613530565b602082019050919050565b6000602082019050818103600083015261359581613559565b9050919050565b7f43616e6e6f742073746f70206120636f6e74657374206d6f7265207468616e2060008201527f6f6e636500000000000000000000000000000000000000000000000000000000602082015250565b60006135f8602483612ee6565b91506136038261359c565b604082019050919050565b60006020820190508181036000830152613627816135eb565b9050919050565b6000819050919050565b6136418161362e565b82525050565b600067ffffffffffffffff82169050919050565b61366481613647565b82525050565b600061ffff82169050919050565b6136818161366a565b82525050565b600063ffffffff82169050919050565b6136a081613687565b82525050565b6000819050919050565b6000819050919050565b60006136d56136d06136cb846136a6565b6136b0565b613687565b9050919050565b6136e5816136ba565b82525050565b600060a0820190506137006000830188613638565b61370d602083018761365b565b61371a6040830186613678565b6137276060830185613697565b61373460808301846136dc565b9695505050505050565b60008151905061374d81612721565b92915050565b6000602082840312156137695761376861270d565b5b60006137778482850161373e565b91505092915050565b7f4e6f20636f6e7465737473207374616765640000000000000000000000000000600082015250565b60006137b6601283612ee6565b91506137c182613780565b602082019050919050565b600060208201905081810360008301526137e5816137a9565b9050919050565b7f57696e6e65727320616c726561647920647261776e0000000000000000000000600082015250565b6000613822601583612ee6565b915061382d826137ec565b602082019050919050565b6000602082019050818103600083015261385181613815565b9050919050565b7f436f6e74657374206f7574206f6620626f756e64730000000000000000000000600082015250565b600061388e601583612ee6565b915061389982613858565b602082019050919050565b600060208201905081810360008301526138bd81613881565b9050919050565b7f436f6e74657374206e6f74207374616765640000000000000000000000000000600082015250565b60006138fa601283612ee6565b9150613905826138c4565b602082019050919050565b60006020820190508181036000830152613929816138ed565b9050919050565b7f416c6c20636172647320647261776e0000000000000000000000000000000000600082015250565b6000613966600f83612ee6565b915061397182613930565b602082019050919050565b6000602082019050818103600083015261399581613959565b9050919050565b7f4e487b7100000000000000000000000000000000000000000000000000000000600052601260045260246000fd5b60006139d682612717565b91506139e183612717565b9250826139f1576139f061399c565b5b828206905092915050565b6000613a0782612717565b91506000821415613a1b57613a1a6131c0565b5b600182039050919050565b6000819050919050565b613a41613a3c8261362e565b613a26565b82525050565b6000613a538284613a30565b6020820191508190509291505056fea264697066735822122058e9838660e73191bd5d42c26e4678215f9b0578499ae61253c4fb7a978dfe5264736f6c63430008080033",
  "devdoc": {
    "kind": "dev",
    "methods": {
      "performUpkeep(bytes)": {
        "details": "The input to this method should not be trusted, and the caller of the method should not even be restricted to any single registry. Anyone should be able call it, and the input should be validated, there is no guarantee that the data passed in is the performData returned from checkUpkeep. This could happen due to malicious keepers, racing keepers, or simply a state change while the performUpkeep transaction is waiting for confirmation. Always validate the data passed in.",
        "params": {
          "performData": "is the data which was passed back from the checkData simulation. If it is encoded, it can easily be decoded into other types by calling `abi.decode`. This data should not be trusted, and should be validated against the contract's current state."
        }
      }
    },
    "version": 1
  },
  "userdoc": {
    "kind": "user",
    "methods": {
      "checkUpkeep(bytes)": {
        "notice": "function setProvenanceHash(string memory _provenanceHash) public onlyOwner { require(bytes(provenanceHash).length == 0, \"The provenance hash can be set only once\"); provenanceHash = _provenanceHash; } function setMerkleRoot(bytes32 _merkleRoot) public onlyOwner { merkleRoot = _merkleRoot; } function merkleProof(bytes32[] calldata _merkleProof) public view returns(bool) { bytes32 leaf = keccak256(abi.encodePacked(msg.sender)); require(MerkleProof.verify(_merkleProof, merkleRoot, leaf), \"Invalid proof!\"); return true; //whitelistClaimed[_msgSender()] = true; //_safeMint(_msgSender(), _mintAmount); }*"
      },
      "performUpkeep(bytes)": {
        "notice": "method that is actually executed by the keepers, via the registry. The data returned by the checkUpkeep simulation will be passed into this method to actually be executed."
      }
    },
    "version": 1
  },
  "storageLayout": {
    "storage": [
      {
        "astId": 4329,
        "contract": "contracts/airdrop.sol:VRFConsumerV2",
        "label": "COORDINATOR",
        "offset": 0,
        "slot": "0",
        "type": "t_contract(VRFCoordinatorV2Interface)223"
      },
      {
        "astId": 4331,
        "contract": "contracts/airdrop.sol:VRFConsumerV2",
        "label": "s_subscriptionId",
        "offset": 20,
        "slot": "0",
        "type": "t_uint64"
      },
      {
        "astId": 4334,
        "contract": "contracts/airdrop.sol:VRFConsumerV2",
        "label": "vrfCoordinator",
        "offset": 0,
        "slot": "1",
        "type": "t_address"
      },
      {
        "astId": 4337,
        "contract": "contracts/airdrop.sol:VRFConsumerV2",
        "label": "keyHash",
        "offset": 0,
        "slot": "2",
        "type": "t_bytes32"
      },
      {
        "astId": 4340,
        "contract": "contracts/airdrop.sol:VRFConsumerV2",
        "label": "callbackGasLimit",
        "offset": 0,
        "slot": "3",
        "type": "t_uint32"
      },
      {
        "astId": 4343,
        "contract": "contracts/airdrop.sol:VRFConsumerV2",
        "label": "requestConfirmations",
        "offset": 4,
        "slot": "3",
        "type": "t_uint16"
      },
      {
        "astId": 4346,
        "contract": "contracts/airdrop.sol:VRFConsumerV2",
        "label": "stagedContests",
        "offset": 0,
        "slot": "4",
        "type": "t_array(t_uint256)dyn_storage"
      },
      {
        "astId": 4348,
        "contract": "contracts/airdrop.sol:VRFConsumerV2",
        "label": "s_owner",
        "offset": 0,
        "slot": "5",
        "type": "t_address"
      },
      {
        "astId": 4352,
        "contract": "contracts/airdrop.sol:VRFConsumerV2",
        "label": "s_requestIdToContestIndex",
        "offset": 0,
        "slot": "6",
        "type": "t_mapping(t_uint256,t_uint256)"
      },
      {
        "astId": 4354,
        "contract": "contracts/airdrop.sol:VRFConsumerV2",
        "label": "requestCounter",
        "offset": 0,
        "slot": "7",
        "type": "t_uint256"
      },
      {
        "astId": 4358,
        "contract": "contracts/airdrop.sol:VRFConsumerV2",
        "label": "remaining",
        "offset": 0,
        "slot": "8",
        "type": "t_mapping(t_uint256,t_uint256)"
      },
      {
        "astId": 4362,
        "contract": "contracts/airdrop.sol:VRFConsumerV2",
        "label": "movedIndices",
        "offset": 0,
        "slot": "9",
        "type": "t_mapping(t_uint256,t_uint256)"
      },
      {
        "astId": 4416,
        "contract": "contracts/airdrop.sol:VRFConsumerV2",
        "label": "airdropCampaigns",
        "offset": 0,
        "slot": "10",
        "type": "t_array(t_struct(AirDropCampaign)4412_storage)dyn_storage"
      }
    ],
    "types": {
      "t_address": {
        "encoding": "inplace",
        "label": "address",
        "numberOfBytes": "20"
      },
      "t_array(t_address)dyn_storage": {
        "base": "t_address",
        "encoding": "dynamic_array",
        "label": "address[]",
        "numberOfBytes": "32"
      },
      "t_array(t_struct(AirDropCampaign)4412_storage)dyn_storage": {
        "base": "t_struct(AirDropCampaign)4412_storage",
        "encoding": "dynamic_array",
        "label": "struct VRFConsumerV2.AirDropCampaign[]",
        "numberOfBytes": "32"
      },
      "t_array(t_uint256)dyn_storage": {
        "base": "t_uint256",
        "encoding": "dynamic_array",
        "label": "uint256[]",
        "numberOfBytes": "32"
      },
      "t_bool": {
        "encoding": "inplace",
        "label": "bool",
        "numberOfBytes": "1"
      },
      "t_bytes32": {
        "encoding": "inplace",
        "label": "bytes32",
        "numberOfBytes": "32"
      },
      "t_contract(VRFCoordinatorV2Interface)223": {
        "encoding": "inplace",
        "label": "contract VRFCoordinatorV2Interface",
        "numberOfBytes": "20"
      },
      "t_mapping(t_uint256,t_uint256)": {
        "encoding": "mapping",
        "key": "t_uint256",
        "label": "mapping(uint256 => uint256)",
        "numberOfBytes": "32",
        "value": "t_uint256"
      },
      "t_string_storage": {
        "encoding": "bytes",
        "label": "string",
        "numberOfBytes": "32"
      },
      "t_struct(AirDropCampaign)4412_storage": {
        "encoding": "inplace",
        "label": "struct VRFConsumerV2.AirDropCampaign",
        "members": [
          {
            "astId": 4389,
            "contract": "contracts/airdrop.sol:VRFConsumerV2",
            "label": "contestName",
            "offset": 0,
            "slot": "0",
            "type": "t_string_storage"
          },
          {
            "astId": 4391,
            "contract": "contracts/airdrop.sol:VRFConsumerV2",
            "label": "numberOfWinners",
            "offset": 0,
            "slot": "1",
            "type": "t_uint256"
          },
          {
            "astId": 4394,
            "contract": "contracts/airdrop.sol:VRFConsumerV2",
            "label": "contestantsAddresses",
            "offset": 0,
            "slot": "2",
            "type": "t_array(t_address)dyn_storage"
          },
          {
            "astId": 4397,
            "contract": "contracts/airdrop.sol:VRFConsumerV2",
            "label": "winners",
            "offset": 0,
            "slot": "3",
            "type": "t_array(t_uint256)dyn_storage"
          },
          {
            "astId": 4399,
            "contract": "contracts/airdrop.sol:VRFConsumerV2",
            "label": "announcementDate",
            "offset": 0,
            "slot": "4",
            "type": "t_uint256"
          },
          {
            "astId": 4401,
            "contract": "contracts/airdrop.sol:VRFConsumerV2",
            "label": "contestDone",
            "offset": 0,
            "slot": "5",
            "type": "t_bool"
          },
          {
            "astId": 4403,
            "contract": "contracts/airdrop.sol:VRFConsumerV2",
            "label": "imageURL",
            "offset": 0,
            "slot": "6",
            "type": "t_string_storage"
          },
          {
            "astId": 4405,
            "contract": "contracts/airdrop.sol:VRFConsumerV2",
            "label": "prizeWorth",
            "offset": 0,
            "slot": "7",
            "type": "t_uint256"
          },
          {
            "astId": 4407,
            "contract": "contracts/airdrop.sol:VRFConsumerV2",
            "label": "randomSeed",
            "offset": 0,
            "slot": "8",
            "type": "t_uint256"
          },
          {
            "astId": 4409,
            "contract": "contracts/airdrop.sol:VRFConsumerV2",
            "label": "contestStaged",
            "offset": 0,
            "slot": "9",
            "type": "t_bool"
          },
          {
            "astId": 4411,
            "contract": "contracts/airdrop.sol:VRFConsumerV2",
            "label": "contestantSettlement",
            "offset": 0,
            "slot": "10",
            "type": "t_uint256"
          }
        ],
        "numberOfBytes": "352"
      },
      "t_uint16": {
        "encoding": "inplace",
        "label": "uint16",
        "numberOfBytes": "2"
      },
      "t_uint256": {
        "encoding": "inplace",
        "label": "uint256",
        "numberOfBytes": "32"
      },
      "t_uint32": {
        "encoding": "inplace",
        "label": "uint32",
        "numberOfBytes": "4"
      },
      "t_uint64": {
        "encoding": "inplace",
        "label": "uint64",
        "numberOfBytes": "8"
      }
    }
  }
}